:020000040800F2
:1000000000500020F11E0008E11D0008E91D000855
:10001000F11D0008F91D0008011E00080000000085
:10002000000000000000000000000000091E0008A1
:10003000151E000800000000211E00082D1E0008EB
:10004000391F0008391F0008391F0008391F000830
:10005000391F0008391E0008391F0008391F000821
:10006000391F0008391F0008391F0008391F000810
:10007000451E0008591E00086D1E0008811E00085C
:10008000391F0008391F0008391F0008391F0008F0
:10009000391F0008391F0008391F0008391F0008E0
:1000A000391F0008391F0008391F0008391F0008D0
:1000B000951E0008391F0008391F0008391F000865
:1000C000391F0008391F0008391F0008391F0008B0
:1000D000A91E0008BD1E0008391F0008D11E000817
:1000E000391F0008391F0008391F000800000000F0
:1000F0000000000000000000000000000000000000
:0C01000000000000000000005FF808F1A3
:10010C0010B5054C237833B9044B13B10448AFF345
:10011C0000800123237010BD0C00002000000000A3
:10012C00AC5C000808B5034B1BB103490348AFF3A3
:10013C00008008BD0000000010000020AC5C00082E
:10014C0080B485B000AF78600B467B80FF23FB73D7
:10015C00FF23BB7313E07B685A1C7A601A78BB7B55
:10016C005340DBB2BB600F4ABB6813441A78FB7B6D
:10017C005340BB730C4ABB6813441B78FB737B88DE
:10018C005A1E7A80002BE6D1FB7B1BB21B021AB2E3
:10019C00BB7B1BB213431BB29BB218461437BD4634
:1001AC0080BC7047C45C0008C45D000880B485B096
:1001BC0000AF78600B467B80FF23FB73FF23BB7380
:1001CC0013E07B685A1C7A601A78BB7B5340DBB215
:1001DC00BB600F4ABB6813441A78FB7B5340BB735C
:1001EC000C4ABB6813441B78FB737B885A1E7A80BD
:1001FC00002BE6D1FB7B1BB21B021AB2BB7B1BB2E2
:10020C0013431BB29BB218461437BD4680BC7047D3
:10021C00C45E0008C45F000880B584B000AF78608D
:10022C000B467B807B8819467868FFF789FF03466D
:10023C00FB817B887A681344FA89D2B21A70FB89E5
:10024C001B0A99B27B8801337A681344CAB21A70BC
:10025C0001224FF400710F4802F085FD0A2001F0D5
:10026C00C9FE7B8802339AB24FF0FF3379680A4893
:10027C0004F08AFC40220021084805F0D7FC00223B
:10028C004FF40071034802F06EFD00BF1037BD46FD
:10029C0080BD00BF000C0140D4030020840000206E
:1002AC0080B584B000AF78600B467B807B881946A4
:1002BC007868FFF77BFF0346FB817B887A681344E1
:1002CC00FA89D2B21A70FB891B0A99B27B88013366
:1002DC007A681344CAB21A7001224FF480710F4825
:1002EC0002F041FD0A2001F085FE7B8802339AB2B0
:1002FC004FF0FF3379680A4804F046FC4022002195
:10030C00084805F093FC00224FF48071034802F07A
:10031C002AFD00BF1037BD4680BD00BF000801405C
:10032C008C0300204400002080B588B000AFA34BA4
:10033C009B797B82A24B1B881A46A24B1B881344C9
:10034C00102B01DD002334E10023FB610023BB6192
:10035C0052E0BB690733994AD35CFB7300237B6182
:10036C0044E0984B1B881A46FB6993423BDA944B4A
:10037C001B881A46FB691344BB60FA7B7B6942FA03
:10038C0003F303F00103002B14D0BB68002B00DA3D
:10039C000733DB108C4AD25C51B2BA6802F0070208
:1003AC00012000FA02F252B20A4352B2D1B2864A8A
:1003BC00D15415E0BB68002B00DA0733DB10824AFE
:1003CC00D25C51B2BA6802F00702012000FA02F2C4
:1003DC0052B2D24352B20A4052B2D1B27A4AD1543A
:1003EC00FB690133FB617B6901337B617B69072B03
:1003FC00B7DDBB690133BB617B8ABA699A42A8DB62
:10040C00714B5B781BB21B021AB26F4B1B781BB281
:10041C0013431BB23B823B8ADBB203F00103DBB21A
:10042C001A460221694802F09EFC3B8A5B10DBB243
:10043C0003F00103DBB21A464FF40061634802F08B
:10044C0092FC3B8A9B10DBB203F00103DBB21A4631
:10045C004FF480515D4802F086FC3B8ADB10DBB226
:10046C0003F00103DBB21A461021584802F07BFC62
:10047C003B8A1B11DBB203F00103DBB21A464021AD
:10048C00524802F070FC3B8A5B11DBB203F00103B3
:10049C00DBB21A4620214D4802F065FC3B8A9B11C9
:1004AC00DBB203F00103DBB21A460121484802F02B
:1004BC005AFC3B8ADB11DBB203F00103DBB21A46B8
:1004CC008021424802F04FFC3B8A1B12DBB203F046
:1004DC000103DBB21A464FF480413E4802F043FC64
:1004EC003B8A5B12DBB203F00103DBB21A4602213A
:1004FC00374802F038FC3B8A9B12DBB203F0010355
:10050C00DBB21A464FF48071314802F02CFC3B8A66
:10051C00DB12DBB203F00103DBB21A464FF40051DD
:10052C002C4802F020FC3B8A1B13DBB203F00103C6
:10053C00DBB21A464FF40041244802F014FC3B8A0B
:10054C005B13DBB203F00103DBB21A46082120482F
:10055C0002F009FC3B8A9B13DBB203F00103DBB214
:10056C001A4610211A4802F0FEFBB7F91030DB13C3
:10057C001BB2DBB203F00103DBB21A462021144894
:10058C0002F0F1FB144B1B783B700F237B700B4B71
:10059C009B78BB70094BDB78FB70084B1B793B716C
:1005AC00064B5B797B713B4606211846FFF778FEBC
:1005BC00012318462037BD4680BD00BF44000020F3
:1005CC002C0000202E0000202800002000080140F4
:1005DC00000C014000100140C400002080B586B022
:1005EC0000AF3B4B1B880733002B00DA0733DB10C3
:1005FC00FB71384B1B881A46354B1B881344102B48
:10060C0001DD00235FE0344B1A78344B1A70334B06
:10061C0001225A70314AFB799370FB791A460021FA
:10062C002F4805F003FB2B4B1B88FB8200233B61FF
:10063C003CE00023FB730023BB602CE0FA8A254BC3
:10064C001B881946224B1B880B449A4220DAFB8AE2
:10065C00DB089BB2BB71FB8ADBB203F007037B7137
:10066C00BB79204AD35C1A467B7942FA03F303F038
:10067C000103002B09D00122BB6802FA03F35AB222
:10068C0097F90F3013435BB2FB73FB8A0133FB8288
:10069C00BB680133BB60BB68072BCFDD3B69033301
:1006AC000E49FA7BCA543B6901333B61FB793A69C9
:1006BC009A42BEDBFB799BB203339BB219460748C7
:1006CC00FFF7EEFD012318461837BD4680BD00BF6D
:1006DC002E0000202C000020C40000200801002067
:1006EC000B0100202800002080B588B000AFA34B80
:1006FC009B797B82A24B1B881A46A24B1B88134406
:10070C00102B01DD002334E10023FB610023BB61CE
:10071C0052E0BB690733994AD35CFB7300237B61BE
:10072C0044E0984B1B881A46FB6993423BDA944B86
:10073C001B881A46FB691344BB60FA7B7B6942FA3F
:10074C0003F303F00103002B14D0BB68002B00DA79
:10075C000733DB108C4AD25C51B2BA6802F0070244
:10076C00012000FA02F252B20A4352B2D1B2864AC6
:10077C00D15415E0BB68002B00DA0733DB10824A3A
:10078C00D25C51B2BA6802F00702012000FA02F200
:10079C0052B2D24352B20A4052B2D1B27A4AD15476
:1007AC00FB690133FB617B6901337B617B69072B3F
:1007BC00B7DDBB690133BB617B8ABA699A42A8DB9E
:1007CC00714B5B781BB21B021AB26F4B1B781BB2BE
:1007DC0013431BB23B823B8ADBB203F00103DBB257
:1007EC001A460221694802F0BEFA3B8A5B10DBB262
:1007FC0003F00103DBB21A464FF40061634802F0C8
:10080C00B2FA3B8A9B10DBB203F00103DBB21A464F
:10081C004FF480515D4802F0A6FA3B8ADB10DBB244
:10082C0003F00103DBB21A461021584802F09BFA80
:10083C003B8A1B11DBB203F00103DBB21A464021E9
:10084C00524802F090FA3B8A5B11DBB203F00103D1
:10085C00DBB21A4620214D4802F085FA3B8A9B11E7
:10086C00DBB203F00103DBB21A460121484802F067
:10087C007AFA3B8ADB11DBB203F00103DBB21A46D6
:10088C008021424802F06FFA3B8A1B12DBB203F064
:10089C000103DBB21A464FF480413E4802F063FA82
:1008AC003B8A5B12DBB203F00103DBB21A46022176
:1008BC00374802F058FA3B8A9B12DBB203F0010373
:1008CC00DBB21A464FF48071314802F04CFA3B8A85
:1008DC00DB12DBB203F00103DBB21A464FF400511A
:1008EC002C4802F040FA3B8A1B13DBB203F00103E5
:1008FC00DBB21A464FF40041244802F034FA3B8A2A
:10090C005B13DBB203F00103DBB21A46082120486B
:10091C0002F029FA3B8A9B13DBB203F00103DBB232
:10092C001A4610211A4802F01EFAB7F91030DB13E0
:10093C001BB2DBB203F00103DBB21A4620211448D0
:10094C0002F011FA144B1B783B700F237B700B4B8E
:10095C009B78BB70094BDB78FB70084B1B793B71A8
:10096C00064B5B797B713B4606211846FFF754FC1E
:10097C00012318462037BD4680BD00BF84000020EF
:10098C002A00002030000020280000200008014030
:10099C00000C014000100140C400002080B586B05E
:1009AC0000AF3B4B1B881A463A4B1B881344102B49
:1009BC0001DD002367E0374B1B880733002B00DA7F
:1009CC000733DB10FB71344B1A78344B1A70334BF2
:1009DC0001225A70314AFB799370FB791A46002137
:1009EC002F4805F023F92A4B1B88FB8200233B611F
:1009FC003CE00023FB730023BB602CE0FA8A244B01
:100A0C001B881946234B1B880B449A4220DAFB8A1D
:100A1C00DB089BB2BB71FB8ADBB203F007037B7173
:100A2C00BB79204AD35C1A467B7942FA03F303F074
:100A3C000103002B09D00122BB6802FA03F35AB25E
:100A4C0097F90F3013435BB2FB73FB8A0133FB82C4
:100A5C00BB680133BB60BB68072BCFDD3B6903333D
:100A6C000E49FA7BCA543B6901333B61FB793A6905
:100A7C009A42BEDBFB799BB203339BB21946074803
:100A8C00FFF7CAFB012318461837BD4680BD00BFCF
:100A9C002A00002030000020C40000203400002078
:100AAC00370000202800002080B500AF00224FF452
:100ABC008051024802F057F900BF80BD000C014084
:100ACC0080B500AF01224FF48051024802F04BF97F
:100ADC0000BF80BD000C014080B500AF01224FF477
:100AEC000041024802F03FF900BF80BD00100140F8
:100AFC0080B582B000AF78600B46FB70FB789AB281
:100B0C0040F6B8337968034802F0DAFD00BF0837C5
:100B1C00BD4680BDEC02002080B582B000AF78608D
:100B2C000B46FB70FB789AB240F6B83379680348F1
:100B3C0002F00AFF00BF0837BD4680BDEC02002062
:100B4C0080B582B000AF4E233B7105237B71FF2330
:100B5C00BB71FFF7A9FF3B1D03211846FFF7C8FF28
:100B6C00FFF7AEFF022001F045FA00BF0837BD4683
:100B7C0080BD80B582B000AF4E233B7115237B71D5
:100B8C00FF23BB71FFF790FF3B1D03211846FFF7B6
:100B9C00AFFFFFF795FF022001F02CFA00BF0837DA
:100BAC00BD4680BD80B582B000AF4E233B71102393
:100BBC007B71FF23BB71FFF777FF3B1D03211846A9
:100BCC00FFF796FFFFF77CFF022001F013FA00BF3E
:100BDC000837BD4680BD80B582B000AF4E233B7157
:100BEC0000237B71FF23BB71FFF75EFF3B1D0321CD
:100BFC001846FFF77DFFFFF763FF022001F0FAF9BB
:100C0C0000BF0837BD4680BD80B582B000AF4E2313
:100C1C003B7111237B71FF23BB71FFF745FF3B1D1C
:100C2C0003211846FFF764FFFFF74AFF022001F08B
:100C3C00E1F900BF0837BD4680BD80B582B000AF7A
:100C4C004E233B710A237B71FF23BB71FFF72CFFF3
:100C5C003B1D03211846FFF74BFFFFF731FF022026
:100C6C0001F0C8F900BF0837BD4680BD80B582B021
:100C7C0000AF4E233B711A237B71FF23BB71FFF72F
:100C8C0013FF3B1D03211846FFF732FFFFF718FF38
:100C9C00022001F0AFF900BF0837BD4680BD00004F
:100CAC0080B582B000AF4F233B7109237B71FFF7F6
:100CBC00FBFE3B1D02211846FFF71AFF01210748D6
:100CCC00FFF72AFFFFF7FCFE0A2001F093F9034B14
:100CDC001B7818460837BD4680BD00BFDE020020D9
:100CEC0080B582B000AF78603960786803F01AFF85
:100CFC007B683A685A60786803F0C4FE0346002BA0
:100D0C0001D000F01FFE00BF0837BD4680BD0000BB
:100D1C0080B500AF104803F0C2FF40220F490E48C7
:100D2C0004F03CF80E4B1B681A680D4B1B6822F044
:100D3C0004021A600B4803F0B2FF40220A4909482A
:100D4C0004F02CF8094B1B681A68084B1B6822F03E
:100D5C0004021A6000BF80BD8C0300200802002032
:100D6C001C040020D4030020C8000020A404002090
:100D7C0090B583B000AF4021334801F0DDFF03464E
:100D8C005BB25B005CB280212F4801F0D5FF0346BB
:100D9C005BB223435BB2FB71FB79022B10D0022BAD
:100DAC0013DC002B02D0012B05D00EE0274B4FF4A7
:100DBC0016521A600EE0254B4FF496421A6009E069
:100DCC00224B4FF416421A6004E0204B4FF4E132F0
:100DDC001A6000BF1D4B1A681D4B1B689A422FD01E
:100DEC001A4B1B681A4A13601A4803F058FF1A482A
:100DFC0003F055FF154B1B6819461648FFF770FF9B
:100E0C00124B1B6819461448FFF76AFF402213491E
:100E1C00104803F0C3FF124B1B681A68104B1B6879
:100E2C0022F004021A6040220E490B4803F0B6FF70
:100E3C000D4B1B681A680C4B1B6822F004021A60DD
:100E4C0000BF0C37BD4690BD000C0140E0020020F5
:100E5C0030050020D40300208C030020C8000020A3
:100E6C00A4040020080200201C04002080B590B0CF
:100E7C0000AF07F1180328220021184604F0D6FE13
:100E8C003B1D00221A605A609A60DA601A610A23CC
:100E9C00BB610123BB621023FB6201233B63022372
:100EAC007B630023BB634FF4E013FB6307F1180370
:100EBC00184601F071FF0346002B01D000F042FDF3
:100ECC000F237B600223BB600023FB6000233B618C
:100EDC0000237B613B1D0121184602F0DFF903461C
:100EEC00002B01D000F02EFD00BF4037BD4680BD69
:100EFC0080B500AF174B184A1A60164B4FF482722C
:100F0C005A60144B00229A60124B0022DA60114B8B
:100F1C0000221A610F4B00225A610E4B4FF40072E3
:100F2C009A610C4B0022DA610A4B00221A62094BBF
:100F3C0000225A62074B00229A62064B0A22DA629E
:100F4C00044802F039FB0346002B01D000F0FAFCF8
:100F5C0000BF80BDEC0200200038004080B586B098
:100F6C0000AF07F1080300221A605A609A60DA6039
:100F7C003B4600221A605A601D4B4FF080421A60AB
:100F8C001B4B48F69F425A60194B00229A60184B33
:100F9C000322DA60164B00221A61154B80229A61EB
:100FAC00134803F0A2F90346002B01D000F0CAFC51
:100FBC004FF48053BB6007F1080319460C4803F04B
:100FCC0001FB0346002B01D000F0BCFC00233B606E
:100FDC0000237B603B461946054803F0E3FC0346BF
:100FEC00002B01D000F0AEFC00BF1837BD4680BD11
:100FFC004403002080B500AF114B124A1A60104B0D
:10100C004FF4E1325A600E4B00229A600C4B0022D6
:10101C00DA600B4B00221A61094B0C225A61084B07
:10102C0000229A61064B0022DA61054803F02AFD82
:10103C000346002B01D000F085FC00BF80BD00BF33
:10104C008C0300200038014080B500AF114B124AD0
:10105C001A60104B4FF4E1325A600E4B00229A602A
:10106C000C4B0022DA600B4B00221A61094B0C224C
:10107C005A61084B00229A61064B0022DA6105483E
:10108C0003F000FD0346002B01D000F05BFC00BF19
:10109C0080BD00BFD40300200048004080B582B062
:1010AC0000AF184B5B69174A43F001035361154BB2
:1010BC005B6903F001037B607B68002200210C203C
:1010CC0001F0B7F80C2001F0D0F8002200210D201F
:1010DC0001F0AFF80D2001F0C8F8002200210E201D
:1010EC0001F0A7F80E2001F0C0F8002200210F201B
:1010FC0001F09FF80F2001F0B8F800BF0837BD468B
:10110C0080BD00BF0010024080B588B000AF07F171
:10111C00100300221A605A609A60DA603F4B9B6998
:10112C003E4A43F0100393613C4B9B6903F0100360
:10113C00FB60FB68394B9B69384A43F02003936191
:10114C00364B9B6903F02003BB60BB68334B9B6938
:10115C00324A43F004039361304B9B6903F0040360
:10116C007B607B682D4B9B692C4A43F00803936191
:10117C002A4B9B6903F008033B603B6800224FF449
:10118C006041274801F0EFFD002249F6FE11254889
:10119C0001F0E9FD002241F23B31234801F0E3FD6F
:1011AC004FF460433B6101237B610023BB6102234D
:1011BC00FB6107F110031946194801F07DFB49F654
:1011CC00FE133B6101237B610023BB610223FB61A6
:1011DC0007F110031946134801F06EFB41F23B3343
:1011EC003B6101237B610023BB610223FB6107F19F
:1011FC00100319460C4801F05FFBC0233B61002330
:10120C007B610023BB6107F110031946064801F00E
:10121C0053FB00BF2037BD4680BD00BF001002400D
:10122C000010014000080140000C014080B584B062
:10123C0000AF78607B681B68B3F1804F58D12E48A3
:10124C0003F0A2F82D4B1B7883F00103DAB22B4B81
:10125C001A702B4BDB6B1B685B689BB2C3F14003B2
:10126C00FB81284BDB6B1B685B689BB2C3F14003B3
:10127C00BB81FB89072B1CD9214803F010FD4022B0
:10128C0021491F4803F08AFD204B1B681A681F4B2D
:10129C001B6822F004021A601D4B01221A701D4AB1
:1012AC00FB891380FB891A4617491B4804F0EAFC9A
:1012BC001EE0BB89072B1BD9124803F0F0FC40221F
:1012CC001649104803F06AFD154B1B681A68144B3D
:1012DC001B6822F004021A60124B01221A70124A87
:1012EC00BB891380BB891A460C49104804F0CAFC10
:1012FC0000BF1037BD4680BD44030020C80200204B
:10130C008C030020D4030020480200201C04002081
:10131C00E8020020E40200200802002088020020DD
:10132C00A4040020E9020020E6020020C8000020EE
:10133C0080B588B000AF00F0FBFDFFF797FDFFF71D
:10134C00E3FEFFF7ABFEFFF7D3FDFFF753FEFFF70E
:10135C007BFEFFF703FEFFF7BFFBFFF7B1FBFFF7C9
:10136C00EFFBFFF738FCFFF768FCFFF702FCFFF719
:10137C0019FCFFF749FCFFF779FCFFF7C9FC0023C8
:10138C007B610023FB610023BB6100F029FE386107
:10139C003A69FB69D31A092B03D93B69FB61FFF747
:1013AC007FFC3A69BB69D31AB3F5FA7F03D33B6967
:1013BC00BB61FFF7DDFC704B1A78704B1B789A42BF
:1013CC0007D06D4B1A786D4B1A706B4B1A786C4BAF
:1013DC001A706C4B1B78DBB2002B5CD0694B002273
:1013EC001A70694B1B88FB81FB89052B02D9FB8981
:1013FC00402B03D9644B00221A80BBE0FB89023BD3
:10140C009BB219466148FEF7D1FE0346BB81FB89AE
:10141C00023B5E4AD35C1AB2FB89013B5B49CB5C55
:10142C001BB21B021BB213431BB27B81BA897B8993
:10143C009A4240F09880554B5B78012B04D0534B6B
:10144C005B780F2B40F09180504B9B781BB21B02AA
:10145C001AB24E4BDB781BB213431BB29AB24C4BF5
:10146C001A804A4B1B791BB21B021AB2474B5B7991
:10147C001BB213431BB29AB2464B1A80434B5B7898
:10148C00012B02D00F2B03D007E0FFF7A7F804E0E5
:10149C00FEF74AFF01E000F089F83F4B1B78DBB206
:1014AC00002B5DD03C4B00221A703C4B1B883B81BF
:1014BC003B89052B02D93B89402B03D9374B0022A2
:1014CC001A8057E0354B00221A803B89023B9BB2B5
:1014DC0019463348FEF734FE0346FB803B89023B3A
:1014EC002F4AD35C1AB23B89013B2D49CB5C1BB212
:1014FC001B021BB213431BB2BB80FA88BB889A42F7
:10150C0035D1274B5B78012B03D0254B5B780F2B08
:10151C002FD1234B9B781BB21B021AB2204BDB78CA
:10152C001BB213431BB29AB21E4B1A801C4B1B7975
:10153C001BB21B021AB21A4B5B791BB213431BB2C0
:10154C009AB2194B1A80164B5B78012B02D00F2BD9
:10155C0003D00FE0FFF722FA0CE0FFF7C5F809E023
:10156C0000F0AEF811E700BF0FE700BF0DE700BFBA
:10157C000BE700BF09E700BFDE020020EA020020F3
:10158C00C4000020E8020020E402002044000020F7
:10159C002C0000202E000020E9020020E602002092
:1015AC00840000202A0000203000002080B586B086
:1015BC0000AF3E4B00221A703D4B1B681B6803F0BA
:1015CC000803082B02D1394B01221A70384B1B68C7
:1015DC001B6803F00203022B02D1344B01221A7058
:1015EC00334B1B681B6803F00403042B02D12F4BF5
:1015FC0001221A702E4B1B681B6803F00103012B90
:10160C0002D12A4B01221A70284B1B78002B49D08F
:10161C00284B1B680133274A1360254803F03FFB16
:10162C0000233B61224B1B681B683B61204B1B68F2
:10163C005B683B613B690023FB601D4B1B681B68AF
:10164C00FB601B4B1B685B68FB60FB680023BB608B
:10165C00174B1B681B68BB60154B1B685B68BB603A
:10166C00BB6800237B60124B1B681B687B60104BB4
:10167C001B685B687B607B680D4B1B681B687B6120
:10168C000B4B1B685B687B617B6940220A490848ED
:10169C0003F084FB094B1B681A68084B1B6822F08B
:1016AC0004021A6000BF1837BD4680BD2C0500200F
:1016BC008C03002040000020080200201C040020A5
:1016CC0080B586B000AF0023FB75384B1B681B68D8
:1016DC0003F00803082B01D10123FB75334B1B6866
:1016EC001B6803F00203022B01D10123FB752F4B66
:1016FC001B681B6803F00403042B01D10123FB7549
:10170C002A4B1B681B6803F00103012B01D1012339
:10171C00FB75FB7D002B44D0244803F0C0FA00235A
:10172C00FB60224B1B681B68FB60204B1B685B68D3
:10173C00FB60FB680023BB601C4B1B681B68BB6019
:10174C001A4B1B685B68BB60BB6800237B60174B44
:10175C001B681B687B60154B1B685B687B607B6838
:10176C0000233B60114B1B681B683B600F4B1B68D5
:10177C005B683B603B680D4B1B681B683B610B4B0C
:10178C001B685B683B613B6940220949074803F0D1
:10179C0005FB084B1B681A68064B1B6822F00402F9
:1017AC001A6000BF1837BD4680BD00BFD4030020AF
:1017BC00C8000020A404002080B483B000AF78607F
:1017CC007B681B68034A934200BF0C37BD4680BC44
:1017DC00704700BF0038014080B582B000AF786020
:1017EC000B467B807B681B68414A93423BD17B88CC
:1017FC00052B25D97B88402B22D83E4B1A783E4BA3
:10180C001B789A421CD13D4B1B78DBB2002B17D1B5
:10181C007B881A4637493A4804F034FA394A7B88AF
:10182C00138000F0DDFB0346374A1360364B1B6810
:10183C00364A1360314B01221A70354B00221A7054
:10184C00402200212B4804F0F1F94022294931486B
:10185C0003F0A4FA304B1B681A682F4B1B6822F05C
:10186C0004021A603FE07B681B682C4A93423AD111
:10187C007B88052B25D97B88402B22D8284B1A78BE
:10188C001D4B1B789A421CD1264B1B78DBB2002BCC
:10189C0017D17B881A462249234804F0F3F9234ACE
:1018AC007B88138000F09CFB0346214A1360204B7D
:1018BC001B68204A13601B4B01221A701E4B00221E
:1018CC001A7040220021164804F0B0F94022144945
:1018DC001A4803F063FA1A4B1B681A68184B1B68FA
:1018EC0022F004021A6000BF0837BD4680BD00BF5D
:1018FC000038014008020020C4000020E80200204B
:10190C0044000020E4020020CC020020D40200207D
:10191C00DC0200208C0300201C0400200048004046
:10192C00C8000020E902002084000020E60200200C
:10193C00D0020020D8020020DD020020D4030020B9
:10194C00A404002080B400AF72B600BF00BFFDE756
:10195C0080B584B000AF194B9B69184A43F0010362
:10196C009361164B9B6903F00103BB60BB68134B7F
:10197C00DB69124A43F08053D361104BDB6903F0EF
:10198C0080537B607B6800220021052000F051FC15
:10199C00052000F06AFC0A4B5B68FB60FB6823F0D7
:1019AC00E063FB60FB6843F00073FB60044AFB6878
:1019BC00536000BF1037BD4680BD00BF0010024011
:1019CC000000014080B588B000AF786007F11003CB
:1019DC0000221A605A609A60DA607B681B68204AA1
:1019EC00934239D11F4BDB691E4A43F48043D361C8
:1019FC001C4BDB6903F48043FB60FB68194B9B6950
:101A0C00184A43F008039361164B9B6903F00803D3
:101A1C00BB60BB684FF420433B6102237B61032313
:101A2C00FB6107F1100319460F4800F045FF4FF416
:101A3C0080433B6100237B610023BB6107F11003F2
:101A4C001946094800F038FF00220021242000F03C
:101A5C00F0FB242000F009FC00BF2037BD4680BD00
:101A6C000038004000100240000C014080B584B0EA
:101A7C0000AF78607B681B68B3F1804F13D10C4BBF
:101A8C00DB690B4A43F00103D361094BDB6903F0BB
:101A9C000103FB60FB68002200211C2000F0C9FB45
:101AAC001C2000F0E2FB00BF1037BD4680BD00BF1C
:101ABC000010024080B58AB000AF786007F11803BF
:101ACC0000221A605A609A60DA607B681B688D4A43
:101ADC00934240F087808C4B9B698B4A43F4804344
:101AEC009361894B9B6903F480437B617B69864BD3
:101AFC009B69854A43F004039361834B9B6903F014
:101B0C0004033B613B694FF40073BB610223FB612F
:101B1C0003237B6207F1180319467C4800F0CCFEC6
:101B2C004FF48063BB610023FB6100233B6207F130
:101B3C0018031946754800F0BFFE754B754A1A60BC
:101B4C00734B00225A60724B00229A60704B8022B9
:101B5C00DA606F4B00221A616D4B00225A616C4B9C
:101B6C0000229A616A4B0022DA61694800F0A6FBF8
:101B7C000346002B01D0FFF7E5FE7B68644ADA636D
:101B8C00634A7B685362644B644A1A60624B10224E
:101B9C005A60614B00229A605F4B8022DA605E4B88
:101BAC0000221A615C4B00225A615B4B00229A6145
:101BBC00594B0022DA61584800F080FB0346002B99
:101BCC0001D0FFF7BFFE7B68534A9A63524A7B6889
:101BDC00536200220021252000F02BFB252000F071
:101BEC0044FB8BE07B681B684D4A934240F0868037
:101BFC00454BDB69444A43F48023D361424BDB6998
:101C0C0003F48023FB60FB683F4B9B693E4A43F027
:101C1C00080393613C4B9B6903F00803BB60BB68F2
:101C2C004FF48063BB610223FB6103237B6207F1EA
:101C3C00180319463B4800F03FFE4FF40063BB61AC
:101C4C000023FB6100233B6207F11803194635485A
:101C5C0000F032FE344B354A1A60334B00225A6086
:101C6C00314B00229A60304B8022DA602E4B0022DE
:101C7C001A612D4B00225A612B4B00229A612A4B80
:101C8C000022DA61284800F019FB0346002B01D032
:101C9C00FFF758FE7B68244ADA63234A7B68536259
:101CAC00234B244A1A60224B10225A60204B0022EC
:101CBC009A601F4B8022DA601D4B00221A611C4B6C
:101CCC0000225A611A4B00229A61194B0022DA61E8
:101CDC00174800F0F3FA0346002B01D0FFF732FE51
:101CEC007B68134A9A63124A7B6853620022002174
:101CFC00272000F09EFA272000F0B7FA00BF283703
:101D0C00BD4680BD00380140001002400008014073
:101D1C001C040020580002406004002044000240D3
:101D2C0000480040000C0140A40400203000024098
:101D3C00E80400201C00024080B582B000AF78603F
:101D4C007B681B681E4A934218D11E4B9B691D4A27
:101D5C0023F4804393614FF4C0611B4800F030FFC3
:101D6C007B68DB6B184600F003FB7B689B6B1846AB
:101D7C0000F0FEFA252000F086FA1CE07B681B6858
:101D8C00124A934217D10F4BDB690E4A23F480237E
:101D9C00D3614FF440610E4800F012FF7B68DB6B9F
:101DAC00184600F0E5FA7B689B6B184600F0E0FAE9
:101DBC00272000F068FA00BF0837BD4680BD00BF81
:101DCC00003801400010024000080140004800406B
:101DDC00000C014080B400AF00BFFDE780B400AF41
:101DEC0000BFFDE780B400AF00BFFDE780B400AFDB
:101DFC0000BFFDE780B400AF00BFFDE780B400AFCB
:101E0C0000BFBD4680BC704780B400AF00BFBD466C
:101E1C0080BC704780B400AF00BFBD4680BC70472B
:101E2C0080B500AF00F0CAF800BF80BD80B400AF31
:101E3C0000BFBD4680BC704780B500AF024800F0C3
:101E4C0007FC00BF80BD00BFE804002080B500AFD8
:101E5C00024800F0FDFB00BF80BD00BFA4040020C1
:101E6C0080B500AF024800F0F3FB00BF80BD00BF9F
:101E7C006004002080B500AF024800F0E9FB00BF11
:101E8C0080BD00BF1C04002080B500AF024802F0EA
:101E9C00A9FA00BF80BD00BF4403002080B500AF8D
:101EAC00024802F013F800BF80BD00BFEC02002016
:101EBC0080B500AF024802F0CBFF00BF80BD00BF71
:101ECC008C03002080B500AF024802F0C1FF00BFB8
:101EDC0080BD00BFD403002080B400AF00BFBD465E
:101EEC0080BC7047FFF7F8FF0B480C490C4A0023E5
:101EFC0002E0D458C4500433C4188C42F9D3094AB4
:101F0C00094C002301E013600432A242FBD303F01E
:101F1C0095FEFFF70DFA7047000000200C00002022
:101F2C00F86000080C00002038050020FEE70000D7
:101F3C0080B500AF084B1B68074A43F010031360D1
:101F4C00032000F06BF90F2000F008F8FFF700FDFC
:101F5C000023184680BD00BF0020024080B582B02F
:101F6C0000AF7860124B1A68124B1B7819464FF46D
:101F7C007A73B3FBF1F3B2FBF3F3184600F091F96B
:101F8C000346002B01D001230EE07B680F2B0AD8EF
:101F9C00002279684FF0FF3000F04BF9064A7B685D
:101FAC001360002300E0012318460837BD4680BDAE
:101FBC0000000020080000200400002080B400AFC6
:101FCC00054B1B781A46054B1B681344034A1360D8
:101FDC0000BFBD4680BC70470800002034050020BF
:101FEC0080B400AF024B1B681846BD4680BC7047DE
:101FFC003405002080B584B000AF7860FFF7F0FFA7
:10200C00B8607B68FB60FB68B3F1FF3F05D00A4BFF
:10201C001B781A46FB681344FB6000BFFFF7E0FF18
:10202C000246BB68D31AFA689A42F7D800BF00BFC1
:10203C001037BD4680BD00BF0800002080B485B0BD
:10204C0000AF78607B6803F00703FB600C4BDB6828
:10205C00BB60BA684FF6FF031340BB60FB681A0203
:10206C00BB68134343F0BF6343F40033BB60044AC3
:10207C00BB68D36000BF1437BD4680BC704700BF3F
:10208C0000ED00E080B400AF044BDB681B0A03F0EA
:10209C0007031846BD4680BC704700BF00ED00E04A
:1020AC0080B483B000AF0346FB7197F90730002B67
:1020BC000BDBFB7903F01F02064997F907305B092C
:1020CC00012000FA02F241F8232000BF0C37BD4674
:1020DC0080BC704700E100E080B483B000AF0346E1
:1020EC00FB7197F90730002B12DBFB7903F01F0211
:1020FC000A4997F907305B09012000FA02F22033F4
:10210C0041F82320BFF34F8F00BFBFF36F8F00BF89
:10211C0000BF0C37BD4680BC704700BF00E100E03B
:10212C0080B483B000AF03463960FB7197F9073078
:10213C00002B0ADB3B68DAB20C4997F90730120125
:10214C00D2B20B4483F800230AE03B68DAB20849A8
:10215C00FB7903F00F03043B1201D2B20B441A7645
:10216C0000BF0C37BD4680BC704700BF00E100E0EB
:10217C0000ED00E080B489B000AFF860B9607A601F
:10218C00FB6803F00703FB61FB69C3F10703042B36
:10219C0028BF0423BB61FB690433062B02D9FB69FE
:1021AC00033B00E000237B614FF0FF32BB6902FA76
:1021BC0003F3DA43BB681A407B699A404FF0FF3156
:1021CC007B6901FA03F3D9437B680B401343184630
:1021DC002437BD4680BC704780B582B000AF7860B4
:1021EC007B68013BB3F1807F01D301230FE00A4AE6
:1021FC007B68013B53600F214FF0FF30FFF790FFDE
:10220C00054B00229A60044B07221A6000231846E3
:10221C000837BD4680BD00BF10E000E080B582B03D
:10222C0000AF78607868FFF709FF00BF0837BD463C
:10223C0080BD80B586B000AF0346B9607A60FB7391
:10224C0000237B61FFF71EFF78617A68B9687869B3
:10225C00FFF790FF024697F90F3011461846FFF72B
:10226C005FFF00BF1837BD4680BD80B582B000AFA0
:10227C000346FB7197F907301846FFF711FF00BFB3
:10228C000837BD4680BD80B582B000AF0346FB71F8
:10229C0097F907301846FFF71FFF00BF0837BD46F8
:1022AC0080BD80B582B000AF78607868FFF794FF8E
:1022BC00034618460837BD4680BD000080B485B083
:1022CC0000AF78600023FB607B68002B01D10123F9
:1022DC0043E07B681B681A46224B1344224AA2FB3C
:1022EC0003231B099A007B681A647B681F4ADA6314
:1022FC007B68022283F821207B681B681B68FB60CB
:10230C00FB6823F47F5323F03003FB607B685A682F
:10231C007B689B681A437B68DB681A437B681B6984
:10232C001A437B685B691A437B689B691A437B6819
:10233C00DB691343FA681343FB607B681B68FA681C
:10234C001A607B6800229A637B68012283F8212043
:10235C007B68002283F82020002318461437BD46E2
:10236C0080BC7047F8FFFDBFCDCCCCCC0000024048
:10237C0080B483B000AF78607B68002B01D101235F
:10238C0046E07B681B681A687B681B6822F00102B8
:10239C001A607B681B6800221A607B681B6800222D
:1023AC005A607B681B6800229A607B681B6800225D
:1023BC00DA607B681B681A46184B1344184AA2FB58
:1023CC0003231B099A007B681A647B68154ADA633D
:1023DC007B681A6C7B68DB6B012101FA02F25A6094
:1023EC007B6800229A627B680022DA627B6800229A
:1023FC001A637B6800225A637B6800229A637B68AD
:10240C00002283F821207B68002283F820200023FF
:10241C0018460C37BD4680BC704700BFF8FFFDBFA7
:10242C00CDCCCCCC0000024080B586B000AFF860BB
:10243C00B9607A603B600023FB75FB6893F8203031
:10244C00012B01D102234BE0FB68012283F82020F1
:10245C00FB6893F82130DBB2012B3AD1FB680222E6
:10246C0083F82120FB6800229A63FB681B681A68BA
:10247C00FB681B6822F001021A603B687A68B96835
:10248C00F86800F0EBF9FB68DB6A002B08D0FB68FE
:10249C001B681A68FB681B6842F00E021A600FE09A
:1024AC00FB681B681A68FB681B6822F004021A6040
:1024BC00FB681B681A68FB681B6842F00A021A600A
:1024CC00FB681B681A68FB681B6842F001021A6003
:1024DC0005E0FB68002283F820200223FB75FB7DBE
:1024EC0018461837BD4680BD80B485B000AF786003
:1024FC000023FB737B6893F82130DBB2022B08D0EE
:10250C007B6804229A637B68002283F820200123D5
:10251C0020E07B681B681A687B681B6822F00E023F
:10252C001A607B681B681A687B681B6822F00102C2
:10253C001A607B681A6C7B68DB6B012101FA02F272
:10254C005A607B68012283F821207B68002283F883
:10255C002020FB7B18461437BD4680BC704700001A
:10256C0080B584B000AF78600023FB737B6893F870
:10257C002130DBB2022B05D07B6804229A63012345
:10258C00FB7351E07B681B681A687B681B6822F040
:10259C000E021A607B681B681A687B681B6822F045
:1025AC0001021A607B681B68224A934229D07B681F
:1025BC001B68214A934222D07B681B681F4A9342B6
:1025CC001AD07B681B681E4A934212D07B681B682A
:1025DC001C4A93420AD07B681B681B4A934202D167
:1025EC004FF480130EE04FF080730BE04FF4803308
:1025FC0008E04FF4805305E04FF4807302E01023A1
:10260C0000E00123114A53607B68012283F82120EA
:10261C007B68002283F820207B685B6B002B03D047
:10262C007B685B6B78689847FB7B18461037BD4618
:10263C0080BD00BF080002401C0002403000024078
:10264C0044000240580002406C000240000002406E
:10265C0080B584B000AF78607B68DB6B1B68FB6077
:10266C007B681B681B68BB607B681B6C04229A40F0
:10267C00FB681340002B4FD0BB6803F00403002B06
:10268C004AD07B681B681B6803F02003002B07D122
:10269C007B681B681A687B681B6822F004021A604E
:1026AC007B681B68664A934229D07B681B68654A25
:1026BC00934222D07B681B68634A93421AD07B6892
:1026CC001B68624A934212D07B681B68604A934233
:1026DC000AD07B681B685F4A934202D14FF4800397
:1026EC000EE04FF080630BE04FF4802308E04FF4D2
:1026FC00804305E04FF4806302E0402300E00423B4
:10270C00554A53607B68DB6A002B00F094807B6831
:10271C00DB6A786898478EE07B681B6C02229A40D3
:10272C00FB681340002B56D0BB6803F00203002B50
:10273C0051D07B681B681B6803F02003002B0BD166
:10274C007B681B681A687B681B6822F00A021A6097
:10275C007B68012283F821207B681B68384A9342EE
:10276C0029D07B681B68374A934222D07B681B6850
:10277C00354A93421AD07B681B68344A934212D074
:10278C007B681B68324A93420AD07B681B68314ACB
:10279C00934202D14FF400130EE04FF000730BE0A4
:1027AC004FF4003308E04FF4005305E04FF400738E
:1027BC0002E0202300E00223274A53607B680022BA
:1027CC0083F820207B689B6A002B34D07B689B6A43
:1027DC00786898472FE07B681B6C08229A40FB684E
:1027EC001340002B28D0BB6803F00803002B23D028
:1027FC007B681B681A687B681B6822F00E021A60E3
:10280C007B681A6C7B68DB6B012101FA02F25A605F
:10281C007B6801229A637B68012283F821207B6804
:10282C00002283F820207B681B6B002B04D07B6874
:10283C001B6B7868984700BF00BF1037BD4680BD42
:10284C00080002401C0002403000024044000240DC
:10285C00580002406C0002400000024080B485B079
:10286C0000AFF860B9607A603B60FB681A6CFB687B
:10287C00DB6B012101FA02F25A60FB681B683A68B3
:10288C005A60FB685B68102B08D1FB681B687A6880
:10289C009A60FB681B68BA68DA6007E0FB681B6823
:1028AC00BA689A60FB681B687A68DA6000BF1437F4
:1028BC00BD4680BC7047000080B48BB000AF786020
:1028CC00396000237B6200233B6269E101227B6A51
:1028DC0002FA03F3FB613B681B68FA691340BB61A6
:1028EC00BA69FB699A4240F058813B685B689A4A26
:1028FC0093425ED0984A934275D8984A934258D0E6
:10290C00964A93426FD8964A934252D0944A934235
:10291C0069D8944A93424CD0924A934263D8924AD3
:10292C00934246D0904A93425DD8122B2AD8122B50
:10293C0059D801A252F823F0BF29000899290008A0
:10294C00AB290008ED290008F3290008F329000839
:10295C00F3290008F3290008F3290008F3290008DB
:10296C00F3290008F3290008F3290008F3290008CB
:10297C00F3290008F3290008F3290008A12900080D
:10298C00B5290008794A934213D02CE03B68DB68E8
:10299C003B6229E03B68DB6804333B6224E03B6824
:1029AC00DB6808333B621FE03B68DB680C333B623F
:1029BC001AE03B689B68002B02D104233B6213E0B6
:1029CC003B689B68012B05D108233B627B68FA6945
:1029DC001A6109E008233B627B68FA695A6103E0DB
:1029EC0000233B6200E000BFBB69FF2B01D87B6872
:1029FC0001E07B6804337B61BB69FF2B02D87B6AE7
:102A0C009B0002E07B6A083B9B003B617B691A6878
:102A1C000F213B6901FA03F3DB431A40396A3B6926
:102A2C0001FA03F31A437B691A603B685B6803F095
:102A3C008053002B00F0B1804D4B9B694C4A43F006
:102A4C00010393614A4B9B6903F00103BB60BB68B4
:102A5C00484A7B6A9B08023352F82330FB607B6A3E
:102A6C0003F003039B000F2202FA03F3DB43FA6823
:102A7C001340FB607B68404A934213D07B683F4A0B
:102A8C0093420DD07B683E4A934207D07B683D4A07
:102A9C00934201D1032306E0042304E0022302E065
:102AAC00012300E000237A6A02F0030292009340B3
:102ABC00FA681343FB602F497B6A9B080233FA6860
:102ACC0041F823203B685B6803F48013002B06D08D
:102ADC002D4B9A682C49BB6913438B6006E02A4B3B
:102AEC009A68BB69DB43284913408B603B685B6881
:102AFC0003F40013002B06D0234BDA682249BB6980
:102B0C001343CB6006E0204BDA68BB69DB431E49FC
:102B1C001340CB603B685B6803F40033002B06D09A
:102B2C00194B5A681849BB6913434B6006E0164BA6
:102B3C005A68BB69DB43144913404B603B685B68C4
:102B4C0003F48033002B21D00F4B1A680E49BB695C
:102B5C0013430B6021E000BF000032100000311065
:102B6C0000002210000021100000121000001110B3
:102B7C00001002400000014000080140000C014020
:102B8C000010014000140140000401400B4B1A6876
:102B9C00BB69DB43094913400B607B6A01337B62E1
:102BAC003B681A687B6A22FA03F3002B7FF48EAE23
:102BBC0000BF00BF2C37BD4680BC704700040140ED
:102BCC0080B489B000AF786039600023FB619AE073
:102BDC000122FB6902FA03F33A681340BB61BB693B
:102BEC00002B00F08D804E4AFB699B08023352F893
:102BFC0023307B61FB6903F003039B000F2202FA75
:102C0C0003F37A6913407B617B68464A934213D085
:102C1C007B68454A93420DD07B68444A934207D067
:102C2C007B68434A934201D1032306E0042304E06A
:102C3C00022302E0012300E00023FA6902F0030200
:102C4C00920093407A699A4232D13A4B1A68BB6926
:102C5C00DB43384913400B60364B5A68BB69DB4386
:102C6C00344913404B60334BDA68BB69DB43314961
:102C7C001340CB602F4B9A68BB69DB432D49134043
:102C8C008B60FB6903F003039B000F2202FA03F332
:102C9C007B61234AFB699B08023352F823107B6942
:102CAC00DA431F48FB699B080A40023340F8232093
:102CBC00BB69FF2B01D87B6801E07B6804333B6167
:102CCC00BB69FF2B02D8FB699B0002E0FB69083B48
:102CDC009B00FB603B691A680F21FB6801FA03F348
:102CEC00DB431A400421FB6801FA03F31A433B69E6
:102CFC001A607B68DA68BB69DB431A407B68DA6070
:102D0C00FB690133FB613A68FB6922FA03F3002B80
:102D1C007FF45EAF00BF00BF2437BD4680BC704758
:102D2C000000014000080140000C0140001001406F
:102D3C00001401400004014080B485B000AF7860FD
:102D4C000B467B807B689A687B881340002B02D0F3
:102D5C000123FB7301E00023FB73FB7B1846143744
:102D6C00BD4680BC704780B483B000AF78600B4622
:102D7C007B8013467B707B78002B03D07A887B6832
:102D8C001A6103E07B881A047B681A6100BF0C3758
:102D9C00BD4680BC7047000080B586B000AF78603F
:102DAC007B68002B01D1012372E27B681B6803F066
:102DBC000103002B00F08780924B5B6803F00C033F
:102DCC00042B0CD08F4B5B6803F00C03082B12D137
:102DDC008C4B5B6803F48033B3F5803F0BD1894B8C
:102DEC001B6803F40033002B6CD07B685B68002BF2
:102DFC0068D101234CE27B685B68B3F5803F06D158
:102E0C00804B1B687F4A43F4803313602EE07B6851
:102E1C005B68002B0CD17B4B1B687A4A23F4803304
:102E2C001360784B1B68774A23F4802313601DE0F2
:102E3C007B685B68B3F5A02F0CD1724B1B68714A91
:102E4C0043F4802313606F4B1B686E4A43F480334A
:102E5C0013600BE06B4B1B686A4A23F480331360DE
:102E6C00684B1B68674A23F4802313607B685B689C
:102E7C00002B13D0FFF7B4F8386108E0FFF7B0F877
:102E8C0002463B69D31A642B01D9032300E25D4B44
:102E9C001B6803F40033002BF0D014E0FFF7A0F80C
:102EAC00386108E0FFF79CF802463B69D31A642BA3
:102EBC0001D90323ECE1534B1B6803F40033002BC3
:102ECC00F0D100E000BF7B681B6803F00203002B0D
:102EDC0063D04C4B5B6803F00C03002B0BD0494BBD
:102EEC005B6803F00C03082B1CD1464B5B6803F4A6
:102EFC008033002B16D1434B1B6803F00203002BCD
:102F0C0005D07B681B69012B01D00123C0E13D4B2F
:102F1C001B6823F0F8027B685B69DB0039491343BB
:102F2C000B603AE07B681B69002B20D0364B0122EA
:102F3C001A60FFF755F8386108E0FFF751F80246C0
:102F4C003B69D31A022B01D90323A1E12D4B1B683A
:102F5C0003F00203002BF0D02A4B1B6823F0F8027D
:102F6C007B685B69DB00274913430B6015E0264B3C
:102F7C0000221A60FFF734F8386108E0FFF730F8E8
:102F8C0002463B69D31A022B01D9032380E11D4B66
:102F9C001B6803F00203002BF0D17B681B6803F065
:102FAC000803002B3AD07B689B69002B19D0174B78
:102FBC0001221A60FFF714F8386108E0FFF710F8E7
:102FCC0002463B69D31A022B01D9032360E10D4B56
:102FDC005B6A03F00203002BF0D0012000F0CEFA64
:102FEC001CE00A4B00221A60FEF7FAFF38610FE072
:102FFC00FEF7F6FF02463B69D31A022B08D90323CE
:10300C0046E100BF001002400000424280044242F0
:10301C00924B5B6A03F00203002BE9D17B681B68BF
:10302C0003F00403002B00F0A6800023FB758B4BF0
:10303C00DB6903F08053002B0DD1884BDB69874A89
:10304C0043F08053D361854BDB6903F08053BB6045
:10305C00BB680123FB75824B1B6803F48073002B48
:10306C0018D17F4B1B687E4A43F480731360FEF7C4
:10307C00B7FF386108E0FEF7B3FF02463B69D31A8D
:10308C00642B01D9032303E1754B1B6803F4807394
:10309C00002BF0D07B68DB68012B06D16F4B1B6AD1
:1030AC006E4A43F0010313622DE07B68DB68002B52
:1030BC000CD16A4B1B6A694A23F001031362674BFC
:1030CC001B6A664A23F0040313621CE07B68DB680E
:1030DC00052B0CD1614B1B6A604A43F0040313624D
:1030EC005E4B1B6A5D4A43F0010313620BE05B4BC2
:1030FC001B6A5A4A23F001031362584B1B6A574A46
:10310C0023F0040313627B68DB68002B15D0FEF7F9
:10311C0067FF38610AE0FEF763FF02463B69D31A8A
:10312C0041F28832934201D90323B1E04B4B1B6A25
:10313C0003F00203002BEED014E0FEF751FF3861D0
:10314C000AE0FEF74DFF02463B69D31A41F2883282
:10315C00934201D903239BE0404B1B6A03F002030B
:10316C00002BEED1FB7D012B05D13C4BDB693B4A9F
:10317C0023F08053D3617B68DB69002B00F08780E0
:10318C00364B5B6803F00C03082B61D07B68DB6962
:10319C00022B46D1334B00221A60FEF721FF386117
:1031AC0008E0FEF71DFF02463B69D31A022B01D93A
:1031BC0003236DE0294B1B6803F00073002BF0D147
:1031CC007B681B6AB3F5803F08D1244B5B6823F402
:1031DC0000327B689B68214913434B601F4B5B6833
:1031EC0023F474127B68196A7B685B6A0B431B4976
:1031FC0013434B601B4B01221A60FEF7F1FE386142
:10320C0008E0FEF7EDFE02463B69D31A022B01D90A
:10321C0003233DE0114B1B6803F00073002BF0D02F
:10322C0035E0104B00221A60FEF7DAFE386108E038
:10323C00FEF7D6FE02463B69D31A022B01D90323B3
:10324C0026E0064B1B6803F00073002BF0D11EE048
:10325C007B68DB69012B07D1012319E000100240C8
:10326C0000700040600042420B4B5B68FB60FB68E7
:10327C0003F480327B681B6A9A4206D1FB6803F424
:10328C0070127B685B6A9A4201D0012300E0002334
:10329C0018461837BD4680BD0010024080B584B07A
:1032AC0000AF786039607B68002B01D10123D0E03E
:1032BC006A4B1B6803F007033A689A4210D9674BB4
:1032CC001B6823F0070265493B6813430B60634B93
:1032DC001B6803F007033A689A4201D00123B8E057
:1032EC007B681B6803F00203002B20D07B681B68F3
:1032FC0003F00403002B05D0594B5B68584A43F488
:10330C00E06353607B681B6803F00803002B05D057
:10331C00534B5B68524A43F460535360504B5B68A9
:10332C0023F0F0027B689B684D4913434B607B682C
:10333C001B6803F00103002B40D07B685B68012BFA
:10334C0007D1474B1B6803F40033002B15D1012325
:10335C007FE07B685B68022B07D1414B1B6803F055
:10336C000073002B09D1012373E03D4B1B6803F064
:10337C000203002B01D101236BE0394B5B6823F076
:10338C0003027B685B68364913434B60FEF728FEEB
:10339C00F8600AE0FEF724FE0246FB68D31A41F2FD
:1033AC008832934201D9032353E02D4B5B6803F021
:1033BC000C027B685B689B009A42EBD1274B1B6825
:1033CC0003F007033A689A4210D2244B1B6823F08F
:1033DC00070222493B6813430B60204B1B6803F028
:1033EC0007033A689A4201D0012332E07B681B68DC
:1033FC0003F00403002B08D0194B5B6823F4E06244
:10340C007B68DB68164913434B607B681B6803F0D1
:10341C000803002B09D0124B5B6823F460527B68C5
:10342C001B69DB000E4913434B6000F021F8024688
:10343C000B4B5B681B0903F00F030A49CB5C22FAA8
:10344C0003F3094A1360094B1B681846FEF786FD07
:10345C00002318461037BD4680BD00BF0020024037
:10346C0000100240C460000800000020040000208E
:10347C0080B487B000AF0023FB600023BB60002347
:10348C007B6100237B6000233B611E4B5B68FB6010
:10349C00FB6803F00C03042B02D0082B03D027E0AD
:1034AC00194B3B6127E0FB689B0C03F00F03174A99
:1034BC00D35C7B60FB6803F48033002B10D0114B82
:1034CC005B685B0C03F00103114AD35CBB607B6847
:1034DC000D4A03FB02F2BB68B2FBF3F37B6104E021
:1034EC007B680C4A02FB03F37B617B693B6102E066
:1034FC00054B3B6100BF3B6918461C37BD4680BC81
:10350C00704700BF0010024000127A00DC60000817
:10351C00EC60000800093D0080B400AF024B1B6852
:10352C001846BD4680BC70470000002080B500AF37
:10353C00FFF7F2FF0246054B5B681B0A03F007031B
:10354C000349CB5C22FA03F3184680BD00100240FD
:10355C00D460000880B500AFFFF7DEFF0246054BD4
:10356C005B68DB0A03F007030349CB5C22FA03F325
:10357C00184680BD00100240D460000880B485B0AD
:10358C0000AF78600A4B1B680A4AA2FB03235B0A54
:10359C007A6802FB03F3FB6000BFFB685A1EFA60FB
:1035AC00002BF9D100BF00BF1437BD4680BC70475B
:1035BC0000000020D34D621080B582B000AF78605F
:1035CC007B68002B01D1012376E07B685B6A002BC2
:1035DC0008D17B685B68B3F5827F09D07B680022D9
:1035EC00DA6105E07B6800221A617B6800225A616F
:1035FC007B6800229A627B6893F85130DBB2002B17
:10360C0006D17B68002283F850207868FEF7DAF93F
:10361C007B68022283F851207B681B681A687B68E0
:10362C001B6822F040021A607B685B6803F48272AC
:10363C007B689B6803F404431A437B68DB6803F4E0
:10364C0000631A437B681B6903F002031A437B680F
:10365C005B6903F001031A437B689B6903F40073F5
:10366C001A437B68DB6903F038031A437B681B6AD7
:10367C0003F0800342EA03017B689B6A03F4005267
:10368C007B681B680A431A607B689B691A0C7B6811
:10369C001B6802F004025A607B681B68DA697B685D
:1036AC001B6822F40062DA617B6800225A657B6831
:1036BC00012283F85120002318460837BD4680BDEF
:1036CC0080B588B000AFF860B9603B601346FB80F2
:1036DC00FEF786FCF861FB887B83FB6893F851301E
:1036EC00DBB2012B01D002232AE1BB68002B02D0F4
:1036FC00FB88002B01D1012322E1FB6893F85030A9
:10370C00012B01D102231BE1FB68012283F850201D
:10371C00FB68032283F85120FB6800225A65FB6882
:10372C00BA681A63FB68FA889A86FB68FA88DA86A4
:10373C00FB6800229A63FB6800229A87FB680022D0
:10374C00DA87FB6800225A64FB6800221A64FB6863
:10375C009B68B3F5004F0FD1FB681B681A68FB68B8
:10376C001B6822F040021A60FB681B681A68FB6831
:10377C001B6842F480421A60FB681B681B6803F0EC
:10378C004003402B07D0FB681B681A68FB681B685A
:10379C0042F040021A60FB68DB68B3F5006F52D14F
:1037AC00FB685B68002B02D07B8B012B45D1FB683F
:1037BC001B6B1A88FB681B68DA60FB681B6B9A1C16
:1037CC00FB681A63FB68DB8E9BB2013B9AB2FB6809
:1037DC00DA8632E0FB681B689B6803F00203022B5D
:1037EC0012D1FB681B6B1A88FB681B68DA60FB68DC
:1037FC001B6B9A1CFB681A63FB68DB8E9BB2013B4C
:10380C009AB2FB68DA8618E0FEF7EAFB0246FB691F
:10381C00D31A3A689A4203D83B68B3F1FF3F02D1FE
:10382C003B68002B09D1FB68012283F85120FB680F
:10383C00002283F85020032382E0FB68DB8E9BB2CE
:10384C00002BC7D153E0FB685B68002B02D07B8B4D
:10385C00012B47D1FB681A6BFB681B680C33127881
:10386C001A70FB681B6B5A1CFB681A63FB68DB8EB7
:10387C009BB2013B9AB2FB68DA8633E0FB681B68AB
:10388C009B6803F00203022B13D1FB681A6BFB68D5
:10389C001B680C3312781A70FB681B6B5A1CFB6884
:1038AC001A63FB68DB8E9BB2013B9AB2FB68DA862B
:1038BC0018E0FEF795FB0246FB69D31A3A689A4268
:1038CC0003D83B68B3F1FF3F02D13B68002B09D111
:1038DC00FB68012283F85120FB68002283F85020FA
:1038EC0003232DE0FB68DB8E9BB2002BC6D1FA695B
:1038FC003968F86800F0C8FC0346002B02D0FB685E
:10390C0020225A65FB689B68002B0AD100237B613F
:10391C00FB681B68DB687B61FB681B689B687B61D1
:10392C007B69FB68012283F85120FB68002283F835
:10393C005020FB685B6D002B01D0012300E00023BD
:10394C0018462037BD4680BD80B588B002AFF86000
:10395C00B9603B601346FB80FB6893F85130DBB2D7
:10396C00012B01D0022304E1FB685B68B3F5827F75
:10397C0012D1FB689B68002B0ED1FB68042283F8E4
:10398C005120FA883B6800931346BA68B968F86806
:10399C0000F0F3F80346ECE0FEF722FB7861BB681D
:1039AC00002B02D0FB88002B01D10123E1E0FB6846
:1039BC0093F85030012B01D10223DAE0FB6801228D
:1039CC0083F85020FB68042283F85120FB68002206
:1039DC005A65FB68BA689A63FB68FA889A87FB6831
:1039EC00FA88DA87FB6800221A63FB6800229A8641
:1039FC00FB680022DA86FB6800221A64FB6800224E
:103A0C005A64FB689B68B3F5004F0FD1FB681B68C9
:103A1C001A68FB681B6822F040021A60FB681B687E
:103A2C001A68FB681B6822F480421A60FB681B68EA
:103A3C001B6803F04003402B07D0FB681B681A6817
:103A4C00FB681B6842F040021A60FB68DB68002BC5
:103A5C0070D135E0FB681B689B6803F00103012BF8
:103A6C0015D1FB681B6803F10C02FB689B6B127889
:103A7C00D2B21A70FB689B6B5A1CFB689A63FB688A
:103A8C00DB8F9BB2013B9AB2FB68DA8718E0FEF73A
:103A9C00A7FA02467B69D31A3A689A4203D83B6864
:103AAC00B3F1FF3F02D13B68002B09D1FB68012227
:103ABC0083F85120FB68002283F85020032358E040
:103ACC00FB68DB8F9BB2002BC4D138E0FB681B6812
:103ADC009B6803F00103012B13D1FB681B68DA68A8
:103AEC00FB689B6B92B21A80FB689B6B9A1CFB6801
:103AFC009A63FB68DB8F9BB2013B9AB2FB68DA8757
:103B0C0018E0FEF76DFA02467B69D31A3A689A42BE
:103B1C0003D83B68B3F1FF3F02D13B68002B09D1BE
:103B2C00FB68012283F85120FB68002283F85020A7
:103B3C0003231EE0FB68DB8F9BB2002BC6D17A6996
:103B4C003968F86800F04EFB0346002B02D0FB6886
:103B5C0020225A65FB68012283F85120FB68002261
:103B6C0083F85020FB685B6D002B01D0012300E033
:103B7C00002318461837BD4680BD80B58AB000AF0B
:103B8C00F860B9607A607B8001237B62FEF728FACB
:103B9C003862FB6893F85130FB77FB685B68BB615C
:103BAC007B88FB82FB7F012B0CD0BB69B3F5827F3A
:103BBC0006D1FB689B68002B02D1FB7F042B01D044
:103BCC0002237FE1BB68002B05D07B68002B02D061
:103BDC007B88002B01D1012374E1FB6893F85030F2
:103BEC00012B01D102236DE1FB68012283F85020E7
:103BFC00FB6893F85130DBB2042B03D0FB68052231
:103C0C0083F85120FB6800225A65FB687A689A6336
:103C1C00FB687A88DA87FB687A889A87FB68BA68C7
:103C2C001A63FB687A88DA86FB687A889A86FB685E
:103C3C0000221A64FB6800225A64FB681B681B682C
:103C4C0003F04003402B07D0FB681B681A68FB6825
:103C5C001B6842F040021A60FB68DB68B3F5006F2A
:103C6C007ED1FB685B68002B02D0FB8A012B6CD1E8
:103C7C00FB681B6B1A88FB681B68DA60FB681B6BA4
:103C8C009A1CFB681A63FB68DB8E9BB2013B9AB2F1
:103C9C00FB68DA8659E0FB681B689B6803F002033B
:103CAC00022B1BD1FB68DB8E9BB2002B16D07B6AE0
:103CBC00012B13D1FB681B6B1A88FB681B68DA603D
:103CCC00FB681B6B9A1CFB681A63FB68DB8E9BB250
:103CDC00013B9AB2FB68DA8600237B62FB681B68A7
:103CEC009B6803F00103012B19D1FB68DB8F9BB29E
:103CFC00002B14D0FB681B68DA68FB689B6B92B2D4
:103D0C001A80FB689B6B9A1CFB689A63FB68DB8FC1
:103D1C009BB2013B9AB2FB68DA8701237B62FEF708
:103D2C005FF902463B6AD31A3A6B9A420DD83B6B49
:103D3C00B3F1FF3F09D0FB68012283F85120FB68E7
:103D4C00002283F850200323BCE0FB68DB8E9BB27F
:103D5C00002BA0D1FB68DB8F9BB2002B9BD182E0A8
:103D6C00FB685B68002B02D0FB8A012B71D1FB68CE
:103D7C001A6BFB681B680C3312781A70FB681B6B90
:103D8C005A1CFB681A63FB68DB8E9BB2013B9AB230
:103D9C00FB68DA865DE0FB681B689B6803F0020336
:103DAC00022B1CD1FB68DB8E9BB2002B17D07B6ADD
:103DBC00012B14D1FB681A6BFB681B680C3312784F
:103DCC001A70FB681B6B5A1CFB681A63FB68DB8E52
:103DDC009BB2013B9AB2FB68DA8600237B62FB68DC
:103DEC001B689B6803F00103012B19D1FB68DB8F67
:103DFC009BB2002B14D0FB681B68DA68FB689B6BCA
:103E0C00D2B21A70FB689B6B5A1CFB689A63FB68F6
:103E1C00DB8F9BB2013B9AB2FB68DA8701237B6292
:103E2C00FEF7DEF802463B6AD31A3A6B9A4203D885
:103E3C003B6BB3F1FF3F02D13B6B002B09D1FB680D
:103E4C00012283F85120FB68002283F850200323C1
:103E5C0038E0FB68DB8E9BB2002B9CD1FB68DB8FC0
:103E6C009BB2002B97D13A6A396BF86800F00CFAC8
:103E7C000346002B08D0FB6820225A65FB68002201
:103E8C0083F8502001231DE0FB689B68002B0AD1AE
:103E9C0000233B61FB681B68DB683B61FB681B68AC
:103EAC009B683B613B69FB68012283F85120FB68EE
:103EBC00002283F85020FB685B6D002B01D001239E
:103ECC0000E0002318462837BD4680BD80B588B079
:103EDC0000AF78607B681B685B68FB617B681B6864
:103EEC009B68BB61BB699B0903F00103002B0FD1DD
:103EFC00BB6903F00103002B0AD0FB699B0903F09B
:103F0C000103002B04D07B681B6C78689847BEE0DB
:103F1C00BB695B0803F00103002B0AD0FB69DB09CA
:103F2C0003F00103002B04D07B685B6C7868984726
:103F3C00ADE0BB695B0903F00103002B06D1BB6943
:103F4C009B0903F00103002B00F0A180FB695B09C6
:103F5C0003F00103002B00F09A80BB699B0903F06E
:103F6C000103002B23D07B6893F85130DBB2032B79
:103F7C0011D07B685B6D43F004027B685A650023AB
:103F8C007B617B681B68DB687B617B681B689B685B
:103F9C007B617B690BE000233B617B681B68DB6802
:103FAC003B617B681B689B683B613B696FE0BB694D
:103FBC005B0903F00103002B14D07B685B6D43F0AD
:103FCC0001027B685A650023FB607B681B689B6859
:103FDC00FB607B681B681A687B681B6822F04002D8
:103FEC001A60FB687B685B6D002B4FD07B681B688D
:103FFC005A687B681B6822F0E0025A607B680122D9
:10400C0083F85120FB6903F00203002B04D1FB69F8
:10401C0003F00103002B34D07B681B685A687B6863
:10402C001B6822F003025A607B68DB6C002B11D0FA
:10403C007B68DB6C174A5A637B68DB6C1846FEF7AF
:10404C008FFA0346002B05D07B685B6D43F0400272
:10405C007B685A657B689B6C002B16D07B689B6CCD
:10406C000C4A5A637B689B6C1846FEF779FA034638
:10407C00002B0AD07B685B6D43F040027B685A656D
:10408C0003E0786800F008F800E000BF00BF2037BC
:10409C00BD4680BDB740000880B483B000AF7860E7
:1040AC0000BF0C37BD4680BC704780B584B000AFF4
:1040BC0078607B685B6AFB60FB680022DA87FB68D0
:1040CC000022DA86F868FFF7E7FF00BF1037BD461D
:1040DC0080BD000080B588B000AFF860B9603B606F
:1040EC001346FB71FDF77CFF0246BB6A9B1A3A68CC
:1040FC001344FB61FDF774FFB861394B1B685B011E
:10410C001B0DFA6902FB03F37B6154E03B68B3F1CE
:10411C00FF3F50D0FDF764FF0246BB69D31AFA6922
:10412C009A4202D9FB69002B3DD1FB681B685A6887
:10413C00FB681B6822F0E0025A60FB685B68B3F511
:10414C00827F11D1FB689B68B3F5004F04D0FB68EC
:10415C009B68B3F5806F07D1FB681B681A68FB6816
:10416C001B6822F040021A60FB689B6AB3F5005F83
:10417C000FD1FB681B681A68FB681B6822F400529D
:10418C001A60FB681B681A68FB681B6842F40052D3
:10419C001A60FB68012283F85120FB68002283F827
:1041AC005020032317E07B69002B01D10023FB6116
:1041BC007B69013B7B61FB681B689A68BB68134099
:1041CC00BA689A420CBF01230023DBB21A46FB7972
:1041DC009A429BD1002318462037BD4680BD00BFB4
:1041EC000000002080B586B002AFF860B9607A603C
:1041FC00FB685B68B3F5827F11D1FB689B68B3F5F4
:10420C00004F04D0FB689B68B3F5806F07D1FB6847
:10421C001B681A68FB681B6822F040021A60FB6876
:10422C005B68B3F5827F17D1FB689B68B3F5806F31
:10423C0012D17B680093BB6800220121F868FFF75C
:10424C0049FF0346002B1AD0FB685B6D43F020023C
:10425C00FB685A65032313E07B680093BB6800225C
:10426C008021F868FFF736FF0346002B07D0FB6868
:10427C005B6D43F02002FB685A65032300E00023CA
:10428C0018461037BD4680BD80B586B002AFF860C9
:10429C00B9607A607B680093BB6801220221F868E0
:1042AC00FFF718FF0346002B07D0FB685B6D43F04C
:1042BC002002FB685A65032313E07B680093BB68FC
:1042CC0000228021F868FFF705FF0346002B07D07A
:1042DC00FB685B6D43F02002FB685A65032300E02A
:1042EC00002318461037BD4680BD80B582B000AFA4
:1042FC0078607B68002B01D1012341E07B6893F847
:10430C003D30DBB2002B06D17B68002283F83C20C9
:10431C007868FDF7ABFB7B68022283F83D207B6855
:10432C001A687B6804331946104600F037FA7B682C
:10433C00012283F846207B68012283F83E207B68AB
:10434C00012283F83F207B68012283F840207B68A0
:10435C00012283F841207B68012283F842207B688C
:10436C00012283F843207B68012283F844207B6878
:10437C00012283F845207B68012283F83D2000232D
:10438C0018460837BD4680BD80B483B000AF786056
:10439C007B681B68DA687B681B6822F00102DA60B4
:1043AC007B681B681A6A41F211131340002B0FD162
:1043BC007B681B681A6A40F244431340002B07D1F8
:1043CC007B681B681A687B681B6822F001021A6004
:1043DC007B68012283F83D20002318460C37BD462C
:1043EC0080BC704780B584B000AF78607B681B6878
:1043FC00DB68FB607B681B681B69BB60BB6803F0F8
:10440C000203002B20D0FB6803F00203002B1BD00F
:10441C007B681B686FF002021A617B6801221A77B5
:10442C007B681B689B6903F00303002B03D078683F
:10443C0000F098F905E0786800F08BF9786800F0E6
:10444C009AF97B6800221A77BB6803F00403002BEF
:10445C0020D0FB6803F00403002B1BD07B681B6887
:10446C006FF004021A617B6802221A777B681B6862
:10447C009B6903F44073002B03D0786800F072F949
:10448C0005E0786800F065F9786800F074F97B68ED
:10449C0000221A77BB6803F00803002B20D0FB68BE
:1044AC0003F00803002B1BD07B681B686FF008021D
:1044BC001A617B6804221A777B681B68DB6903F03E
:1044CC000303002B03D0786800F04CF905E0786802
:1044DC0000F03FF9786800F04EF97B6800221A77FB
:1044EC00BB6803F01003002B20D0FB6803F0100313
:1044FC00002B1BD07B681B686FF010021A617B6865
:10450C0008221A777B681B68DB6903F44073002B65
:10451C0003D0786800F026F905E0786800F019F906
:10452C00786800F028F97B6800221A77BB6803F0E2
:10453C000103002B0CD0FB6803F00103002B07D008
:10454C007B681B686FF001021A617868FCF76EFEDD
:10455C00BB6803F08003002B0CD0FB6803F08003D6
:10456C00002B07D07B681B686FF080021A6178689B
:10457C0000F07FFABB6803F04003002B0CD0FB6803
:10458C0003F04003002B07D07B681B686FF04002E0
:10459C001A61786800F0F8F8BB6803F02003002B70
:1045AC000CD0FB6803F02003002B07D07B681B6842
:1045BC006FF020021A61786800F052FA00BF1037D1
:1045CC00BD4680BD80B584B000AF786039600023F3
:1045DC00FB737B6893F83C30012B01D10223B4E0D0
:1045EC007B68012283F83C207B68022283F83D2003
:1045FC007B681B689B68BB60BB6823F07703BB6060
:10460C00BB6823F47F43BB607B681B68BA689A6005
:10461C003B681B68B3F5005F3ED0B3F5005F00F25A
:10462C008780B3F5805F00F08680B3F5805F7FD81C
:10463C00702B1AD0702B7BD8602B50D0602B77D876
:10464C00502B3CD0502B73D8402B58D0402B6FD8CC
:10465C00302B64D0302B6BD8202B60D0202B67D81C
:10466C00002B5CD0102B5AD062E07B6818683B683A
:10467C0099683B685A683B68DB6800F074F97B68A2
:10468C001B689B68BB60BB6843F07703BB607B68AF
:10469C001B68BA689A604FE07B6818683B68996839
:1046AC003B685A683B68DB6800F05DF97B681B6807
:1046BC009A687B681B6842F480429A603CE07B6895
:1046CC0018683B6859683B68DB681A4600F0D4F8F8
:1046DC007B681B685021184600F02BF92CE07B6896
:1046EC0018683B6859683B68DB681A4600F0F2F8BA
:1046FC007B681B686021184600F01BF91CE07B6886
:10470C0018683B6859683B68DB681A4600F0B4F8D7
:10471C007B681B684021184600F00BF90CE07B68A5
:10472C001A683B681B681946104600F002F903E052
:10473C000123FB7300E000BF7B68012283F83D205E
:10474C007B68002283F83C20FB7B18461037BD4663
:10475C0080BD80B483B000AF786000BF0C37BD461D
:10476C0080BC704780B483B000AF786000BF0C375A
:10477C00BD4680BC704780B483B000AF786000BF8A
:10478C000C37BD4680BC704780B483B000AF7860F6
:10479C0000BF0C37BD4680BC7047000080B485B0AC
:1047AC0000AF786039607B681B68FB607B682F4AC0
:1047BC0093420BD07B68B3F1804F07D07B682C4AB7
:1047CC00934203D07B682B4A934208D1FB6823F0B9
:1047DC007003FB603B685B68FA681343FB607B68A3
:1047EC00224A93420BD07B68B3F1804F07D07B6891
:1047FC001F4A934203D07B681E4A934208D1FB6840
:10480C0023F44073FB603B68DB68FA681343FB607E
:10481C00FB6823F080023B685B691343FB607B6899
:10482C00FA681A603B689A687B68DA623B681A68B7
:10483C007B689A627B680D4A934203D13B681A6984
:10484C007B681A637B6801225A617B681B6903F0E1
:10485C000103002B05D07B681B6923F001027B68E8
:10486C001A6100BF1437BD4680BC7047002C014054
:10487C00000400400008004080B487B000AFF8602E
:10488C00B9607A60FB681B6A7B61FB681B6A23F06A
:10489C000102FB681A62FB689B693B613B6923F070
:1048AC00F0033B617B681B013A6913433B617B69F5
:1048BC0023F00A037B617A69BB6813437B61FB6855
:1048CC003A699A61FB687A691A6200BF1C37BD4667
:1048DC0080BC704780B487B000AFF860B9607A6074
:1048EC00FB681B6A7B61FB681B6A23F01002FB6888
:1048FC001A62FB689B693B613B6923F470433B6123
:10490C007B681B033A6913433B617B6923F0A0036B
:10491C007B61BB681B017A6913437B61FB683A6955
:10492C009A61FB687A691A6200BF1C37BD4680BC6D
:10493C00704780B485B000AF786039607B689B6845
:10494C00FB60FB6823F07003FB603A68FB68134361
:10495C0043F00703FB607B68FA689A6000BF14376A
:10496C00BD4680BC704780B487B000AFF860B960BA
:10497C007A603B60FB689B687B617B6923F47F43B7
:10498C007B613B681A027B681A43BB6813437A69E4
:10499C0013437B61FB687A699A6000BF1C37BD4684
:1049AC0080BC704780B485B000AF786039607B689C
:1049BC0093F83C30012B01D1022346E07B680122A5
:1049CC0083F83C207B68022283F83D207B681B68BF
:1049DC005B68FB607B681B689B68BB60FB6823F0B3
:1049EC007003FB603B681B68FA681343FB607B68D1
:1049FC001B68FA685A607B681B68164A93420ED093
:104A0C007B681B68B3F1804F09D07B681B68124A26
:104A1C00934204D07B681B68104A93420CD1BB684C
:104A2C0023F08003BB603B685B68BA681343BB60D0
:104A3C007B681B68BA689A607B68012283F83D200A
:104A4C007B68002283F83C20002318461437BD46AF
:104A5C0080BC7047002C014000040040000800405E
:104A6C0080B483B000AF786000BF0C37BD4680BC0B
:104A7C00704780B483B000AF786000BF0C37BD4680
:104A8C0080BC704780B582B000AF78607B68002B2B
:104A9C0001D1012342E07B6893F84130DBB2002B5B
:104AAC0006D17B68002283F840207868FDF702F875
:104ABC007B68242283F841207B681B68DA687B685A
:104ACC001B6822F40052DA60786801F021F87B68E8
:104ADC001B681A697B681B6822F490421A617B6818
:104AEC001B685A697B681B6822F02A025A617B6832
:104AFC001B68DA687B681B6842F40052DA607B68DA
:104B0C0000225A647B68202283F841207B68202293
:104B1C0083F842207B6800225A630023184608372A
:104B2C00BD4680BD80B582B000AF78607B68002B3D
:104B3C0001D1012324E07B68242283F841207B6887
:104B4C001B68DA687B681B6822F40052DA607868AC
:104B5C00FDF7F2F87B6800225A647B68002283F828
:104B6C0041207B68002283F842207B6800221A6374
:104B7C007B6800225A637B68002283F84020002364
:104B8C0018460837BD4680BD80B58AB002AFF860C4
:104B9C00B9603B601346FB8000237B61FB6893F894
:104BAC004130DBB2202B75D1BB68002B02D0FB88C7
:104BBC00002B01D101236EE0FB6800225A64FB68D4
:104BCC00212283F84120FDF70BFA7861FB68FA8803
:104BDC009A84FB68FA88DA84FB689B68B3F5805F7B
:104BEC0008D1FB681B69002B04D10023FB61BB6857
:104BFC00BB6103E0BB68FB610023BB612EE03B683B
:104C0C0000937B6900228021F86800F0CCFC0346FD
:104C1C00002B05D0FB68202283F8412003233AE0C7
:104C2C00FB69002B0BD1BB691B881A46FB681B6800
:104C3C00C2F308025A60BB690233BB6107E0FB692F
:104C4C001A78FB681B685A60FB690133FB61FB68CF
:104C5C00DB8C9BB2013B9AB2FB68DA84FB68DB8C81
:104C6C009BB2002BCBD13B6800937B690022402187
:104C7C00F86800F098FC0346002B05D0FB68202256
:104C8C0083F84120032306E0FB68202283F84120AF
:104C9C00002300E0022318462037BD4680BD80B5B6
:104CAC0090B000AF78600023FB637B681B685B6986
:104CBC0003F08003002B14BF01230023DBB2FB6342
:104CCC007B6893F84130DBB2212B28D1FB6B002B96
:104CDC0025D07B681B6814337B627B6A53E8003FEA
:104CEC003B623B6A23F08003BB637B681B68143315
:104CFC00BA6B3A63FB62F96A3A6B41E80023BB6218
:104D0C00BB6A002BE5D17B689B6B002B04D07B68C6
:104D1C009B6B1846FDF7E8FB786800F037FD7B6865
:104D2C001B685B6903F04003002B14BF01230023B5
:104D3C00DBB2FB637B6893F84230DBB2222B28D1C9
:104D4C00FB6B002B25D07B681B6814333B613B69E4
:104D5C0053E8003FFB60FB6823F040037B637B68F8
:104D6C001B6814337A6BFA61BB61B969FA6941E863
:104D7C0000237B617B69002BE5D17B68DB6B002B0F
:104D8C0004D07B68DB6B1846FDF7AEFB786800F04F
:104D9C0024FD002318464037BD4680BD80B58CB03D
:104DAC0000AFF860B9601346FB80FB6893F84230A3
:104DBC00DBB2202B46D1BB68002B02D0FB88002B2A
:104DCC0001D101233FE0FB6801221A63FB6800223A
:104DDC005A63FB881A46B968F86800F03DFC034634
:104DEC0087F82F30FB681B6B012B25D100233B610F
:104DFC00FB681B681B683B61FB681B685B683B615D
:104E0C003B69FB681B680C33BB61BB6953E8003F13
:104E1C007B617B6943F01003BB62FB681B680C333E
:104E2C00BA6A7A623B62396A7A6A41E80023FB61AA
:104E3C00FB69002BE5D102E0012387F82F3097F8AE
:104E4C002F3000E0022318463037BD4680BD0000ED
:104E5C0080B5BAB000AF78607B681B681B68C7F878
:104E6C00E4307B681B68DB68C7F8E0307B681B6844
:104E7C005B69C7F8DC300023C7F8D8300023C7F8CB
:104E8C00D430D7F8E43003F00F03C7F8D830D7F894
:104E9C00D830002B0FD1D7F8E43003F02003002BCF
:104EAC0009D0D7F8E03003F02003002B03D078684A
:104EBC0000F070FD5BE2D7F8D830002B00F0DE80FC
:104ECC00D7F8DC3003F00103002B06D1D7F8E03023
:104EDC0003F49073002B00F0D180D7F8E43003F08A
:104EEC000103002B0BD0D7F8E03003F48073002BB8
:104EFC0005D07B685B6C43F001027B685A64D7F881
:104F0C00E43003F00403002B0BD0D7F8DC3003F0B3
:104F1C000103002B05D07B685B6C43F002027B68BD
:104F2C005A64D7F8E43003F00203002B0BD0D7F807
:104F3C00DC3003F00103002B05D07B685B6C43F085
:104F4C0004027B685A64D7F8E43003F00803002BA2
:104F5C0011D0D7F8E03003F02003002B05D1D7F89F
:104F6C00DC3003F00103002B05D07B685B6C43F055
:104F7C0008027B685A647B685B6C002B00F0F28142
:104F8C00D7F8E43003F02003002B08D0D7F8E0303A
:104F9C0003F02003002B02D0786800F0FBFC7B6848
:104FAC001B685B6903F04003002B14BF0123002333
:104FBC00DBB2C7F8D4307B685B6C03F00803002BC2
:104FCC0003D1D7F8D430002B4FD0786800F005FC13
:104FDC007B681B685B6903F04003002B41D07B6846
:104FEC001B681433C7F89C30D7F89C3053E8003F4B
:104FFC00C7F89830D7F8983023F04003C7F8D03072
:10500C007B681B681433D7F8D020C7F8A820C7F8E2
:10501C00A430D7F8A410D7F8A82041E80023C7F88B
:10502C00A030D7F8A030002BD9D17B68DB6B002BDC
:10503C0013D07B68DB6B7E4A5A637B68DB6B18464C
:10504C00FDF78EFA0346002B16D07B68DB6B5B6B8F
:10505C007A68D26B104698470EE07868FCF7ACFB88
:10506C000AE07868FCF7A8FB06E07868FCF7A4FB7C
:10507C007B6800225A6475E100BF73E17B681B6B8F
:10508C00012B40F04F81D7F8E43003F01003002BD4
:10509C0000F04881D7F8E03003F01003002B00F04B
:1050AC0041810023BB607B681B681B68BB607B680D
:1050BC001B685B68BB60BB687B681B685B6903F043
:1050CC004003002B00F0B6807B68DB6B1B685B68D1
:1050DC00A7F8BE30B7F8BE30002B00F045817B68D6
:1050EC009B8DB7F8BE209A4280F03E817B68B7F862
:1050FC00BE20DA857B68DB6B9B69202B00F08880F7
:10510C007B681B680C33C7F88830D7F8883053E8B5
:10511C00003FC7F88430D7F8843023F48073C7F885
:10512C00B8307B681B680C33D7F8B820C7F89420CC
:10513C00C7F89030D7F89010D7F8942041E80023A6
:10514C00C7F88C30D7F88C30002BD9D17B681B6812
:10515C0014337B677B6F53E8003F3B673B6F23F057
:10516C000103C7F8B4307B681B681433D7F8B4203C
:10517C00C7F88020FB67F96FD7F8802041E800233F
:10518C00BB67BB6F002BE1D17B681B6814333B669C
:10519C003B6E53E8003FFB65FB6D23F04003C7F803
:1051AC00B0307B681B681433D7F8B020FA66BB6646
:1051BC00B96EFA6E41E800237B667B6E002BE3D15F
:1051CC007B68202283F842207B6800221A637B686C
:1051DC001B680C33FB64FB6C53E8003FBB64BB6C7B
:1051EC0023F01003C7F8AC307B681B680C33D7F87E
:1051FC00AC20BA657B65796DBA6D41E800233B65DF
:10520C003B6D002BE3D17B68DB6B1846FDF76CF92B
:10521C007B6802225A637B689A8D7B68DB8D9BB21C
:10522C00D31A9BB219467868FCF7D6FA9CE000BFFB
:10523C00AB5800087B689A8D7B68DB8D9BB2D31AC8
:10524C00A7F8CE307B68DB8D9BB2002B00F08E80F4
:10525C00B7F8CE30002B00F089807B681B680C33CC
:10526C00BB63BB6B53E8003F7B637B6B23F4907396
:10527C00C7F8C8307B681B680C33D7F8C8207A6431
:10528C003B64396C7A6C41E80023FB63FB6B002BAD
:10529C00E3D17B681B6814337B627B6A53E8003F65
:1052AC003B623B6A23F00103C7F8C4307B681B6880
:1052BC001433D7F8C4203A63FB62F96A3A6B41E8BD
:1052CC000023BB62BB6A002BE3D17B68202283F8EE
:1052DC0042207B6800221A637B681B680C333B619D
:1052EC003B6953E8003FFB60FB6823F01003C7F8F1
:1052FC00C0307B681B680C33D7F8C020FA61BB61E7
:10530C00B969FA6941E800237B617B69002BE3D121
:10531C007B6802225A63B7F8CE3019467868FCF7DE
:10532C005BFA23E0D7F8E43003F08003002B09D0BC
:10533C00D7F8E03003F08003002B03D0786800F03E
:10534C00C2FA14E0D7F8E43003F04003002B0ED07F
:10535C00D7F8E03003F04003002B08D0786800F059
:10536C0001FB04E000BF02E000BF00E000BFE83733
:10537C00BD4680BD80B483B000AF786000BF0C37F1
:10538C00BD4680BC704780B483B000AF786000BF6E
:10539C000C37BD4680BC704780B483B000AF7860DA
:1053AC0000BF0C37BD4680BC704780B59CB000AFC9
:1053BC0078607B685B6AFB667B681B681B6803F024
:1053CC002003002B72D1FB6E0022DA85FB6E1B686A
:1053DC000C33FB64FB6C53E8003FBB64BB6C23F4E5
:1053EC008073BB66FB6E1B680C33BA6EBA657B654B
:1053FC00796DBA6D41E800233B653B6D002BE5D11F
:10540C00FB6E1B681433BB63BB6B53E8003F7B63C1
:10541C007B6B23F001037B66FB6E1B6814337A6E87
:10542C007A643B64396C7A6C41E80023FB63FB6B58
:10543C00002BE5D1FB6E1B6814337B627B6A53E84F
:10544C00003F3B623B6A23F040033B66FB6E1B68EC
:10545C0014333A6E3A63FB62F96A3A6B41E8002303
:10546C00BB62BB6A002BE5D1FB6E202283F8422085
:10547C00FB6E1B6B012B19D1FB6E1B680C333B6154
:10548C003B6953E8003FFB60FB6823F01003FB65AE
:10549C00FB6E1B680C33FA6DFA61BB61B969FA6972
:1054AC0041E800237B617B69002BE5D1FB6E002278
:1054BC005A63FB6E1B6B012B06D1FB6E9B8D194641
:1054CC00F86EFCF789F902E0F86EFFF75CFF00BF9D
:1054DC007037BD4680BD80B584B000AF78607B6806
:1054EC005B6AFB60FB6801225A63FB681B6B012B38
:1054FC0008D1FB689B8D5B089BB21946F868FCF7DA
:10550C006BF902E0F868FFF747FF00BF1037BD46A4
:10551C0080BD80B584B000AF78600023FB607B68F1
:10552C005B6ABB60BB681B685B6903F08003002B84
:10553C0014BF01230023DBB2FB60BB6893F841303E
:10554C00DBB2212B08D1FB68002B05D0BB680022F5
:10555C00DA84B86800F01AF9BB681B685B6903F061
:10556C004003002B14BF01230023DBB2FB60BB689C
:10557C0093F84230DBB2222B08D1FB68002B05D00C
:10558C00BB680022DA85B86800F027F9BB685B6C51
:10559C0043F01002BB685A64B868FCF70DF900BF01
:1055AC001037BD4680BD80B586B000AFF860B960DD
:1055BC003B601346FB713BE03B6AB3F1FF3F37D0D6
:1055CC00FCF70EFD02463B68D31A3A6A9A4202D3A4
:1055DC003B6A002B01D103233AE0FB681B68DB68B4
:1055EC0003F00403002B23D0BB68802B20D0BB68B6
:1055FC00402B1DD0FB681B681B6803F00803082BAD
:10560C0016D100237B61FB681B681B687B61FB6800
:10561C001B685B687B617B69F86800F0DEF8FB68EF
:10562C0008225A64FB68002283F8402001230FE013
:10563C00FB681B681A68BB681340BA689A420CBFB7
:10564C0001230023DBB21A46FB799A42B4D0002323
:10565C0018461837BD4680BD80B598B000AFF860CD
:10566C00B9601346FB80BA68FB689A62FB68FA88DB
:10567C009A85FB6800225A64FB68222283F8422038
:10568C00FB68DB6B3E4A9A62FB68DB6B3D4ADA6275
:10569C00FB68DB6B3C4A1A63FB68DB6B00225A63CA
:1056AC0007F10803FB65FB68D86BFB681B680433C8
:1056BC001946FB6D1A68FB88FCF7B6FE00233B61AC
:1056CC00FB681B681B683B61FB681B685B683B6184
:1056DC003B69FB681B69002B19D0FB681B680C33FA
:1056EC003B643B6C53E8003FFB63FB6B43F4807300
:1056FC00BB65FB681B680C33BA6DFA64BB64B96C90
:10570C00FA6C41E800237B647B6C002BE5D1FB68D1
:10571C001B681433FB62FB6A53E8003FBB62BB6A35
:10572C0043F001037B65FB681B6814337A6DBA6325
:10573C007B63796BBA6B41E800233B633B6B002BBB
:10574C00E5D1FB681B681433BB61BB6953E8003FB0
:10575C007B617B6943F040033B65FB681B6814333A
:10576C003A6D7A623B62396A7A6A41E80023FB61DE
:10577C00FB69002BE5D1002318466037BD4680BD80
:10578C00B7530008E35400081F55000880B489B0D3
:10579C0000AF78607B681B680C33FB60FB6853E8D8
:1057AC00003FBB60BB6823F0C003FB617B681B68D8
:1057BC000C33FA69BA617B617969BA6941E80023F3
:1057CC003B613B69002BE5D17B68202283F84120AB
:1057DC0000BF2437BD4680BC704780B495B000AF85
:1057EC0078607B681B680C337B637B6B53E8003FF2
:1057FC003B633B6B23F49073FB647B681B680C333B
:10580C00FA6C3A64FB63F96B3A6C41E80023BB63B6
:10581C00BB6B002BE5D17B681B6814333B623B6A86
:10582C0053E8003FFB61FB6923F00103BB647B6819
:10583C001B681433BA6CFA62BB62B96AFA6A41E843
:10584C0000237B627B6A002BE5D17B681B6B012BF1
:10585C0019D17B681B680C33FB60FB6853E8003F75
:10586C00BB60BB6823F010037B647B681B680C3344
:10587C007A6CBA617B617969BA6941E800233B6152
:10588C003B69002BE5D17B68202283F842207B68A2
:10589C0000221A6300BF5437BD4680BC704780B5E8
:1058AC0084B000AF78607B685B6AFB60FB680022A9
:1058BC00DA85FB680022DA84F868FBF77DFF00BF0D
:1058CC001037BD4680BD80B485B000AF78607B6872
:1058DC0093F84130DBB2212B3ED17B689B68B3F54A
:1058EC00805F14D17B681B69002B10D17B681B6A0D
:1058FC00FB60FB681B881A467B681B68C2F30802B6
:10590C005A607B681B6A9A1C7B681A6208E07B6889
:10591C001B6A591C7A6811621A787B681B685A607A
:10592C007B68DB8C9BB2013B9BB27A681946D184B5
:10593C00002B0FD17B681B68DA687B681B6822F030
:10594C008002DA607B681B68DA687B681B6842F04F
:10595C004002DA60002300E0022318461437BD46EB
:10596C0080BC704780B582B000AF78607B681B68E4
:10597C00DA687B681B6822F04002DA607B682022C0
:10598C0083F841207868FFF7F5FC002318460837A8
:10599C00BD4680BD80B58CB000AF78607B6893F855
:1059AC004230DBB2222B40F0AE807B689B68B3F5B3
:1059BC00805F17D17B681B69002B13D10023FB621E
:1059CC007B689B6ABB627B681B685B689BB2C3F39A
:1059DC0008039AB2BB6A1A807B689B6A9A1C7B6824
:1059EC009A6226E07B689B6AFB620023BB627B6841
:1059FC009B68B3F5805F07D07B689B68002B0AD14E
:105A0C007B681B69002B06D17B681B685B68DAB26C
:105A1C00FB6A1A7008E07B681B685B68DBB203F0FA
:105A2C007F03DAB2FB6A1A707B689B6A5A1C7B682C
:105A3C009A627B68DB8D9BB2013B9BB27A681946FC
:105A4C00D185002B5DD17B681B68DA687B681B688D
:105A5C0022F02002DA607B681B68DA687B681B68BE
:105A6C0022F48072DA607B681B685A697B681B6859
:105A7C0022F001025A617B68202283F842207B6865
:105A8C0000225A637B681B6B012B35D17B6800228B
:105A9C001A637B681B680C337B617B6953E8003F9E
:105AAC003B613B6923F010037B627B681B680C3302
:105ABC007A6A3A62FB61F9693A6A41E80023BB6190
:105ACC00BB69002BE5D17B681B681B6803F01003D6
