:020000040800F2
:100000000050002065190008B9180008C118000840
:10001000C9180008D1180008D9180008000000000D
:10002000000000000000000000000000E1180008CF
:10003000ED18000800000000F91800080519000874
:10004000AD190008AD190008AD190008AD19000878
:10005000AD19000811190008AD190008AD19000804
:10006000AD190008AD190008AD190008AD19000858
:10007000AD190008AD190008AD190008AD19000848
:10008000AD190008AD190008AD190008AD19000838
:10009000AD190008AD190008AD190008AD19000828
:1000A000AD190008AD190008AD190008AD19000818
:1000B000AD190008AD190008AD190008AD19000808
:1000C000AD190008AD190008AD190008AD190008F8
:1000D0001D19000831190008AD190008451900085C
:1000E000AD190008AD190008AD19000800000000A6
:1000F0000000000000000000000000000000000000
:0C01000000000000000000005FF808F1A3
:10010C0010B5054C237833B9044B13B10448AFF345
:10011C0000800123237010BD0C00002000000000A3
:10012C00DC47000808B5034B1BB103490348AFF388
:10013C00008008BD0000000010000020DC47000813
:10014C0080B485B000AF78600B467B80FF23FB73D7
:10015C00FF23BB7313E07B685A1C7A601A78BB7B55
:10016C005340DBB2BB600F4ABB6813441A78FB7B6D
:10017C005340BB730C4ABB6813441B78FB737B88DE
:10018C005A1E7A80002BE6D1FB7B1BB21B021AB2E3
:10019C00BB7B1BB213431BB29BB218461437BD4634
:1001AC0080BC7047F4470008F448000880B584B060
:1001BC0000AF786039603B689BB219467868FFF7EE
:1001CC00BFFF0346FB813B687A681344FA89D2B2BD
:1001DC001A70FB891B0A99B23B6801337A68134485
:1001EC00CAB21A7001224FF480710B4802F0B5F8B4
:1001FC003B689BB202339AB264237968074803F0D8
:10020C00F0FB00224FF48071034802F0A6F800BF07
:10021C001037BD4680BD00BF00080140CC00002057
:10022C0080B584B000AF786039603B689BB21946EA
:10023C007868FFF785FF0346FB813B687A681344B7
:10024C00FA89D2B21A70FB891B0A99B23B68013346
:10025C007A681344CAB21A7001224FF400710B4829
:10026C0002F07BF83B689BB202339AB26423796844
:10027C00074803F0B6FB00224FF40071034802F06C
:10028C006CF800BF1037BD4680BD00BF000C0140AC
:10029C001401002080B582B000AF0346FB710B4BFC
:1002AC001A780B4B1A70094B5B7863F07F03DAB248
:1002BC00074B5A70064AFB79937003210448FFF7E9
:1002CC0075FF00BF0837BD4680BD00BF2C00002065
:1002DC003800002080B588B000AF2C4B9B781BB247
:1002EC001B021AB2294BDB781BB213431BB27B8265
:1002FC00264B1B791BB21B021AB2244B5B791BB227
:10030C0013431BB23B82214B9B79FB813B8A002B15
:10031C0002D03B8AC82B01D9002358E10023FB6192
:10032C000023BB615AE0BB690733184AD35C7B736B
:10033C00FB891A460021164804F010FA00237B6151
:10034C0046E03B8AFA699A423FDA7B8AFA6913449F
:10035C00BB607A7B7B6942FA03F303F00103002B49
:10036C001AD0BB68002B00DA0733DB10094AD25CC9
:10037C0051B2BA6802F00702012000FA02F252B23E
:10038C000A4352B2D1B2034AD1541BE02C000020D4
:10039C003800002028000020BB68002B00DA07334F
:1003AC00DB108D4AD25C51B2BA6802F00702012010
:1003BC0000FA02F252B2D24352B20A4052B2D1B255
:1003CC00854AD154FB690133FB617B6901337B6145
:1003DC007B69072BB5DDBB690133BB61FB89BA694E
:1003EC009A42A0DB7C4B5B781BB21B021AB27A4B95
:1003FC001B781BB213431BB29AB2784B1A80774B03
:10040C001B88DBB203F00103DBB21A4602217448ED
:10041C0001F0A3FF714B1B885B10DBB203F00103EF
:10042C00DBB21A464FF400616D4801F096FF6B4B3E
:10043C001B889B10DBB203F00103DBB21A464FF4AE
:10044C008051674801F089FF644B1B88DB10DBB2DD
:10045C0003F00103DBB21A461021614801F07DFF65
:10046C005E4B1B881B11DBB203F00103DBB21A4697
:10047C0040215B4801F071FF584B1B885B11DBB2CC
:10048C0003F00103DBB21A462021554801F065FF49
:10049C00524B1B889B11DBB203F00103DBB21A46F3
:1004AC000121504801F059FF4C4B1B88DB11DBB28A
:1004BC0003F00103DBB21A468021494801F04DFFDD
:1004CC00464B1B881B12DBB203F00103DBB21A464E
:1004DC004FF48041444801F040FF404B1B885B12B5
:1004EC00DBB203F00103DBB21A4602213D4801F0F6
:1004FC0034FF3A4B1B889B12DBB203F00103DBB2D7
:10050C001A464FF48071374801F027FF334B1B8894
:10051C00DB12DBB203F00103DBB21A464FF40051DD
:10052C00314801F01AFF2D4B1B881B13DBB203F073
:10053C000103DBB21A464FF40041294801F00DFFCC
:10054C00264B1B885B13DBB203F00103DBB21A46AC
:10055C000821244801F001FF204B1B889B13DBB2C0
:10056C0003F00103DBB21A4610211E4801F0F5FE20
:10057C001A4B1B881BB2DB131BB2DBB203F001035B
:10058C00DBB21A462021174801F0E7FE174B1B7807
:10059C003B700F237B70164B9B78BB70144BDB7836
:1005AC00FB70134B1B793B71114B5B797B713B4699
:1005BC0006211846FFF7FAFD082200210C4804F02A
:1005CC00CDF80A220A490B4803F096FA0123184683
:1005DC002037BD4680BD00BF280000204E00002003
:1005EC0000080140000C0140001001406800002090
:1005FC002C000020CC00002080B586B000AF454B0D
:10060C009B781BB21B021AB2424BDB781BB2134312
:10061C001BB2FB803F4B1B791BB21B021AB23D4B2A
:10062C005B791BB213431BB2BB80FA88BB881344A3
:10063C00652B04DD0220FFF72DFE002365E0BB884F
:10064C000733002B00DA0733DB10FB70324B1A78C0
:10065C00324B1A70314B01225A70304AFB7893702E
:10066C00FB781A4600212E4804F078F8FB88FB82B0
:10067C0000233B6139E00023FB730023BB6029E0BE
:10068C00FA8AF988BB880B449A4220DAFB8ADB0889
:10069C009BB2BB70FB8ADBB203F007037B70BB78A9
:1006AC00204AD35C1A467B7842FA03F303F0010329
:1006BC00002B09D00122BB6802FA03F35AB297F956
:1006CC000F3013435BB2FB73FB8A0133FB82BB68B5
:1006DC000133BB60BB68072BD2DD3B6903330F4989
:1006EC00FA7BCA543B6901333B61FB783A699A4205
:1006FC00C1DBFB78033319460848FFF757FD0A2284
:10070C000449094803F0F8F9012318461837BD4687
:10071C0080BD00BF2C0000206800002038000020A5
:10072C003B00002028000020CC00002080B586B0C3
:10073C0000AFA04B9B781BB21B021AB29D4BDB780F
:10074C001BB213431BB2FB82FB8A312B04D9022050
:10075C00FFF7A0FD002328E1FB8ADB089BB23B617D
:10076C00FB8ADBB203F00703FB73924B1B79FF2B65
:10077C0016D1904B5B79002B12D18F4A3B691344F5
:10078C001B785AB2FB7B012101FA03F35BB21343D2
:10079C005BB2D9B2884A3B6913440A461A7021E00D
:1007AC00844B1B79002B18D1824B5B79002B14D115
:1007BC00814A3B6913441B785AB2FB7B012101FA35
:1007CC0003F35BB2DB435BB213405BB2D9B27A4A40
:1007DC003B6913440A461A7004E00320FFF75AFDE4
:1007EC000023E2E0744B5B781BB21B021AB2724B13
:1007FC001B781BB213431BB2BB81BB89DBB203F06A
:10080C000103DBB21A4602216C4801F0A6FDBB893C
:10081C005B10DBB203F00103DBB21A464FF400614C
:10082C00664801F09AFDBB899B10DBB203F0010313
:10083C00DBB21A464FF48051604801F08EFDBB8943
:10084C00DB10DBB203F00103DBB21A4610215B486C
:10085C0001F083FDBB891B11DBB203F00103DBB29A
:10086C001A464021554801F078FDBB895B11DBB27B
:10087C0003F00103DBB21A462021504801F06DFD54
:10088C00BB899B11DBB203F00103DBB21A460121D9
:10089C004B4801F062FDBB89DB11DBB203F00103B5
:1008AC00DBB21A468021454801F057FDBB891B126B
:1008BC00DBB203F00103DBB21A464FF4804141482E
:1008CC0001F04BFDBB895B12DBB203F00103DBB221
:1008DC001A4602213A4801F040FDBB899B12DBB25B
:1008EC0003F00103DBB21A464FF48071344801F077
:1008FC0034FDBB89DB12DBB203F00103DBB21A4619
:10090C004FF400512F4801F028FDBB891B13DBB2BB
:10091C0003F00103DBB21A464FF40041274801F003
:10092C001CFDBB895B13DBB203F00103DBB21A467F
:10093C000821234801F011FDBB899B13DBB203F0A6
:10094C000103DBB21A4610211D4801F006FDB7F970
:10095C000C30DB131BB2DBB203F00103DBB21A4623
:10096C002021174801F0F9FC08220221164803F057
:10097C0021FF164B1B783B7105237B710D4B9B782C
:10098C00BB710C4BDB78FB710A4B1B793B72094B2F
:10099C005B797B723B1D06211846FFF741FC082250
:1009AC0004490B4803F0A8F8012318461837BD4634
:1009BC0080BD00BF4400002028000020000801403A
:1009CC00000C014000100140500000206800002085
:1009DC001401002080B58AB000AF2C4B9B781BB261
:1009EC001B021AB2294BDB781BB213431BB27B835D
:1009FC00264B1B791BB21B021AB2244B5B791BB220
:100A0C0013431BB23B83214B9B79FB823B8B002B0B
:100A1C0002D03B8BC82B01D9002346E100237B621B
:100A2C0000233B625AE03B6A0733184AD35CFB74E1
:100A3C00FB8A1A460021164803F090FE0023FB6146
:100A4C0046E03B8B7A6A9A423FDA7B8B7A6A134494
:100A5C00FB60FA7CFB6942FA03F303F00103002B01
:100A6C001AD0FB68002B00DA0733DB10094AD25C82
:100A7C0051B2FA6802F00702012000FA02F252B2F7
:100A8C000A4352B2D1B2034AD1541BE044000020B5
:100A9C003800002028000020FB68002B00DA073308
:100AAC00DB10844AD25C51B2FA6802F007020120D2
:100ABC0000FA02F252B2D24352B20A4052B2D1B24E
:100ACC007C4AD1547B6A01337B62FB690133FB6145
:100ADC00FB69072BB5DD3B6A01333B62FB8A3A6A43
:100AEC009A42A0DB734B5B781BB21B021AB2714BA0
:100AFC001B781BB213431BB2BB82BB8ADBB203F065
:100B0C000103DBB21A4602216B4801F026FCBB8ABA
:100B1C005B10DBB203F00103DBB21A464FF4006149
:100B2C00654801F01AFCBB8A9B10DBB203F0010391
:100B3C00DBB21A464FF480515F4801F00EFCBB8AC1
:100B4C00DB10DBB203F00103DBB21A4610215A486A
:100B5C0001F003FCBB8A1B11DBB203F00103DBB217
:100B6C001A464021544801F0F8FBBB8A5B11DBB2FA
:100B7C0003F00103DBB21A4620214F4801F0EDFBD4
:100B8C00BB8A9B11DBB203F00103DBB21A460121D5
:100B9C004A4801F0E2FBBB8ADB11DBB203F0010334
:100BAC00DBB21A468021444801F0D7FBBB8A1B12EA
:100BBC00DBB203F00103DBB21A464FF4804140482C
:100BCC0001F0CBFBBB8A5B12DBB203F00103DBB29F
:100BDC001A460221394801F0C0FBBB8A9B12DBB2DA
:100BEC0003F00103DBB21A464FF48071334801F075
:100BFC00B4FBBB8ADB12DBB203F00103DBB21A4697
:100C0C004FF400512E4801F0A8FBBB8A1B13DBB23A
:100C1C0003F00103DBB21A464FF40041264801F001
:100C2C009CFBBB8A5B13DBB203F00103DBB21A46FD
:100C3C000821224801F091FBBB8A9B13DBB203F025
:100C4C000103DBB21A4610211C4801F086FBB7F9F0
:100C5C001430DB131BB2DBB203F00103DBB21A4618
:100C6C002021164801F079FB164B1B783B710F23A2
:100C7C007B71154B9B78BB71134BDB78FB71124B63
:100C8C001B793B72104B5B797B723B1D062118461E
:100C9C00FFF7C6FA082200210B4803F05FFD0A2279
:100CAC0009490A4802F028FF012318462837BD4697
:100CBC0080BD00BF2800002000080140000C01404E
:100CCC0000100140680000204400002014010020A6
:100CDC0080B586B000AF474B9B781BB21B021AB293
:100CEC00444BDB781BB213431BB2FB80414B1B798B
:100CFC001BB21B021AB23F4B5B791BB213431BB2E4
:100D0C00BB80FA88BB881344652B04DD0220FFF7F7
:100D1C00C1FA00236AE0BB880733002B00DA0733E3
:100D2C00DB10FB70344B1A78344B1A70334B0122A6
:100D3C005A70324AFB789370FB781A46002130487F
:100D4C0003F00CFDFB88FB8200233B6139E00023A0
:100D5C00FB730023BB6029E0FA8AF988BB880B443B
:100D6C009A4220DAFB8ADB089BB2BB70FB8ADBB2AF
:100D7C0003F007037B70BB78224AD35C1A467B785E
:100D8C0042FA03F303F00103002B09D00122BB68E4
:100D9C0002FA03F35AB297F90F3013435BB2FB73A9
:100DAC00FB8A0133FB82BB680133BB60BB68072B3A
:100DBC00D2DD3B6903331149FA7BCA543B690133D9
:100DCC003B61FB783A699A42C1DBFB7803331946E5
:100DDC000A48FFF725FA08220021064803F0BEFC5A
:100DEC000A220449084802F087FE012318461837E6
:100DFC00BD4680BD4400002068000020500000204B
:100E0C0053000020280000201401002080B582B07F
:100E1C0000AF78607B681B68214A93421BD1214B41
:100E2C001B78DBB2092B0BD81E4B1B78DBB25A1C80
:100E3C00D1B21C4A11701A461B4B19781B4B995492
:100E4C0000F008FE03461A4A13600122164919489D
:100E5C0002F052FE1FE07B681B68174A93421AD1BE
:100E6C00164B1B78DBB2092B0BD8144B1B78DBB25F
:100E7C005A1CD1B2114A11701A46114B1978114BE8
:100E8C00995400F0E7FD03460F4A136001220C4908
:100E9C000E4802F031FE00BF0837BD4680BD00BFD2
:100EAC00003801405A0000205C0000202C0000207B
:100EBC0060000020CC000020004800405B000020B7
:100ECC005D0000204400002064000020140100207C
:100EDC0080B500AF00224FF48051024801F03DFA7A
:100EEC0000BF80BD000C014080B500AF01224FF463
:100EFC008051024801F031FA00BF80BD000C014066
:100F0C0080B500AF01224FF40041024801F025FAF0
:100F1C0000BF80BD0010014080B582B000AF78608A
:100F2C000B46FB70FB789AB240F6B83379680348ED
:100F3C0001F0C0FE00BF0837BD4680BD7400002024
:100F4C0080B582B000AF78600B46FB70FB789AB22C
:100F5C0040F6B8337968034801F0F0FF00BF08375A
:100F6C00BD4680BD7400002080B582B000AF4E231A
:100F7C003B7105237B71FF23BB71FFF7A9FF3B1D61
:100F8C0003211846FFF7C8FFFFF7AEFF022000F061
:100F9C006BFD00BF0837BD4680BD80B582B000AF89
:100FAC004E233B7115237B71FF23BB71FFF790FF21
:100FBC003B1D03211846FFF7AFFFFFF795FF0220FB
:100FCC0000F052FD00BF0837BD4680BD80B582B031
:100FDC0000AF4E233B7110237B71FF23BB71FFF7D6
:100FEC0077FF3B1D03211846FFF796FFFFF77CFFA9
:100FFC00022000F039FD00BF0837BD4680BD80B52A
:10100C0082B000AF4E233B7100237B71FF23BB7179
:10101C00FFF75EFF3B1D03211846FFF77DFFFFF72F
:10102C0063FF022000F020FD00BF0837BD4680BDE5
:10103C0080B582B000AF4E233B7111237B71FF232F
:10104C00BB71FFF745FF3B1D03211846FFF764FFFB
:10105C00FFF74AFF022000F007FD00BF0837BD462E
:10106C0080BD80B582B000AF4E233B710A237B71EB
:10107C00FF23BB71FFF72CFF3B1D03211846FFF725
:10108C004BFFFFF731FF022000F0EEFC00BF0837EA
:10109C00BD4680BD80B582B000AF4E233B711A2394
:1010AC007B71FF23BB71FFF713FF3B1D0321184618
:1010BC00FFF732FFFFF718FF022000F0D5FC00BF4E
:1010CC000837BD4680BD000080B582B000AF4F230D
:1010DC003B7109237B71FFF7FBFE3B1D0221184678
:1010EC00FFF71AFF01210748FFF72AFFFFF7FCFE65
:1010FC000A2000F0B9FC034B1B7818460837BD4694
:10110C0080BD00BF6900002090B583B000AF4021C6
:10111C00324801F00BF903465BB25B005CB28021F4
:10112C002E4801F003F903465BB223435BB2FB711B
:10113C00FB79022B10D0022B13DC002B02D0012BDD
:10114C0005D00EE0264B4FF416521A600EE0244BDD
:10115C004FF496421A6009E0214B4FF416421A6084
:10116C0004E01F4B4FF4E1321A6000BF1C4B1A68AD
:10117C001C4B1B689A422DD0194B1B68194A1360E3
:10118C00194802F0DEFC022000F06EFC164802F05A
:10119C00F6FB134B1B68144A5360134802F09FFB79
:1011AC000A221249104802F0A7FC114802F0C9FCAF
:1011BC00022000F059FC0E4802F0E1FB084B1B68C2
:1011CC000B4A53600A4802F08AFB0A220949084874
:1011DC0002F092FC00BF0C37BD4690BD000C0140E4
:1011EC006C00002070000020140100202C00002056
:1011FC00CC0000204400002080B582B000AF00F08D
:10120C00D1FB00F091F800F059F900F0CDF800F0A6
:10121C0001F900F029F9FFF773FEFFF765FEFFF700
:10122C00A3FEFFF7ECFEFFF71CFFFFF7B6FEFFF780
:10123C00CDFEFFF7FDFEFFF72DFF0A2230493148A6
:10124C0002F05AFC0A223049304802F055FCFFF7F4
:10125C005BFFFFF739FF2E4B1A782E4B1A7000F0FC
:10126C00F9FB78602C4B1B78DBB2002B1ED02B4B80
:10127C001B687A68D31A052B18D9214B1A78254B81
:10128C001B789A420FD11E4B5B780F2B08D00F2B7B
:10129C0009DC012B01D0052B05E0FFF7ADF902E0CD
:1012AC00FFF718F800BF1C4B00221A701C4B1B7860
:1012BC00DBB2002BCBD01B4B1B687A68D31A052BE7
:1012CC00C5D9114B1A78134B1B789A4213D10E4B7C
:1012DC005B780F2B0CD00F2B0DDC012B02D0052BC8
:1012EC0003D008E0FFF7F4FC05E0FFF71FFA02E07B
:1012FC00FFF770FB00BF0A4B00221A70A7E700BF74
:10130C002C000020CC000020440000201401002000
:10131C0069000020680000205A00002060000020B6
:10132C005B0000206400002080B590B000AF07F196
:10133C00180328220021184603F010FA3B1D002246
:10134C001A605A609A60DA601A610223BB61012349
:10135C00BB621023FB6202237B630023BB634FF44D
:10136C00E013FB6307F11803184601F00FF803466E
:10137C00002B01D000F034F90F237B600223BB60FB
:10138C000023FB6000233B6100237B613B1D01219B
:10139C00184601F07DFA0346002B01D000F020F92D
:1013AC0000BF4037BD4680BD80B500AF174B184A13
:1013BC001A60164B4FF482725A60144B00229A60DA
:1013CC00124B0022DA60114B00221A610F4B0022E3
:1013DC005A610E4B4FF400729A610C4B0022DA6189
:1013EC000A4B00221A62094B00225A62074B002258
:1013FC009A62064B0A22DA62044801F0D7FB0346D4
:10140C00002B01D000F0ECF800BF80BD7400002070
:10141C000038004080B500AF114B124A1A60104BD7
:10142C004FF4E1325A600E4B00229A600C4B0022B2
:10143C00DA600B4B00221A61094B0C225A61084BE3
:10144C0000229A61064B0022DA61054802F047FA45
:10145C000346002B01D000F0C3F800BF80BD00BFD5
:10146C00CC0000200038014080B500AF114B124A6F
:10147C001A60104B4FF4E1325A600E4B00229A6006
:10148C000C4B0022DA600B4B00221A61094B0C2228
:10149C005A61084B00229A61064B0022DA6105481A
:1014AC0002F01DFA0346002B01D000F099F800BFA2
:1014BC0080BD00BF140100200048004080B588B0FA
:1014CC0000AF07F1100300221A605A609A60DA60CC
:1014DC003F4B9B693E4A43F0100393613C4B9B6925
:1014EC0003F01003FB60FB68394B9B69384A43F0EF
:1014FC0020039361364B9B6903F02003BB60BB68F0
:10150C00334B9B69324A43F004039361304B9B6924
:10151C0003F004037B607B682D4B9B692C4A43F0E2
:10152C00080393612A4B9B6903F008033B603B68FB
:10153C0000224FF46041274800F00FFF002249F6CB
:10154C00FE11254800F009FF002241F23B312348EF
:10155C0000F003FF4FF460433B6101237B610023E8
:10156C00BB610223FB6107F110031946194800F017
:10157C009DFC49F6FE133B6101237B610023BB619B
:10158C000223FB6107F110031946134800F08EFC8F
:10159C0041F23B333B6101237B610023BB6102239E
:1015AC00FB6107F1100319460C4800F07FFCC023C7
:1015BC003B6100237B610023BB6107F110031946DB
:1015CC00064800F073FC00BF2037BD4680BD00BF4D
:1015DC00001002400010014000080140000C0140C6
:1015EC0080B400AF72B600BF00BFFDE780B584B019
:1015FC0000AF194B9B69184A43F001039361164BDA
:10160C009B6903F00103BB60BB68134BDB69124A97
:10161C0043F08053D361104BDB6903F080537B6044
:10162C007B6800220021052000F03DFB052000F026
:10163C0056FB0A4B5B68FB60FB6823F0E063FB60C6
:10164C00FB6843F00073FB60044AFB68536000BF07
:10165C001037BD4680BD00BF0010024000000140A5
:10166C0080B588B000AF786007F1100300221A60D3
:10167C005A609A60DA607B681B68204A934239D1C1
:10168C001F4BDB691E4A43F48043D3611C4BDB695F
:10169C0003F48043FB60FB68194B9B69184A43F0C9
:1016AC0008039361164B9B6903F00803BB60BB688E
:1016BC004FF420433B6102237B610323FB6107F161
:1016CC00100319460F4800F0F1FB4FF480433B61C7
:1016DC0000237B610023BB6107F110031946094805
:1016EC0000F0E4FB00220021242000F0DCFA24208E
:1016FC0000F0F5FA00BF2037BD4680BD0038004031
:10170C0000100240000C014080B58AB000AF786038
:10171C0007F1180300221A605A609A60DA607B683D
:10172C001B68404A93423AD13F4B9B693E4A43F473
:10173C00804393613C4B9B6903F480437B617B69E1
:10174C00394B9B69384A43F004039361364B9B69D0
:10175C0003F004033B613B694FF40073BB6102234C
:10176C00FB6103237B6207F1180319462F4800F035
:10177C009DFB4FF48063BB610023FB6100233B6244
:10178C0007F118031946294800F090FB00220021AC
:10179C00252000F088FA252000F0A1FA3EE07B68B5
:1017AC001B68234A934239D11F4BDB691E4A43F411
:1017BC008023D3611C4BDB6903F48023FB60FB6843
:1017CC00194B9B69184A43F008039361164B9B69AC
:1017DC0003F00803BB60BB684FF48063BB6102235A
:1017EC00FB6103237B6207F118031946114800F0D3
:1017FC005DFB4FF40063BB610023FB6100233B6284
:10180C0007F1180319460B4800F050FB0022002189
:10181C00272000F048FA272000F061FA00BF283793
:10182C00BD4680BD00380140001002400008014058
:10183C0000480040000C014080B582B000AF7860D9
:10184C007B681B68144A93420ED1144B9B69134A54
:10185C0023F4804393614FF4C061114800F0AAFC5B
:10186C00252000F04AFA12E07B681B680D4A93426F
:10187C000DD10A4BDB69094A23F48023D3614FF461
:10188C004061094800F096FC272000F036FA00BFB2
:10189C000837BD4680BD00BF003801400010024033
:1018AC000008014000480040000C014080B400AF2B
:1018BC0000BFFDE780B400AF00BFFDE780B400AF10
:1018CC0000BFFDE780B400AF00BFFDE780B400AF00
:1018DC0000BFFDE780B400AF00BFBD4680BC7047C1
:1018EC0080B400AF00BFBD4680BC704780B400AF71
:1018FC0000BFBD4680BC704780B500AF00F098F8C3
:10190C0000BF80BD80B400AF00BFBD4680BC704737
:10191C0080B500AF024801F0D3FD00BF80BD00BF11
:10192C007400002080B500AF024802F0ADF900BF92
:10193C0080BD00BFCC00002080B500AF024802F093
:10194C00A3F900BF80BD00BF1401002080B400AF1C
:10195C0000BFBD4680BC7047FFF7F8FF0B480C4931
:10196C000C4A002302E0D458C4500433C4188C42EF
:10197C00F9D3094A094C002301E013600432A24256
:10198C00FBD302F0F3FEFFF737FC7047000000209A
:10199C000C000020284A00080C00002060010020E8
:1019AC00FEE7000080B500AF084B1B68074A43F008
:1019BC0010031360032000F06BF90F2000F008F8FF
:1019CC00FFF714FE0023184680BD00BF0020024024
:1019DC0080B582B000AF7860124B1A68124B1B783E
:1019EC0019464FF47A73B3FBF1F3B2FBF3F31846D9
:1019FC0000F091F90346002B01D001230EE07B6827
:101A0C000F2B0AD8002279684FF0FF3000F04BF909
:101A1C00064A7B681360002300E001231846083750
:101A2C00BD4680BD000000200800002004000020FE
:101A3C0080B400AF054B1B781A46054B1B6813444A
:101A4C00034A136000BFBD4680BC704708000020ED
:101A5C005C01002080B400AF024B1B681846BD46E9
:101A6C0080BC70475C01002080B584B000AF78600A
:101A7C00FFF7F0FFB8607B68FB60FB68B3F1FF3FDA
:101A8C0005D00A4B1B781A46FB681344FB6000BF59
:101A9C00FFF7E0FF0246BB68D31AFA689A42F7D800
:101AAC0000BF00BF1037BD4680BD00BF080000203E
:101ABC0080B485B000AF78607B6803F00703FB60EF
:101ACC000C4BDB68BB60BA684FF6FF031340BB607E
:101ADC00FB681A02BB68134343F0BF6343F4003343
:101AEC00BB60044ABB68D36000BF1437BD4680BCE2
:101AFC00704700BF00ED00E080B400AF044BDB6822
:101B0C001B0A03F007031846BD4680BC704700BF94
:101B1C0000ED00E080B483B000AF0346FB7197F991
:101B2C000730002B0BDBFB7903F01F02064997F9FA
:101B3C0007305B09012000FA02F241F8232000BFB4
:101B4C000C37BD4680BC704700E100E080B483B028
:101B5C0000AF0346FB7197F90730002B12DBFB79C2
:101B6C0003F01F020A4997F907305B09012000FABC
:101B7C0002F2203341F82320BFF34F8F00BFBFF395
:101B8C006F8F00BF00BF0C37BD4680BC704700BFD5
:101B9C0000E100E080B483B000AF03463960FB7114
:101BAC0097F90730002B0ADB3B68DAB20C4997F93E
:101BBC0007301201D2B20B4483F800230AE03B68D1
:101BCC00DAB20849FB7903F00F03043B1201D2B2DD
:101BDC000B441A7600BF0C37BD4680BC704700BF63
:101BEC0000E100E000ED00E080B489B000AFF860E7
:101BFC00B9607A60FB6803F00703FB61FB69C3F112
:101C0C000703042B28BF0423BB61FB690433062B99
:101C1C0002D9FB69033B00E000237B614FF0FF32EC
:101C2C00BB6902FA03F3DA43BB681A407B699A403A
:101C3C004FF0FF317B6901FA03F3D9437B680B400A
:101C4C00134318462437BD4680BC704780B582B01C
:101C5C0000AF78607B68013BB3F1807F01D3012337
:101C6C000FE00A4A7B68013B53600F214FF0FF30B5
:101C7C00FFF790FF054B00229A60044B07221A6075
:101C8C00002318460837BD4680BD00BF10E000E0B9
:101C9C0080B582B000AF78607868FFF709FF00BFAD
:101CAC000837BD4680BD80B586B000AF0346B9602D
:101CBC007A60FB7300237B61FFF71EFF78617A6803
:101CCC00B9687869FFF790FF024697F90F30114613
:101CDC001846FFF75FFF00BF1837BD4680BD80B5C3
:101CEC0082B000AF0346FB7197F907301846FFF737
:101CFC0011FF00BF0837BD4680BD80B582B000AF74
:101D0C000346FB7197F907301846FFF71FFF00BF1A
:101D1C000837BD4680BD80B582B000AF786078686A
:101D2C00FFF794FF034618460837BD4680BD80B4C4
:101D3C0085B000AF78600023FB737B6893F821308B
:101D4C00DBB2022B08D07B6804229A637B680022EA
:101D5C0083F82020012320E07B681B681A687B68CD
:101D6C001B6822F00E021A607B681B681A687B687D
:101D7C001B6822F001021A607B681A6C7B68DB6BB3
:101D8C00012101FA02F25A607B68012283F82120BA
:101D9C007B68002283F82020FB7B18461437BD4655
:101DAC0080BC704780B584B000AF78600023FB73B3
:101DBC007B6893F82130DBB2022B05D07B680422C0
:101DCC009A630123FB7351E07B681B681A687B687C
:101DDC001B6822F00E021A607B681B681A687B680D
:101DEC001B6822F001021A607B681B68224A93422E
:101DFC0029D07B681B68214A934222D07B681B68E0
:101E0C001F4A93421AD07B681B681E4A934212D019
:101E1C007B681B681C4A93420AD07B681B681B4A70
:101E2C00934202D14FF480130EE04FF080730BE01D
:101E3C004FF4803308E04FF4805305E04FF4807387
:101E4C0002E0102300E00123114A53607B68012259
:101E5C0083F821207B68002283F820207B685B6B51
:101E6C00002B03D07B685B6B78689847FB7B18462C
:101E7C001037BD4680BD00BF080002401C00024068
:101E8C003000024044000240580002406C00024006
:101E9C000000024080B483B000AF78607B689B6B1D
:101EAC0018460C37BD4680BC7047000080B48BB020
:101EBC0000AF7860396000237B6200233B6269E1EC
:101ECC0001227B6A02FA03F3FB613B681B68FA6927
:101EDC001340BB61BA69FB699A4240F058813B6878
:101EEC005B689A4A93425ED0984A934275D8984A56
:101EFC00934258D0964A93426FD8964A934252D006
:101F0C00944A934269D8944A93424CD0924A934251
:101F1C0063D8924A934246D0904A93425DD8122B92
:101F2C002AD8122B59D801A252F823F0B31F00085B
:101F3C008D1F00089F1F0008E11F0008E71F000805
:101F4C00E71F0008E71F0008E71F0008E71F00084D
:101F5C00E71F0008E71F0008E71F0008E71F00083D
:101F6C00E71F0008E71F0008E71F0008E71F00082D
:101F7C00951F0008A91F0008794A934213D02CE042
:101F8C003B68DB683B6229E03B68DB6804333B62FF
:101F9C0024E03B68DB6808333B621FE03B68DB688E
:101FAC000C333B621AE03B689B68002B02D1042384
:101FBC003B6213E03B689B68012B05D108233B6215
:101FCC007B68FA691A6109E008233B627B68FA694D
:101FDC005A6103E000233B6200E000BFBB69FF2BAA
:101FEC0001D87B6801E07B6804337B61BB69FF2B04
:101FFC0002D87B6A9B0002E07B6A083B9B003B613A
:10200C007B691A680F213B6901FA03F3DB431A4021
:10201C00396A3B6901FA03F31A437B691A603B681E
:10202C005B6803F08053002B00F0B1804D4B9B6933
:10203C004C4A43F0010393614A4B9B6903F0010343
:10204C00BB60BB68484A7B6A9B08023352F823305A
:10205C00FB607B6A03F003039B000F2202FA03F37D
:10206C00DB43FA681340FB607B68404A934213D011
:10207C007B683F4A93420DD07B683E4A934207D01F
:10208C007B683D4A934201D1032306E0042304E01C
:10209C00022302E0012300E000237A6A02F003022B
:1020AC0092009340FA681343FB602F497B6A9B08AC
:1020BC000233FA6841F823203B685B6803F4801311
:1020CC00002B06D02D4B9A682C49BB6913438B60AF
:1020DC0006E02A4B9A68BB69DB43284913408B60A6
:1020EC003B685B6803F40013002B06D0234BDA68C3
:1020FC002249BB691343CB6006E0204BDA68BB690D
:10210C00DB431E491340CB603B685B6803F4003330
:10211C00002B06D0194B5A681849BB6913434B6006
:10212C0006E0164B5A68BB69DB43144913404B60FD
:10213C003B685B6803F48033002B21D00F4B1A688B
:10214C000E49BB6913430B6021E000BF0000321045
:10215C0000003110000022100000211000001210AD
:10216C000000111000100240000001400008014066
:10217C00000C01400010014000140140000401401B
:10218C000B4B1A68BB69DB43094913400B607B6A34
:10219C0001337B623B681A687B6A22FA03F3002BDB
:1021AC007FF48EAE00BF00BF2C37BD4680BC70479D
:1021BC000004014080B489B000AF7860396000231E
:1021CC00FB619AE00122FB6902FA03F33A681340BF
:1021DC00BB61BB69002B00F08D804E4AFB699B08EC
:1021EC00023352F823307B61FB6903F003039B003D
:1021FC000F2202FA03F37A6913407B617B68464A2B
:10220C00934213D07B68454A93420DD07B68444A75
:10221C00934207D07B68434A934201D1032306E0E3
:10222C00042304E0022302E0012300E00023FA6906
:10223C0002F00302920093407A699A4232D13A4BEF
:10224C001A68BB69DB43384913400B60364B5A683C
:10225C00BB69DB43344913404B60334BDA68BB69D1
:10226C00DB4331491340CB602F4B9A68BB69DB438E
:10227C002D4913408B60FB6903F003039B000F2275
:10228C0002FA03F37B61234AFB699B08023352F881
:10229C0023107B69DA431F48FB699B080A40023311
:1022AC0040F82320BB69FF2B01D87B6801E07B68D9
:1022BC0004333B61BB69FF2B02D8FB699B0002E036
:1022CC00FB69083B9B00FB603B691A680F21FB68AC
:1022DC0001FA03F3DB431A400421FB6801FA03F310
:1022EC001A433B691A607B68DA68BB69DB431A40A6
:1022FC007B68DA60FB690133FB613A68FB6922FA9F
:10230C0003F3002B7FF45EAF00BF00BF2437BD4644
:10231C0080BC70470000014000080140000C0140E7
:10232C0000100140001401400004014080B485B04D
:10233C0000AF78600B467B807B689A687B88134083
:10234C00002B02D00123FB7301E00023FB73FB7B0A
:10235C0018461437BD4680BC704780B483B000AFBC
:10236C0078600B467B8013467B707B78002B03D008
:10237C007A887B681A6103E07B881A047B681A618F
:10238C0000BF0C37BD4680BC7047000080B586B0DE
:10239C0000AF78607B68002B01D1012372E27B686F
:1023AC001B6803F00103002B00F08780924B5B68E5
:1023BC0003F00C03042B0CD08F4B5B6803F00C0365
:1023CC00082B12D18C4B5B6803F48033B3F5803F40
:1023DC000BD1894B1B6803F40033002B6CD07B684A
:1023EC005B68002B68D101234CE27B685B68B3F51A
:1023FC00803F06D1804B1B687F4A43F480331360C7
:10240C002EE07B685B68002B0CD17B4B1B687A4AF7
:10241C0023F480331360784B1B68774A23F48023B2
:10242C0013601DE07B685B68B3F5A02F0CD1724B79
:10243C001B68714A43F4802313606F4B1B686E4A10
:10244C0043F4803313600BE06B4B1B686A4A23F434
:10245C0080331360684B1B68674A23F48023136036
:10246C007B685B68002B13D0FFF7F4FA386108E047
:10247C00FFF7F0FA02463B69D31A642B01D9032308
:10248C0000E25D4B1B6803F40033002BF0D014E02A
:10249C00FFF7E0FA386108E0FFF7DCFA02463B6927
:1024AC00D31A642B01D90323ECE1534B1B6803F4BF
:1024BC000033002BF0D100E000BF7B681B6803F0F9
:1024CC000203002B63D04C4B5B6803F00C03002B16
:1024DC000BD0494B5B6803F00C03082B1CD1464B0B
:1024EC005B6803F48033002B16D1434B1B6803F05D
:1024FC000203002B05D07B681B69012B01D0012343
:10250C00C0E13D4B1B6823F0F8027B685B69DB0084
:10251C00394913430B603AE07B681B69002B20D0D0
:10252C00364B01221A60FFF795FA386108E0FFF785
:10253C0091FA02463B69D31A022B01D90323A1E17C
:10254C002D4B1B6803F00203002BF0D02A4B1B68A9
:10255C0023F0F8027B685B69DB00274913430B60AF
:10256C0015E0264B00221A60FFF774FA386108E078
:10257C00FFF770FA02463B69D31A022B01D90323E9
:10258C0080E11D4B1B6803F00203002BF0D17B682C
:10259C001B6803F00803002B3AD07B689B69002B67
:1025AC0019D0174B01221A60FFF754FA386108E072
:1025BC00FFF750FA02463B69D31A022B01D90323C9
:1025CC0060E10D4B5B6A03F00203002BF0D001209D
:1025DC0000F0CEFA1CE00A4B00221A60FFF73AFA20
:1025EC0038610FE0FFF736FA02463B69D31A022B2B
:1025FC0008D9032346E100BF00100240000042420C
:10260C0080044242924B5B6A03F00203002BE9D137
:10261C007B681B6803F00403002B00F0A6800023EA
:10262C00FB758B4BDB6903F08053002B0DD1884B72
:10263C00DB69874A43F08053D361854BDB6903F038
:10264C008053BB60BB680123FB75824B1B6803F492
:10265C008073002B18D17F4B1B687E4A43F4807328
:10266C001360FFF7F7F9386108E0FFF7F3F902465A
:10267C003B69D31A642B01D9032303E1754B1B6807
:10268C0003F48073002BF0D07B68DB68012B06D140
:10269C006F4B1B6A6E4A43F0010313622DE07B689B
:1026AC00DB68002B0CD16A4B1B6A694A23F00103CF
:1026BC001362674B1B6A664A23F0040313621CE027
:1026CC007B68DB68052B0CD1614B1B6A604A43F0BD
:1026DC00040313625E4B1B6A5D4A43F001031362F1
:1026EC000BE05B4B1B6A5A4A23F001031362584BF5
:1026FC001B6A574A23F0040313627B68DB68002BC8
:10270C0015D0FFF7A7F938610AE0FFF7A3F90246E5
:10271C003B69D31A41F28832934201D90323B1E0C9
:10272C004B4B1B6A03F00203002BEED014E0FFF7B7
:10273C0091F938610AE0FFF78DF902463B69D31A2B
:10274C0041F28832934201D903239BE0404B1B6A30
:10275C0003F00203002BEED1FB7D012B05D13C4B8A
:10276C00DB693B4A23F08053D3617B68DB69002B28
:10277C0000F08780364B5B6803F00C03082B61D0AC
:10278C007B68DB69022B46D1334B00221A60FFF7C2
:10279C0061F9386108E0FFF75DF902463B69D31A2D
:1027AC00022B01D903236DE0294B1B6803F0007346
:1027BC00002BF0D17B681B6AB3F5803F08D1244B0A
:1027CC005B6823F400327B689B68214913434B60A0
:1027DC001F4B5B6823F474127B68196A7B685B6A15
:1027EC000B431B4913434B601B4B01221A60FFF731
:1027FC0031F9386108E0FFF72DF902463B69D31A2D
:10280C00022B01D903233DE0114B1B6803F000732D
:10281C00002BF0D035E0104B00221A60FFF71AF9AC
:10282C00386108E0FFF716F902463B69D31A022B10
:10283C0001D9032326E0064B1B6803F00073002B21
:10284C00F0D11EE07B68DB69012B07D1012319E075
:10285C000010024000700040600042420B4B5B686D
:10286C00FB60FB6803F480327B681B6A9A4206D1DA
:10287C00FB6803F470127B685B6A9A4201D00123F7
:10288C0000E0002318461837BD4680BD00100240FA
:10289C0080B584B000AF786039607B68002B01D1C3
:1028AC000123D0E06A4B1B6803F007033A689A4295
:1028BC0010D9674B1B6823F0070265493B6813432B
:1028CC000B60634B1B6803F007033A689A4201D014
:1028DC000123B8E07B681B6803F00203002B20D0B7
:1028EC007B681B6803F00403002B05D0594B5B6815
:1028FC00584A43F4E06353607B681B6803F0080399
:10290C00002B05D0534B5B68524A43F46053536021
:10291C00504B5B6823F0F0027B689B684D49134376
:10292C004B607B681B6803F00103002B40D07B6875
:10293C005B68012B07D1474B1B6803F40033002B5A
:10294C0015D101237FE07B685B68022B07D1414BDB
:10295C001B6803F00073002B09D1012373E03D4B7E
:10296C001B6803F00203002B01D101236BE0394BF0
:10297C005B6823F003027B685B68364913434B604A
:10298C00FFF768F8F8600AE0FFF764F80246FB68A6
:10299C00D31A41F28832934201D9032353E02D4BD1
:1029AC005B6803F00C027B685B689B009A42EBD17E
:1029BC00274B1B6803F007033A689A4210D2244B4A
:1029CC001B6823F0070222493B6813430B60204B22
:1029DC001B6803F007033A689A4201D0012332E0E6
:1029EC007B681B6803F00403002B08D0194B5B6851
:1029FC0023F4E0627B68DB68164913434B607B6809
:102A0C001B6803F00803002B09D0124B5B6823F4FE
:102A1C0060527B681B69DB000E4913434B6000F06E
:102A2C0021F802460B4B5B681B0903F00F030A49A4
:102A3C00CB5C22FA03F3094A1360094B1B68184656
:102A4C00FEF7C6FF002318461037BD4680BD00BFF9
:102A5C000020024000100240F44900080000002051
:102A6C000400002080B487B000AF0023FB6000237B
:102A7C00BB6000237B6100237B6000233B611E4B0A
:102A8C005B68FB60FB6803F00C03042B02D0082B83
:102A9C0003D027E0194B3B6127E0FB689B0C03F04C
:102AAC000F03174AD35C7B60FB6803F48033002B65
:102ABC0010D0114B5B685B0C03F00103114AD35C23
:102ACC00BB607B680D4A03FB02F2BB68B2FBF3F3FD
:102ADC007B6104E07B680C4A02FB03F37B617B693E
:102AEC003B6102E0054B3B6100BF3B6918461C375C
:102AFC00BD4680BC704700BF0010024000127A0037
:102B0C000C4A00081C4A000800093D0080B400AFC4
:102B1C00024B1B681846BD4680BC70470000002065
:102B2C0080B500AFFFF7F2FF0246054B5B681B0A4E
:102B3C0003F007030349CB5C22FA03F3184680BD6C
:102B4C0000100240044A000880B500AFFFF7DEFF1A
:102B5C000246054B5B68DB0A03F007030349CB5CB9
:102B6C0022FA03F3184680BD00100240044A000804
:102B7C0080B485B000AF78600A4B1B680A4AA2FB90
:102B8C0003235B0A7A6802FB03F3FB6000BFFB685C
:102B9C005A1EFA60002BF9D100BF00BF1437BD4696
:102BAC0080BC704700000020D34D621080B582B00D
:102BBC0000AF78607B68002B01D1012376E07B6845
:102BCC005B6A002B08D17B685B68B3F5827F09D008
:102BDC007B680022DA6105E07B6800221A617B6861
:102BEC0000225A617B6800229A627B6893F851300C
:102BFC00DBB2002B06D17B68002283F8502078686A
:102C0C00FEF72EFD7B68022283F851207B681B683F
:102C1C001A687B681B6822F040021A607B685B684C
:102C2C0003F482727B689B6803F404431A437B6849
:102C3C00DB6803F400631A437B681B6903F002032F
:102C4C001A437B685B6903F001031A437B689B6939
:102C5C0003F400731A437B68DB6903F038031A43EF
:102C6C007B681B6A03F0800342EA03017B689B6A62
:102C7C0003F400527B681B680A431A607B689B69EB
:102C8C001A0C7B681B6802F004025A607B681B6894
:102C9C00DA697B681B6822F40062DA617B680022C7
:102CAC005A657B68012283F85120002318460837A7
:102CBC00BD4680BD80B588B000AFF860B9603B60A0
:102CCC001346FB80FEF7C6FEF861FB887B83FB682E
:102CDC0093F85130DBB2012B01D002232AE1BB68FF
:102CEC00002B02D0FB88002B01D1012322E1FB68D1
:102CFC0093F85030012B01D102231BE1FB68012218
:102D0C0083F85020FB68032283F85120FB680022D3
:102D1C005A65FB68BA681A63FB68FA889A86FB687E
:102D2C00FA88DA86FB6800229A63FB6800229A878D
:102D3C00FB680022DA87FB6800225A64FB680022D9
:102D4C001A64FB689B68B3F5004F0FD1FB681B68D6
:102D5C001A68FB681B6822F040021A60FB681B684B
:102D6C001A68FB681B6842F480421A60FB681B6897
:102D7C001B6803F04003402B07D0FB681B681A68E4
:102D8C00FB681B6842F040021A60FB68DB68B3F515
:102D9C00006F52D1FB685B68002B02D07B8B012B40
:102DAC0045D1FB681B6B1A88FB681B68DA60FB68F3
:102DBC001B6B9A1CFB681A63FB68DB8E9BB2013B96
:102DCC009AB2FB68DA8632E0FB681B689B6803F0FA
:102DDC000203022B12D1FB681B6B1A88FB681B6861
:102DEC00DA60FB681B6B9A1CFB681A63FB68DB8E52
:102DFC009BB2013B9AB2FB68DA8618E0FEF72AFE1A
:102E0C000246FB69D31A3A689A4203D83B68B3F17D
:102E1C00FF3F02D13B68002B09D1FB68012283F8EC
:102E2C005120FB68002283F85020032382E0FB68CA
:102E3C00DB8E9BB2002BC7D153E0FB685B68002B89
:102E4C0002D07B8B012B47D1FB681A6BFB681B688C
:102E5C000C3312781A70FB681B6B5A1CFB681A63D4
:102E6C00FB68DB8E9BB2013B9AB2FB68DA8633E0DF
:102E7C00FB681B689B6803F00203022B13D1FB68F1
:102E8C001A6BFB681B680C3312781A70FB681B6B8F
:102E9C005A1CFB681A63FB68DB8E9BB2013B9AB22F
:102EAC00FB68DA8618E0FEF7D5FD0246FB69D31AFB
:102EBC003A689A4203D83B68B3F1FF3F02D13B68B2
:102ECC00002B09D1FB68012283F85120FB680022FA
:102EDC0083F8502003232DE0FB68DB8E9BB2002B84
:102EEC00C6D1FA693968F86800F0C8FC0346002BB3
:102EFC0002D0FB6820225A65FB689B68002B0AD124
:102F0C0000237B61FB681B68DB687B61FB681B68CB
:102F1C009B687B617B69FB68012283F85120FB680D
:102F2C00002283F85020FB685B6D002B01D001233D
:102F3C0000E0002318462037BD4680BD80B588B020
:102F4C0002AFF860B9603B601346FB80FB6893F8F6
:102F5C005130DBB2012B01D0022304E1FB685B682A
:102F6C00B3F5827F12D1FB689B68002B0ED1FB68F6
:102F7C00042283F85120FA883B6800931346BA6800
:102F8C00B968F86800F0F3F80346ECE0FEF762FD70
:102F9C007861BB68002B02D0FB88002B01D1012388
:102FAC00E1E0FB6893F85030012B01D10223DAE009
:102FBC00FB68012283F85020FB68042283F851201F
:102FCC00FB6800225A65FB68BA689A63FB68FA884A
:102FDC009A87FB68FA88DA87FB6800221A63FB6819
:102FEC0000229A86FB680022DA86FB6800221A64AB
:102FFC00FB6800225A64FB689B68B3F5004F0FD145
:10300C00FB681B681A68FB681B6822F040021A6098
:10301C00FB681B681A68FB681B6822F480421A6004
:10302C00FB681B681B6803F04003402B07D0FB6850
:10303C001B681A68FB681B6842F040021A60FB6848
:10304C00DB68002B70D135E0FB681B689B6803F0D4
:10305C000103012B15D1FB681B6803F10C02FB6803
:10306C009B6B1278D2B21A70FB689B6B5A1CFB6874
:10307C009A63FB68DB8F9BB2013B9AB2FB68DA87E1
:10308C0018E0FEF7E7FC02467B69D31A3A689A42CD
:10309C0003D83B68B3F1FF3F02D13B68002B09D149
:1030AC00FB68012283F85120FB68002283F8502032
:1030BC00032358E0FB68DB8F9BB2002BC4D138E0B4
:1030CC00FB681B689B6803F00103012B13D1FB68A1
:1030DC001B68DA68FB689B6B92B21A80FB689B6B6F
:1030EC009A1CFB689A63FB68DB8F9BB2013B9AB21C
:1030FC00FB68DA8718E0FEF7ADFC02467B69D31A51
:10310C003A689A4203D83B68B3F1FF3F02D13B685F
:10311C00002B09D1FB68012283F85120FB680022A7
:10312C0083F8502003231EE0FB68DB8F9BB2002B3F
:10313C00C6D17A693968F86800F04EFB0346002B5B
:10314C0002D0FB6820225A65FB68012283F85120CB
:10315C00FB68002283F85020FB685B6D002B01D0CC
:10316C00012300E0002318461837BD4680BD80B50A
:10317C008AB000AFF860B9607A607B8001237B6213
:10318C00FEF768FC3862FB6893F85130FB77FB68FC
:10319C005B68BB617B88FB82FB7F012B0CD0BB691E
:1031AC00B3F5827F06D1FB689B68002B02D1FB7FB5
:1031BC00042B01D002237FE1BB68002B05D07B6878
:1031CC00002B02D07B88002B01D1012374E1FB681A
:1031DC0093F85030012B01D102236DE1FB680122E1
:1031EC0083F85020FB6893F85130DBB2042B03D0EA
:1031FC00FB68052283F85120FB6800225A65FB68A6
:10320C007A689A63FB687A88DA87FB687A889A8787
:10321C00FB68BA681A63FB687A88DA86FB687A8876
:10322C009A86FB6800221A64FB6800225A64FB68C9
:10323C001B681B6803F04003402B07D0FB681B681E
:10324C001A68FB681B6842F040021A60FB68DB6876
:10325C00B3F5006F7ED1FB685B68002B02D0FB8A54
:10326C00012B6CD1FB681B6B1A88FB681B68DA603E
:10327C00FB681B6B9A1CFB681A63FB68DB8E9BB2AA
:10328C00013B9AB2FB68DA8659E0FB681B689B68C5
:10329C0003F00203022B1BD1FB68DB8E9BB2002BCD
:1032AC0016D07B6A012B13D1FB681B6B1A88FB6849
:1032BC001B68DA60FB681B6B9A1CFB681A63FB6863
:1032CC00DB8E9BB2013B9AB2FB68DA8600237B62F1
:1032DC00FB681B689B6803F00103012B19D1FB6889
:1032EC00DB8F9BB2002B14D0FB681B68DA68FB6881
:1032FC009B6B92B21A80FB689B6B9A1CFB689A635F
:10330C00FB68DB8F9BB2013B9AB2FB68DA87012327
:10331C007B62FEF79FFB02463B6AD31A3A6B9A42DA
:10332C000DD83B6BB3F1FF3F09D0FB68012283F84A
:10333C005120FB68002283F850200323BCE0FB687B
:10334C00DB8E9BB2002BA0D1FB68DB8F9BB2002BDA
:10335C009BD182E0FB685B68002B02D0FB8A012BBF
:10336C0071D1FB681A6BFB681B680C3312781A70EE
:10337C00FB681B6B5A1CFB681A63FB68DB8E9BB2E9
:10338C00013B9AB2FB68DA865DE0FB681B689B68C0
:10339C0003F00203022B1CD1FB68DB8E9BB2002BCB
:1033AC0017D07B6A012B14D1FB681A6BFB681B6866
:1033BC000C3312781A70FB681B6B5A1CFB681A636F
:1033CC00FB68DB8E9BB2013B9AB2FB68DA8600236A
:1033DC007B62FB681B689B6803F00103012B19D10E
:1033EC00FB68DB8F9BB2002B14D0FB681B68DA6880
:1033FC00FB689B6BD2B21A70FB689B6B5A1CFB6808
:10340C009A63FB68DB8F9BB2013B9AB2FB68DA874D
:10341C0001237B62FEF71EFB02463B6AD31A3A6B12
:10342C009A4203D83B6BB3F1FF3F02D13B6B002BAD
:10343C0009D1FB68012283F85120FB68002283F834
:10344C005020032338E0FB68DB8E9BB2002B9CD111
:10345C00FB68DB8F9BB2002B97D13A6A396BF8680B
:10346C0000F00CFA0346002B08D0FB6820225A65AA
:10347C00FB68002283F8502001231DE0FB689B6849
:10348C00002B0AD100233B61FB681B68DB683B61A6
:10349C00FB681B689B683B613B69FB68012283F8F6
:1034AC005120FB68002283F85020FB685B6D002BD9
:1034BC0001D0012300E0002318462837BD4680BD0B
:1034CC0080B588B000AF78607B681B685B68FB6177
:1034DC007B681B689B68BB61BB699B0903F001039C
:1034EC00002B0FD1BB6903F00103002B0AD0FB6941
:1034FC009B0903F00103002B04D07B681B6C7868DC
:10350C009847BEE0BB695B0803F00103002B0AD0AF
:10351C00FB69DB0903F00103002B04D07B685B6CB7
:10352C0078689847ADE0BB695B0903F00103002B99
:10353C0006D1BB699B0903F00103002B00F0A180AD
:10354C00FB695B0903F00103002B00F09A80BB6957
:10355C009B0903F00103002B23D07B6893F85130B7
:10356C00DBB2032B11D07B685B6D43F004027B68EC
:10357C005A6500237B617B681B68DB687B617B6819
:10358C001B689B687B617B690BE000233B617B685C
:10359C001B68DB683B617B681B689B683B613B6914
:1035AC006FE0BB695B0903F00103002B14D07B684F
:1035BC005B6D43F001027B685A650023FB607B68FE
:1035CC001B689B68FB607B681B681A687B681B68C0
:1035DC0022F040021A60FB687B685B6D002B4FD0B9
:1035EC007B681B685A687B681B6822F0E0025A6093
:1035FC007B68012283F85120FB6903F00203002B46
:10360C0004D1FB6903F00103002B34D07B681B68E9
:10361C005A687B681B6822F003025A607B68DB6C7B
:10362C00002B11D07B68DB6C174A5A637B68DB6C10
:10363C001846FEF7B7FB0346002B05D07B685B6D85
:10364C0043F040027B685A657B689B6C002B16D05C
:10365C007B689B6C0C4A5A637B689B6C1846FEF724
:10366C00A1FB0346002B0AD07B685B6D43F0400244
:10367C007B685A6503E0786800F008F800E000BF4A
:10368C0000BF2037BD4680BDAB36000880B483B088
:10369C0000AF786000BF0C37BD4680BC704780B56A
:1036AC0084B000AF78607B685B6AFB60FB680022CB
:1036BC00DA87FB680022DA86F868FFF7E7FF00BFBD
:1036CC001037BD4680BD000080B588B000AFF860F3
:1036DC00B9603B601346FB71FEF7BCF90246BB6A4E
:1036EC009B1A3A681344FB61FEF7B4F9B861394B85
:1036FC001B685B011B0DFA6902FB03F37B6154E051
:10370C003B68B3F1FF3F50D0FEF7A4F90246BB690A
:10371C00D31AFA699A4202D9FB69002B3DD1FB6896
:10372C001B685A68FB681B6822F0E0025A60FB6851
:10373C005B68B3F5827F11D1FB689B68B3F5004FD2
:10374C0004D0FB689B68B3F5806F07D1FB681B68DE
:10375C001A68FB681B6822F040021A60FB689B6ABF
:10376C00B3F5005F0FD1FB681B681A68FB681B6818
:10377C0022F400521A60FB681B681A68FB681B680D
:10378C0042F400521A60FB68012283F85120FB6856
:10379C00002283F85020032317E07B69002B01D112
:1037AC000023FB617B69013B7B61FB681B689A68AA
:1037BC00BB681340BA689A420CBF01230023DBB2EA
:1037CC001A46FB799A429BD1002318462037BD46F6
:1037DC0080BD00BF0000002080B586B002AFF8604D
:1037EC00B9607A60FB685B68B3F5827F11D1FB68C6
:1037FC009B68B3F5004F04D0FB689B68B3F5806FF2
:10380C0007D1FB681B681A68FB681B6822F0400232
:10381C001A60FB685B68B3F5827F17D1FB689B6805
:10382C00B3F5806F12D17B680093BB680022012135
:10383C00F868FFF749FF0346002B1AD0FB685B6D55
:10384C0043F02002FB685A65032313E07B68009366
:10385C00BB6800228021F868FFF736FF0346002B77
:10386C0007D0FB685B6D43F02002FB685A650323AD
:10387C0000E0002318461037BD4680BD80B586B0E9
:10388C0002AFF860B9607A607B680093BB68012274
:10389C000221F868FFF718FF0346002B07D0FB68DE
:1038AC005B6D43F02002FB685A65032313E07B68D1
:1038BC000093BB6800228021F868FFF705FF0346E0
:1038CC00002B07D0FB685B6D43F02002FB685A6548
:1038DC00032300E0002318461037BD4680BD80B599
:1038EC0082B000AF78607B68002B01D1012342E0ED
:1038FC007B6893F84130DBB2002B06D17B68002249
:10390C0083F840207868FDF7FFFE7B68242283F85B
:10391C0041207B681B68DA687B681B6822F40052C4
:10392C00DA60786800F08CFE7B681B681A697B682B
:10393C001B6822F490421A617B681B685A697B6889
:10394C001B6822F02A025A617B681B68DA687B6864
:10395C001B6842F40052DA607B6800225A647B6870
:10396C00202283F841207B68202283F842207B6848
:10397C0000225A63002318460837BD4680BD80B527
:10398C0082B000AF78607B68002B01D1012324E06A
:10399C007B68242283F841207B681B68DA687B688B
:1039AC001B6822F40052DA607868FDF745FF7B68EB
:1039BC0000225A647B68002283F841207B68002235
:1039CC0083F842207B6800221A637B6800225A63CA
:1039DC007B68002283F84020002318460837BD4638
:1039EC0080BD80B58AB002AFF860B9603B60134609
:1039FC00FB8000237B61FB6893F84130DBB2202B0A
:103A0C0075D1BB68002B02D0FB88002B01D10123A0
:103A1C006EE0FB6800225A64FB68212283F8412087
:103A2C00FEF718F87861FB68FA889A84FB68FA88C4
:103A3C00DA84FB689B68B3F5805F08D1FB681B696F
:103A4C00002B04D10023FB61BB68BB6103E0BB68A6
:103A5C00FB610023BB612EE03B6800937B69002275
:103A6C008021F86800F0BFFB0346002B05D0FB68F3
:103A7C00202283F8412003233AE0FB69002B0BD171
:103A8C00BB691B881A46FB681B68C2F308025A60A4
:103A9C00BB690233BB6107E0FB691A78FB681B68E2
:103AAC005A60FB690133FB61FB68DB8C9BB2013B09
:103ABC009AB2FB68DA84FB68DB8C9BB2002BCBD10F
:103ACC003B6800937B6900224021F86800F08BFB77
:103ADC000346002B05D0FB68202283F841200323EA
:103AEC0006E0FB68202283F84120002300E002233B
:103AFC0018462037BD4680BD80B584B000AFF86055
:103B0C00B9601346FB80FB6893F84230DBB2202B84
:103B1C0012D1BB68002B02D0FB88002B01D10123F2
:103B2C000BE0FB6800221A63FB881A46B968F86838
:103B3C0000F0B2FB034600E0022318461037BD46E6
:103B4C0080BD80B59AB000AF78607B681B680C3381
:103B5C00BB64BB6C53E8003F7B647B6C23F49073B9
:103B6C007B667B681B680C337A6E7A653B65396DB6
:103B7C007A6D41E80023FB64FB6C002BE5D17B687C
:103B8C001B6814337B637B6B53E8003F3B633B6BDD
:103B9C0023F001033B667B681B6814333A6E3A646E
:103BAC00FB63F96B3A6C41E80023BB63BB6B002BE6
:103BBC00E5D17B681B6B012B19D17B681B680C331F
:103BCC003B623B6A53E8003FFB61FB6923F0100347
:103BDC00FB657B681B680C33FA6DFA62BB62B96AD1
:103BEC00FA6A41E800237B627B6A002BE5D17B6893
:103BFC001B685B6903F04003002B36D07B681B68A5
:103C0C001433FB60FB6853E8003FBB60BB6823F0D8
:103C1C004003BB657B681B681433BA6DBA617B616A
:103C2C007969BA6941E800233B613B69002BE5D116
:103C3C007B68DB6B002B18D07B68DB6B00225A6334
:103C4C007B68DB6B1846FEF772F80346002B0CD032
:103C5C007B68DB6B1846FEF71DF90346202B04D15D
:103C6C007B6810225A6403230AE07B680022DA8501
:103C7C007B68202283F842207B6800221A63002391
:103C8C0018466837BD4680BD80B5BAB000AF7860C5
:103C9C007B681B681B68C7F8E4307B681B68DB68B3
:103CAC00C7F8E0307B681B685B69C7F8DC30002321
:103CBC00C7F8D8300023C7F8D430D7F8E43003F075
:103CCC000F03C7F8D830D7F8D830002B0FD1D7F85E
:103CDC00E43003F02003002B09D0D7F8E03003F0D8
:103CEC002003002B03D0786800F0ECFB5BE2D7F8E4
:103CFC00D830002B00F0DE80D7F8DC3003F0010365
:103D0C00002B06D1D7F8E03003F49073002B00F0B1
:103D1C00D180D7F8E43003F00103002B0BD0D7F897
:103D2C00E03003F48073002B05D07B685B6C43F0B0
:103D3C0001027B685A64D7F8E43003F00403002BCB
:103D4C000BD0D7F8DC3003F00103002B05D07B68D7
:103D5C005B6C43F002027B685A64D7F8E43003F0E2
:103D6C000203002B0BD0D7F8DC3003F00103002B3F
:103D7C0005D07B685B6C43F004027B685A64D7F80F
:103D8C00E43003F00803002B11D0D7F8E03003F037
:103D9C002003002B05D1D7F8DC3003F00103002BF6
:103DAC0005D07B685B6C43F008027B685A647B68C7
:103DBC005B6C002B00F0F281D7F8E43003F02003A9
:103DCC00002B08D0D7F8E03003F02003002B02D0F2
:103DDC00786800F077FB7B681B685B6903F0400335
:103DEC00002B14BF01230023DBB2C7F8D4307B684F
:103DFC005B6C03F00803002B03D1D7F8D430002BF5
:103E0C004FD0786800F081FA7B681B685B6903F01F
:103E1C004003002B41D07B681B681433C7F89C30DF
:103E2C00D7F89C3053E8003FC7F89830D7F8983053
:103E3C0023F04003C7F8D0307B681B681433D7F8E5
:103E4C00D020C7F8A820C7F8A430D7F8A410D7F80A
:103E5C00A82041E80023C7F8A030D7F8A030002BE9
:103E6C00D9D17B68DB6B002B13D07B68DB6B7E4A74
:103E7C005A637B68DB6B1846FDF794FF0346002BF7
:103E8C0016D07B68DB6B5B6B7A68D26B10469847FD
:103E9C000EE0786800F093F90AE0786800F08FF98A
:103EAC0006E0786800F08BF97B6800225A6475E1B3
:103EBC0000BF73E17B681B6B012B40F04F81D7F87F
:103ECC00E43003F01003002B00F04881D7F8E03009
:103EDC0003F01003002B00F041810023BB607B68D2
:103EEC001B681B68BB607B681B685B68BB60BB683E
:103EFC007B681B685B6903F04003002B00F0B68005
:103F0C007B68DB6B1B685B68A7F8BE30B7F8BE300C
:103F1C00002B00F045817B689B8DB7F8BE209A4240
:103F2C0080F03E817B68B7F8BE20DA857B68DB6B5E
:103F3C009B69202B00F088807B681B680C33C7F8CA
:103F4C008830D7F8883053E8003FC7F88430D7F86A
:103F5C00843023F48073C7F8B8307B681B680C334B
:103F6C00D7F8B820C7F89420C7F89030D7F890103D
:103F7C00D7F8942041E80023C7F88C30D7F88C3060
:103F8C00002BD9D17B681B6814337B677B6F53E89C
:103F9C00003F3B673B6F23F00103C7F8B4307B68ED
:103FAC001B681433D7F8B420C7F88020FB67F96F6F
:103FBC00D7F8802041E80023BB67BB6F002BE1D111
:103FCC007B681B6814333B663B6E53E8003FFB6514
:103FDC00FB6D23F04003C7F8B0307B681B681433CB
:103FEC00D7F8B020FA66BB66B96EFA6E41E80023CA
:103FFC007B667B6E002BE3D17B68202283F842200A
:10400C007B6800221A637B681B680C33FB64FB6CB7
:10401C0053E8003FBB64BB6C23F01003C7F8AC3013
:10402C007B681B680C33D7F8AC20BA657B65796D5F
:10403C00BA6D41E800233B653B6D002BE3D17B68F7
:10404C00DB6B1846FDF773FE7B6802225A637B68B4
:10405C009A8D7B68DB8D9BB2D31A9BB2194678681C
:10406C0000F0B6F89CE000BFDB4300087B689A8D3B
:10407C007B68DB8D9BB2D31AA7F8CE307B68DB8DC7
:10408C009BB2002B00F08E80B7F8CE30002B00F0E6
:10409C0089807B681B680C33BB63BB6B53E8003FA8
:1040AC007B637B6B23F49073C7F8C8307B681B6809
:1040BC000C33D7F8C8207A643B64396C7A6C41E8CD
:1040CC000023FB63FB6B002BE3D17B681B68143371
:1040DC007B627B6A53E8003F3B623B6A23F001033F
:1040EC00C7F8C4307B681B681433D7F8C4203A6314
:1040FC00FB62F96A3A6B41E80023BB62BB6A002B96
:10410C00E3D17B68202283F842207B6800221A636B
:10411C007B681B680C333B613B6953E8003FFB60D9
:10412C00FB6823F01003C7F8C0307B681B680C33A6
:10413C00D7F8C020FA61BB61B969FA6941E800237C
:10414C007B617B69002BE3D17B6802225A63B7F851
:10415C00CE301946786800F03BF823E0D7F8E4300D
:10416C0003F08003002B09D0D7F8E03003F0800374
:10417C00002B03D0786800F03EF914E0D7F8E43057
:10418C0003F04003002B0ED0D7F8E03003F04003CF
:10419C00002B08D0786800F07DF904E000BF02E045
:1041AC0000BF00E000BFE837BD4680BD80B483B0DF
:1041BC0000AF786000BF0C37BD4680BC704780B440
:1041CC0083B000AF786000BF0C37BD4680BC704731
:1041DC0080B483B000AF78600B467B8000BF0C3797
:1041EC00BD4680BC704780B586B000AFF860B96042
:1041FC003B601346FB713BE03B6AB3F1FF3F37D0AA
:10420C00FDF728FC02463B68D31A3A6A9A4202D35D
:10421C003B6A002B01D103233AE0FB681B68DB6887
:10422C0003F00403002B23D0BB68802B20D0BB6889
:10423C00402B1DD0FB681B681B6803F00803082B80
:10424C0016D100237B61FB681B681B687B61FB68D4
:10425C001B685B687B617B69F86800F056F8FB684B
:10426C0008225A64FB68002283F8402001230FE0E7
:10427C00FB681B681A68BB681340BA689A420CBF8B
:10428C0001230023DBB21A46FB799A42B4D00023F7
:10429C0018461837BD4680BD80B485B000AFF860B5
:1042AC00B9601346FB80FB68BA689A62FB68FA88AF
:1042BC009A85FB68FA88DA85FB6800225A64FB68E9
:1042CC00222283F84220FB681B69002B07D0FB6875
:1042DC001B68DA68FB681B6842F48072DA60FB6862
:1042EC001B685A69FB681B6842F001025A61FB6843
:1042FC001B68DA68FB681B6842F02002DA60002356
:10430C0018461437BD4680BC704780B495B000AFDA
:10431C0078607B681B680C337B637B6B53E8003FD6
:10432C003B633B6B23F49073FB647B681B680C331F
:10433C00FA6C3A64FB63F96B3A6C41E80023BB639B
:10434C00BB6B002BE5D17B681B6814333B623B6A6B
:10435C0053E8003FFB61FB6923F00103BB647B68FE
:10436C001B681433BA6CFA62BB62B96AFA6A41E828
:10437C0000237B627B6A002BE5D17B681B6B012BD6
:10438C0019D17B681B680C33FB60FB6853E8003F5A
:10439C00BB60BB6823F010037B647B681B680C3329
:1043AC007A6CBA617B617969BA6941E800233B6137
:1043BC003B69002BE5D17B68202283F842207B6887
:1043CC0000221A6300BF5437BD4680BC704780B5CD
:1043DC0084B000AF78607B685B6AFB60FB6800228E
:1043EC00DA85FB680022DA84F868FFF7E8FE00BF84
:1043FC001037BD4680BD80B485B000AF78607B6857
:10440C0093F84130DBB2212B3ED17B689B68B3F52E
:10441C00805F14D17B681B69002B10D17B681B6AF1
:10442C00FB60FB681B881A467B681B68C2F308029A
:10443C005A607B681B6A9A1C7B681A6208E07B686E
:10444C001B6A591C7A6811621A787B681B685A605F
:10445C007B68DB8C9BB2013B9BB27A681946D1849A
:10446C00002B0FD17B681B68DA687B681B6822F015
:10447C008002DA607B681B68DA687B681B6842F034
:10448C004002DA60002300E0022318461437BD46D0
:10449C0080BC704780B582B000AF78607B681B68C9
:1044AC00DA687B681B6822F04002DA607B682022A5
:1044BC0083F841207868FFF779FE00231846083707
:1044CC00BD4680BD80B58CB000AF78607B6893F83A
:1044DC004230DBB2222B40F0AE807B689B68B3F598
:1044EC00805F17D17B681B69002B13D10023FB6203
:1044FC007B689B6ABB627B681B685B689BB2C3F37F
:10450C0008039AB2BB6A1A807B689B6A9A1C7B6808
:10451C009A6226E07B689B6AFB620023BB627B6825
:10452C009B68B3F5805F07D07B689B68002B0AD132
:10453C007B681B69002B06D17B681B685B68DAB251
:10454C00FB6A1A7008E07B681B685B68DBB203F0DF
:10455C007F03DAB2FB6A1A707B689B6A5A1C7B6811
:10456C009A627B68DB8D9BB2013B9BB27A681946E1
:10457C00D185002B5DD17B681B68DA687B681B6872
:10458C0022F02002DA607B681B68DA687B681B68A3
:10459C0022F48072DA607B681B685A697B681B683E
:1045AC0022F001025A617B68202283F842207B684A
:1045BC0000225A637B681B6B012B35D17B68002270
:1045CC001A637B681B680C337B617B6953E8003F83
:1045DC003B613B6923F010037B627B681B680C33E7
:1045EC007A6A3A62FB61F9693A6A41E80023BB6175
:1045FC00BB69002BE5D17B681B681B6803F01003BB
:10460C00102B0AD10023FB607B681B681B68FB60C6
:10461C007B681B685B68FB60FB687B689B8D19463D
:10462C007868FFF7D5FD02E07868FCF7EFFB002314
:10463C0002E0002300E0022318463037BD4680BD5F
:10464C0080B584B000AF78607B681B681B6923F46D
:10465C0040517B68DA687B681B680A431A617B6887
:10466C009A687B681B691A437B685B691343BB6060
:10467C007B681B68DB6823F4B05323F00C037A6867
:10468C001268B9680B43D3607B681B685B6923F4C1
:10469C0040717B689A697B681B680A435A617B6826
:1046AC001B682C4A934203D1FEF74EFAF86002E0E5
:1046BC00FEF736FAF860FA6813469B0013449A002A
:1046CC001A447B685B689B00B2FBF3F3224AA2FBA3
:1046DC0003235B091901FA6813469B0013449A00E3
:1046EC001A447B685B689B00B2FBF3F21A4BA3FB8A
:1046FC0002035B09642000FB03F3D31A1B01323362
:10470C00154AA2FB03235B0903F0F0031944FA6872
:10471C0013469B0013449A001A447B685B689B0009
:10472C00B2FBF3F20C4BA3FB02035B09642000FB0E
:10473C0003F3D31A1B013233074AA2FB03235B0991
:10474C0003F00F027B681B680A449A6000BF1037A5
:10475C00BD4680BD003801401F85EB510346024425
:10476C00934200D1704703F8011BF9E770B500269E
:10477C000C4D0D4C641BA410A64209D100F028F876
:10478C0000260A4D0A4C641BA410A64205D170BD2C
:10479C0055F8043B98470136EEE755F8043B98472B
:1047AC000136F2E7204A0008204A0008204A000897
:1047BC00244A00080A44914200F1FF3300D17047AB
:1047CC0010B511F8014B914203F8014FF9D110BD0E
:1047DC00F8B500BFF8BC08BC9E467047F8B500BFE2
:0847EC00F8BC08BC9E467047B2
:1047F40000C1814001C0804101C0804100C18140AD
:1048040001C0804100C1814000C1814001C080419C
:1048140001C0804100C1814000C1814001C080418C
:1048240000C1814001C0804101C0804100C181407C
:1048340001C0804100C1814000C1814001C080416C
:1048440000C1814001C0804101C0804100C181405C
:1048540000C1814001C0804101C0804100C181404C
:1048640001C0804100C1814000C1814001C080413C
:1048740001C0804100C1814000C1814001C080412C
:1048840000C1814001C0804101C0804100C181401C
:1048940000C1814001C0804101C0804100C181400C
:1048A40001C0804100C1814000C1814001C08041FC
:1048B40000C1814001C0804101C0804100C18140EC
:1048C40001C0804100C1814000C1814001C08041DC
:1048D40001C0804100C1814000C1814001C08041CC
:1048E40000C1814001C0804101C0804100C18140BC
:1048F40000C0C101C30302C2C60607C705C5C4047C
:10490400CC0C0DCD0FCFCE0E0ACACB0BC90908C8EB
:10491400D81819D91BDBDA1A1EDEDF1FDD1D1CDCDB
:1049240014D4D515D71716D6D21213D311D1D0104B
:10493400F03031F133F3F23236F6F737F53534F43B
:104944003CFCFD3DFF3F3EFEFA3A3BFB39F9F838AB
:1049540028E8E929EB2B2AEAEE2E2FEF2DEDEC2C9B
:10496400E42425E527E7E62622E2E323E12120E00B
:10497400A06061A163A3A26266A6A767A56564A4FB
:104984006CACAD6DAF6F6EAEAA6A6BAB69A9A8686B
:1049940078B8B979BB7B7ABABE7E7FBF7DBDBC7C5B
:1049A400B47475B577B7B67672B2B373B17170B0CB
:1049B40050909151935352929656579755959454BB
:1049C4009C5C5D9D5F9F9E5E5A9A9B5B995958982B
:1049D400884849894B8B8A4A4E8E8F4F8D4D4C8C1B
:1049E400448485458747468682424383418180408B
:1049F400000000000000000001020304060708098B
:104A0400000000000102030402030405060708096C
:0C4A14000A0B0C0D0E0F10100102000028
:044A20003101000858
:044A24000D01000878
:0C4A280000127A001000000001000000E5
:040000050800196571
:00000001FF
