:020000040802F0
:1000000000000824C96E0308E1660308E3660308DC
:10001000EB660308ED660308EF66030800000000C6
:1000200000000000000000000000000091F703083D
:10003000F16603080000000031F8030895F8030892
:10004000196F0308196F0308196F0308196F030864
:10005000196F0308196F0308F3660308FD660308A8
:100060000767030811670308196F0308196F03086E
:10007000196F0308196F0308196F0308196F030834
:10008000196F0308196F0308196F0308196F030824
:10009000196F0308196F0308196F03081B6703081A
:1000A000196F0308196F0308196F0308196F030804
:1000B000196F0308196F0308196F0308196F0308F4
:1000C000196F0308196F0308196F0308196F0308E4
:1000D000196F030825670308BD6803083169030821
:1000E000A5690308196F030800000000196F0308D1
:1000F000196F0308196F0308196F0308196F0308B4
:10010000196F0308196F0308196F0308196F0308A3
:10011000196F0308196F0308196F0308196F030893
:10012000196F0308196F0308196F0308196F030883
:10013000196F0308196F0308196F0308196F030873
:1001400000000000000000000000000000000000AF
:10015000196F0308196F0308196F0308196F030853
:10016000196F0308196F0308196F0308196F030843
:10017000196F0308196F0308196F0308196F030833
:10018000196F0308196F0308196F0308196F030823
:10019000196F0308196F0308196F0308196F030813
:1001A000196F0308196F0308196F0308196F030803
:1001B000196F0308196F0308196F0308196F0308F3
:1001C000196F0308196F0308196F0308196F0308E3
:1001D000196F0308196F0308196F0308196F0308D3
:1001E000196F0308196F0308196F0308196F0308C3
:1001F000196F0308196F0308196F0308196F0308B3
:10020000196F0308196F0308196F0308196F0308A2
:10021000196F0308196F0308B1690308196F030800
:10022000196F0308196F0308196F03080000000015
:10023000196F0308196F030800000000196F030805
:10024000196F0308196F0308196F0308196F030862
:10025000196F0308196F0308196F0308196F030852
:10026000196F0308196F0308196F0308196F030842
:10027000196F0308196F0308196F030800000000C5
:10028000196F0308196F0308196F030800000000B5
:0802900000000000196F0308D3
:1002A00010B5054C237833B9044B13B10448AFF3B0
:1002B00000800123237010BD980700240000000077
:1002C00028DA040808B5034B1BB103490348AFF310
:1002D000008008BD000000009C07002428DA040804
:1002E00010F8012B11F8013B012A28BF9A42F7D0E0
:1002F000D01A70470000000000000000000000005D
:1003000001F0FF01102A2BDB10F0070F08D010F8C6
:10031000013B013A8B422DD010F0070F42B3F6D1CA
:10032000F0B441EA012141EA014122F007047FF0E3
:1003300000070023F0E80256083C85EA010586EA3A
:10034000010685FA47F5A3FA87F586FA47F6A5FA76
:1003500087F68EB9EED1F0BC01F0FF0102F0070282
:1003600032B110F8013B013A83EA010313B1F8D12D
:100370000020704701387047002D06BF354603380E
:10038000073815F0010F07D1013015F4807F02BF47
:10039000013015F4C03F0130F0BC0138704700BF98
:1003A000034613F8012B002AFBD1181A01387047B5
:1003B00081F0004102E000BF83F0004330B54FEA16
:1003C00041044FEA430594EA050F08BF90EA020F83
:1003D0001FBF54EA000C55EA020C7FEA645C7FEA16
:1003E000655C00F0E2804FEA5454D4EB5555B8BF39
:1003F0006D420CDD2C4480EA020281EA030382EAAA
:10040000000083EA010180EA020281EA0303362D3B
:1004100088BF30BD11F0004F4FEA01314FF4801C0E
:100420004CEA113102D0404261EB410113F0004F20
:100430004FEA03334CEA133302D0524263EB4303D7
:1004400094EA050F00F0A780A4F10104D5F1200E75
:100450000DDB02FA0EFC22FA05F2801841F10001D0
:1004600003FA0EF2801843FA05F359410EE0A5F1A4
:1004700020050EF1200E012A03FA0EFC28BF4CF0D5
:10048000020C43FA05F3C01851EBE37101F000458B
:1004900007D54FF0000EDCF1000C7EEB00006EEB98
:1004A0000101B1F5801F1BD3B1F5001F0CD3490822
:1004B0005FEA30004FEA3C0C04F101044FEA445279
:1004C00012F5800F80F09A80BCF1004F08BF5FEA00
:1004D000500C50F1000041EB045141EA050130BDE0
:1004E0005FEA4C0C404141EB0101013C28BFB1F5F2
:1004F000801FE9D291F0000F04BF01460020B1FA3D
:1005000081F308BF2033A3F10B03B3F120020CDA0F
:100510000C3208DD02F1140CC2F10C0201FA0CF0ED
:1005200021FA02F10CE002F11402D8BFC2F1200C52
:1005300001FA02F120FA0CFCDCBF41EA0C01904008
:10054000E41AA2BF01EB0451294330BD6FEA040451
:100550001F3C1CDA0C340EDC04F11404C4F120023C
:1005600020FA04F001FA02F340EA030021FA04F34E
:1005700045EA030130BDC4F10C04C4F1200220FAA5
:1005800002F001FA04F340EA0300294630BD21FAE3
:1005900004F0294630BD94F0000F83F4801306BFA9
:1005A00081F480110134013D4EE77FEA645C18BF9D
:1005B0007FEA655C29D094EA050F08BF90EA020F34
:1005C00005D054EA000C04BF1946104630BD91EA2C
:1005D000030F1EBF0021002030BD5FEA545C05D12F
:1005E0004000494128BF41F0004130BD14F580046E
:1005F0003CBF01F5801130BD01F0004545F0FE41E2
:1006000041F470014FF0000030BD7FEA645C1ABF16
:10061000194610467FEA655C1CBF0B46024650EA4D
:10062000013406BF52EA033591EA030F41F4002179
:1006300030BD00BF90F0000F04BF0021704730B5FF
:100640004FF4806404F132044FF000054FF00001D4
:1006500050E700BF90F0000F04BF0021704730B595
:100660004FF4806404F1320410F0004548BF40426A
:100670004FF000013EE700BF42004FEAE2014FEABF
:1006800031014FEA02701FBF12F07F4393F07F4F9A
:1006900081F06051704732F07F4208BF704793F09D
:1006A0007F4F04BF41F40021704730B54FF46074B0
:1006B00001F0004521F000411CE700BF50EA0102B3
:1006C00008BF704730B54FF000050AE050EA01025C
:1006D00008BF704730B511F0004502D5404261EBCC
:1006E00041014FF4806404F132045FEA915C3FF40D
:1006F000D8AE4FF003025FEADC0C18BF03325FEAAA
:10070000DC0C18BF033202EBDC02C2F1200300FA5A
:1007100003FC20FA02F001FA03FE40EA0E0021FA7F
:1007200002F11444BDE600BF7BB972B90029BEBF17
:1007300000204FF0004106E008BF00281CBF6FF00A
:1007400000414FF0FF3000F00BBAADF1080C6DE93D
:1007500004CE002909DB002B1ADB00F085F8DDF858
:1007600004E0DDE9022304B07047404261EB41013F
:10077000002B1BDB00F078F8DDF804E0DDE9022354
:1007800004B0404261EB4101524263EB43037047C6
:10079000524263EB430300F067F8DDF804E0DDE963
:1007A000022304B0404261EB41017047524263EBC7
:1007B000430300F059F8DDF804E0DDE9022304B05A
:1007C000524263EB4303704753B94AB9002908BF4B
:1007D00000281CBF4FF0FF314FF0FF3000F0C0B9D0
:1007E000ADF1080C6DE904CE00F03EF8DDF804E050
:1007F000DDE9022304B0704708B502460B4643EC1E
:10080000172BB5EEC07BF1EE10FA03D4BDE808401B
:1008100000F00AB8B1EE477B51EC170B00F004F87A
:10082000404261EB410108BD9FED0B6B41EC170BA2
:100830009FED0B5B27EE066BBCEEC66BB8EE464B2E
:10084000A4EE457BFCEEC77B16EE101A17EE900A5D
:10085000704700BFAFF30080000000000000F03DD3
:10086000000000000000F0412DE9F047089D8E4691
:1008700004468846002B4AD18A42174662D9B2FA0A
:1008800082F64EB1C6F1200301FA06F820FA03F30E
:10089000B74043EA0808B4404FEA174E1FFA87FCF6
:1008A000B8FBFEF1230C0EFB118843EA084301FB61
:1008B0000CF29A4209D9FB1801F1FF3080F0EA806E
:1008C0009A4240F2E78002393B449A1AA3B2B2FB43
:1008D000FEF00EFB102243EA024300FB0CFC9C4599
:1008E00009D9FB1800F1FF3280F0D6809C4540F218
:1008F000D3803B44023840EA0140A3EB0C030021C3
:100900001DB1F3400022C5E90032BDE8F0878B42FB
:1009100005D90DB1C5E9000100210846F5E7B3FA94
:1009200083F1002946D1734502D3824200F205814A
:10093000841A6EEB030201209046002DE5D0C5E934
:100940000048E2E7002A00F09080B2FA82F6002E1A
:1009500040F0A4808A1A030C4FEA174E80B2BCB252
:100960000121B2FBFEFC0EFB1C2243EA024304FB06
:100970000CF29A4207D9FB180CF1FF3802D29A42C6
:1009800000F2E080C4469B1AB3FBFEF20EFB12336A
:1009900040EA034302FB04F49C4207D9FB1802F12E
:1009A000FF3002D29C4200F2CA8002461B1B42EA80
:1009B0000C40A5E7C1F120068B4022FA06F71F4341
:1009C0000EFA01F420FA06F32EFA06FE4FEA174952
:1009D000234300FA01F81FFA87FCBEFBF9F01C0C58
:1009E00009FB10EE44EA0E4400FB0CFEA64502FA99
:1009F00001F209D93C1900F1FF3A80F09C80A6452C
:100A000040F2998002383C44A4EB0E041FFA83FEA6
:100A1000B4FBF9F309FB13444EEA044403FB0CFC5A
:100A2000A44508D93C1903F1FF3E80F08280A4451B
:100A30007FD9023B3C4443EA0040A4EB0C04A0FBFA
:100A400002EC64457346E14662D35FD05DB1B8EB1A
:100A5000030264EB090404FA06F622FA01F31E43CA
:100A6000CC40C5E9006400214FE7B1FBF2FC010C6A
:100A700041EA0E4180B240EA01423B4638463C46DC
:100A8000B846BE462026B1FBF7F1A2EB080241EAC8
:100A90000C4166E7014618E710462CE7C6F1200234
:100AA0002EFA02F3B740B14020FA02F24FEA174E95
:100AB0000A43B3FBFEF8BCB20EFB1833110C41EA3B
:100AC000034108FB04F9B04089454FEA104380B266
:100AD0003ED9791808F1FF3C01D289451FD8A1EB16
:100AE0000901B1FBFEF909FB04F80EFB191192B2E2
:100AF00042EA0142424529D2BA1809F1FF31C4D273
:100B00004245C2D2A9F102013A44BEE7F0459DD266
:100B1000BEEB02036CEB070C0138E14696E7A7EB4E
:100B200009094944A8F1020CB1FBFEF909FB04F8DC
:100B3000DBE773467FE7504666E70846FDE63B4441
:100B4000023A33E7ACF1020C3B441CE749469CE710
:100B5000A1EB0901C446B1FBFEF909FB04F8C4E7A7
:100B6000704700BF00B585B0002301930293039343
:100B70001848194A02604FF4403242608360C360F3
:100B800004220261037543750122826102770262C9
:100B900043628362C3620363436380F838204FF487
:100BA0008061C1634FF4A07101644364826416F0F4
:100BB000EDFF48B90023019301A9064817F012F987
:100BC00028B905B05DF804FB13F024FBF2E713F03D
:100BD00021FBF6E7DCF500240020024000B589B0D7
:100BE00000230193029303930493059306930793C1
:100BF0000A4B0193062302930423039340F2FF72EE
:100C0000049205930DEB0301054816F0EBFA10B9B9
:100C100009B05DF804FB13F0FDFAF9E70800900C49
:100C2000DCF5002400B589B00023019302930393FF
:100C300004930593069307930A4B019306230293AB
:100C40000423039340F2FF72049205930DEB03011A
:100C5000054816F0C7FA10B909B05DF804FB13F0A7
:100C6000D9FAF9E72000F014DCF5002400B589B0CA
:100C70000023019302930393049305930693079330
:100C80000A4B0193062302930423039340F2FF725D
:100C9000049205930DEB0301054816F0A3FA10B971
:100CA00009B05DF804FB13F0B5FAF9E78000501DB8
:100CB000DCF5002400B589B000230193029303936F
:100CC00004930593069307930A4B0193062302931B
:100CD0000423039340F2FF72049205930DEB03018A
:100CE000054816F07FFA10B909B05DF804FB13F05F
:100CF00091FAF9E71000C010DCF5002400B589B0C6
:100D0000002301930293039304930593069307939F
:100D10000A4B0193062302930423039340F2FF72CC
:100D2000049205930DEB0301054816F05BFA10B928
:100D300009B05DF804FB13F06DFAF9E70000844B8D
:100D4000DCF5002400B589B00023019302930393DE
:100D500004930593069307930A4B0193062302938A
:100D60000423039340F2FF72049205930DEB0301F9
:100D7000054816F037FA10B909B05DF804FB13F016
:100D800049FAF9E70000B84FDCF5002400EBC00297
:100D9000424B03EBC20393F86831012B3AD000EBCE
:100DA000C0023E4B03EBC20393ED5C6AD3ED5B6A7A
:100DB00076EE665AB5EEC00AF1EE10FA6ADDF3EE91
:100DC0000E7A85EEA77A27EE007A36EE877A00EB68
:100DD000C002324B03EBC20393ED5E5AC5EE857A37
:100DE00067EE877A93ED5D7A77EE877AB4EEE76AFD
:100DF000F1EE10FA01D4B0EE676AF4EEC66AF1EED5
:100E000010FA01DCF0EE466A254B03EB8003C3EDDC
:100E1000006A7047214B03EBC20393ED5C6AD3ED8C
:100E20005B6A76EE665AF1EE007AB4EEE70AF1EE0E
:100E300010FA2CDD30EE670ADFED1A7A65EEA77A3C
:100E400067EE807A76EEA77A00EBC002134B03EBD5
:100E5000C20393ED5E5A85EE857A67EE277A93EDAD
:100E60005D7A77EE877AB4EEE76AF1EE10FA01D494
:100E7000B0EE676AF4EEC66AF1EE10FA01DCF0EE4D
:100E8000466A074B03EB8003C3ED006A70479FED92
:100E9000060AD1E79FED040A91E700BF6033002402
:100EA000B40700240000803D0000000082B00191E2
:100EB00000EBC001824B03EBC10393F86831012BB7
:100EC00003D0022B78D002B070477D4900EBC003FD
:100ED00001EBC303B3F87CC107EE90CAF8EE676A72
:100EE000B3F87EC107EE10CAB8EE477AB3F880C1F6
:100EF00006EE10CAB8EE466AB3F882C107EE90CA91
:100F0000F8EE675A93ED615AD3ED624A93ED634A66
:100F1000D3ED643ADDED017AF8EEE77AF4EEC77AC4
:100F2000F1EE10FA0EDD77EEC77A35EE645A67EE11
:100F3000857A76EEC76A87EEA67A77EE247AC2EDD6
:100F4000007AC0E7F4EEC67AF1EE10FA13DDF4EEA3
:100F5000C77AF1EE10FA0ED877EEC67A74EEC44A6C
:100F600067EEA47A37EE467AC7EE876A76EE847A21
:100F7000C2ED007AA7E7F4EEE57AF1EE10FA13DDA0
:100F8000F4EEC67AF1EE10FA0ED877EEE57A34EE8A
:100F9000634A67EE847A36EE656A87EE867A77EE84
:100FA000237AC2ED007A8EE7F4EEE57AF1EE10FADC
:100FB00089D80023136086E7414900EBC00301EBA9
:100FC000C303B3F894C107EE90CAF8EE675AB3F8BA
:100FD00096C107EE90CAF8EE676AB3F898C107EEBB
:100FE00010CAB8EE477AB3F89AC107EE90CAB8EEC5
:100FF000676AD3ED673A93ED684A93ED695AD3ED8A
:101000006A4ADDED017AF8EEE77AF4EEC77AF1EE9E
:1010100010FA0ED577EEC67A35EE645A67EE857A09
:1010200037EE467AC7EE876A76EEA47AC2ED007A8A
:1010300049E7F4EEC77AF1EE10FA13DDF4EEE67A42
:10104000F1EE10FA0ED577EEC77A34EE454A67EE28
:10105000847A76EEC76A87EEA67A77EE057AC2EDD5
:10106000007A30E7F4EEC77AF1EE10FA0EDD77EE93
:10107000E67A73EEC43A67EEA37A75EEE65A87EE27
:10108000A57A77EE047AC2ED007A1CE7F4EE477A8F
:10109000F1EE10FA02D182ED005A14E7F4EE667A0E
:1010A000F1EE10FA02D182ED004A0CE7F4EE657A17
:1010B000F1EE10FA7FF407AFC2ED003A03E700BF8C
:1010C0006033002438B50C46124D284616F0BAFBA2
:1010D0004FF47A71284615F0E9FF284616F07EF89D
:1010E0000D4B43F824000D4D05EB840281B22046E0
:1010F000FFF7DCFE95ED037AF0EE047AB4EEE77AC2
:10110000F1EE10FA01D50022EA60024816F06CFCFC
:1011100038BD00BFDCF50024F4070024DC07002400
:1011200038B505460C46052906D8DFE801F0030A64
:101130000D101316FFF7E2FD21462846FFF7C2FF08
:1011400038BDFFF7FFFDF7E7FFF748FDF4E7FFF7CE
:101150008DFDF1E7FFF7AEFDEEE7FFF763FDEBE78F
:1011600070B541F288301CF00FFD4FF49672A5491E
:10117000A5481CF013FC70E04FF496701CF004FDC1
:10118000A24EA34D06F1300EB446BCE80F00286015
:101190006960AA60EB6066461035F445F4D103CE71
:1011A000286069603288B3782A81AB72012298493D
:1011B00010460EF063FB09E0954D9649284627F04E
:1011C00043F80122294610460EF058FB0134924B99
:1011D0001B79A34235D904EB4402904B03EBC203C5
:1011E000DA7C002AE8D104EB44028C4B03EBC20307
:1011F0005B78002BEAD1834E4FF496720021304683
:1012000027F036F904EB4403844D05EBC30529466A
:10121000A6F2351013F0A1FC4FF4FA6101201DF085
:101220002BFF0028A8D064201CF0AEFC2946A6F2B3
:10123000351014F00FFD7A4BD3F8DC021CF0A4FC3F
:10124000C4E7784B1B78012B10D04FF47A701CF058
:101250009BFC4FF4FA701CF097FC734B00221A6051
:10126000724B1B78042B6FD10024B0E7704B5B6886
:10127000A3B1674D6F4C0FCC28606960AA60EB602A
:1012800007CC28616961AA612288A378AA83AB7719
:101290000122294610460EF0F1FAD6E70021614AF4
:1012A00011705E4C84F8D13B614B1A7A84F8D22BD2
:1012B0001A7884F8D32BDA68A4F8D42B1A7CA4F813
:1012C000D62B5869D4F8D82B10805A7884F8E22BA2
:1012D0009B7884F8D03B4B4D4FF49672284627F00C
:1012E000C7F804F53D61A5F2351013F036FC4FF454
:1012F000FA6101201DF0C0FE70B164201CF044FCB6
:1013000004F53D61A5F2351014F0A4FC444BD3F86C
:10131000DC021CF039FCACE7474D3D4C05F1300CCC
:101320002E460FCE20606160A260E3603546103427
:101330006645F5D107CD20606160A2600122344985
:1013400010460EF09BFA94E74FF4FA6101201DF06D
:1013500093FE00283FF47DAF32201CF015FC374B84
:101360001B78DBB2012B39D0354B1B78012B00F0F9
:101370003E81344B1B78DBB2012B00F03881324BBD
:101380001B78002B00F0B0821E4C2046FFF708F8B7
:101390000146204612F02CFA2C4B1A88002A40F005
:1013A0009282294B00221A70294B93F90030002BAE
:1013B00006DD013B5BB2264A1370002B00F08A82E7
:1013C000104C4FF496752A460021204627F050F81D
:1013D0002A4621460C481CF0E1FA29E1184B1C78FA
:1013E000002CC1D10021154B197040F2DC52194874
:1013F00027F03EF84BE0174A174902200EF048FB51
:1014000058E000BF85F7002460F4002450DB040896
:10141000080800248CDB0408E827002438FB00249B
:1014200060330024B4730424F014002450F6002424
:101430002818002404DC0408C8DB04088BCF00242F
:101440008ECF00248ACF002489CF002440E30024DB
:101450008703002434090024100F0024AC4D2846D3
:10146000FEF79EFF4FF0FF3382B22946A9481CF0D9
:10147000F7F80023A84A1370A84A536001F070FEE1
:10148000A74B1B78002B2ED0C8201CF07DFB012C15
:1014900000F2CE8040F2DC52A2499E481CF07EFA57
:1014A000002840F088809A4A9E4902200EF0F0FA07
:1014B0000028A0D1994B5B68032BE1D1974BDB68E7
:1014C000022BDDD1924B954A127C0021022007F0BD
:1014D0002DFB0028C2D08E4B904A127C00210220A6
:1014E00007F024FBBAE78A4D2846FEF759FF4FF074
:1014F000FF3382B2294687481CF0B2F8864B1B782E
:10150000012BC1D1854B5B68022BBDD1844B1B786D
:10151000002BB9D14FF4FA701CF036FB7F4BDB681F
:10152000022B1BD07A4B7D4A127C0021022007F04F
:10153000FDFA002837D14FF4FA701CF025FB744DEA
:101540002846FEF72DFF4FF0FF3382B2294671483F
:101550001CF086F8704B00221A7095E72B466F4AF4
:10156000127C0021022007F0E1FAA0B9684D28465C
:10157000FEF716FF4FF0FF3382B2294665481CF094
:101580006FF8654B00221A7012F0CAFD42F210701B
:101590001CF0FAFA78E72B46604A127C0021022000
:1015A00007F0C4FAE2E75A4B5C4A127C00210220A1
:1015B00007F0BCFABFE75C4B00221A70C8201CF091
:1015C000E3FA5A4B1B78012B7FF461AF574B002293
:1015D0001A704F4D2846FEF7E3FE4FF0FF3382B2FC
:1015E00029464C481CF03CF80134E4B24FE7484C23
:1015F00040F2DC520021204626F03AFF22464C49B8
:1016000001200EF045FAB8B9454B1B78022B19D0D2
:10161000032B00F0E180464C4FF496752A460021DA
:10162000204626F025FF2A4621463A481CF0B6F906
:1016300032201CF0A9FA0CE622463D4901200EF0AA
:1016400027FAE1E73B4B1B78012B2FD03A4B1B7855
:10165000012B43D0394B1B78012B47D0384B1B78DB
:10166000012B4BD0374B1B78012B79D0364B1B7895
:10167000012B7DD0354B1B78012B00F08680344B3D
:101680001B78012B00F08E80324B1B78012B00F071
:101690009680314B1B78012B0ED12F4B00221A70F4
:1016A00002221146104611F0D7FA05E00021214B25
:1016B0001970022011F014F8154C2046FEF770FE48
:1016C0004FF0FF3382B2214612481BF0C9FF234B73
:1016D0001B78002B9FD003F04FFD9CE7164B002298
:1016E0001A700121022010F0FBFFE5E7134B0022E6
:1016F0001A700121022011F04FF9DDE7104B002292
:101700001A7001221146022011F0A6FAD4E700BF98
:101710003409002460F40024508500243C85002412
:1017200034E30024100F00248BCF00248CCF00243E
:1017300085F700240BE300240AE3002409E30024D6
:1017400008E3002407E30024F9E20024F8E200247F
:10175000F7E20024F6E2002406E3002405E3002477
:10176000634B00221A700221084611F015F9A3E715
:10177000604B00221A7001245F4B1C7003F06CFC5C
:101780002146022011F084F996E75C4B00221A7082
:10179000594B01221A7003F05FFC0221084611F038
:1017A00077F989E7564B00221A70534B01221A70C1
:1017B00003F052FC0321022011F06AF97CE7514B3F
:1017C00000221A704C4B01221A7003F045FC0421D0
:1017D000022011F05DF96FE74B4B1B78012B26D0EF
:1017E0004A4B1A785ABB4A4B1A78002A3BD1494BCC
:1017F0001B78012B40D0484B1B78012B43D0474B23
:101800001B78012B47D0464B1B78012B4BD0454B07
:101810001B78012B4FD0444B1B78012B17D1424B27
:1018200000221A700221084611F0F2FB0FE002219B
:10183000084610F055FF344B00221A7007E0013AB9
:101840000021022011F0A0FD304B00221A70374C0D
:101850002046FEF7A5FD4FF0FF3382B22146344803
:101860001BF0FEFED7E6013A0121022011F08CFDAB
:10187000274B00221A70EAE70021264B197002203C
:1018800010F0ECFFE3E7244B00221A700121022044
:1018900010F0E4FFDBE7214B00221A70022108461A
:1018A00010F0DCFFD3E71E4B00221A70012102204A
:1018B00011F0AEFBCBE71B4B00221A700321022074
:1018C00010F0CCFFC3E741F288331A4918481BF0E7
:1018D000C7FE69E5C8201CF057F9174B00221A70A3
:1018E000164BFF221A706BE5002014F001FA9FE6F8
:1018F00007E30024F9E200248DCF0024F8E200245D
:10190000F7E20024F6E2002404E3002403E30024C9
:1019100002E3002401E3002400E30024FFE20024AA
:10192000FEE20024FDE20024FCE20024340900244D
:1019300060F4002444E3002489CF002487030024BA
:1019400010B51B481B4B03604FF4E1334360002389
:101950008360C36003610C2242618361C3610362DF
:10196000436283621BF049FFB0B9002110481CF0AC
:1019700083F8A0B900210E481CF0A3F890B90C48D8
:101980001CF05BF888B90A4C642120461BF080FAF1
:1019900020461BF089FA10BD12F03CFCE5E712F07E
:1019A00039FCE7E712F036FCE9E712F033FCEAE72E
:1019B00060F400240010014010B588B00DF1040C53
:1019C000074C0FCCACE80F0094E807008CE8070048
:1019D000002101A81CF0A5F8024B186008B010BD4A
:1019E00040DA0408EC1400240422002304E010F878
:1019F00002C06344DBB201329142F8DCD843C0B28A
:101A000070470000F0B5ADF2FC5D254B93F8DC3576
:101A1000013BDBB2FD2B03D9214B072283F8DC25E8
:101A20001F4C4FF4BC652A46214606A826F031FF1C
:101A300094F8D43594F8D52594F8D615B4F8D8058B
:101A400094F8DA7594F8DCC5164ECDF814C00497F6
:101A50000390029101920093D4F8D03594F8DB25DD
:101A60001149304626F0F0FB0122314610460DF0B8
:101A700005FF294606A8FFF7B7FF8DF81900ADF856
:101A80001A500022294606A805F090FE642015F0A1
:101A900085FA064B00221A700DF2FC5DF0BD00BF06
:101AA00060330024080800243CDC0408DC00012426
:101AB000F0B589B00446C04D00224FF4BC61284601
:101AC00005F0EEFE2D78AB2D12D1BB4B5E884FF6A4
:101AD000FF739E420CD0B6F5BC6F80F09280B64882
:101AE00047783146FFF780FF874279D100230DE028
:101AF000B24EB14B5B882A46B149304626F0A4FB72
:101B00000122314610460DF0B9FE0123012C08BF19
:101B100043F00103002B40F08F80AA4B1B78002B71
:101B200040F08882A448C3680133C360A649763078
:101B3000FEF7D6FB002840F0BB829F4B93F89C3306
:101B4000012B06D99C4B002283F89C239F4B01223A
:101B50001A70994B93F85131012B06D9964B0022FC
:101B600083F85121994B01221A70934B93F850310D
:101B7000032B06D9904B002283F85021934B01226E
:101B80001A708D4B93F85231172B06D98A4B0522C8
:101B900083F852218D4B01221A70874B93F85331F1
:101BA0003C2B06D9844B1E2283F85321874B0122FC
:101BB0001A70814B93F8DC35013BDBB2FD2B06D963
:101BC0007D4B072283F8DC25804B01221A707F4B66
:101BD0001B78002B00F02E827D4B0A221A6029E22E
:101BE000764F4FF4BC63009333462A467949384612
:101BF00026F02AFB0122394610460DF03FFE012354
:101C000084E76D4847784FF4BC61FFF7EDFE8742EB
:101C100001D100237AE7694F4FF4BC630093334648
:101C20002A466D49384626F00FFB012239461046F8
:101C30000DF024FE012369E75F4CAB2323704FF4C2
:101C4000BC612046FFF7D0FE60704FF4BC63638038
:101C50000022E2600A232361012323755F4903C93F
:101C6000E061218458490868C4F876008888897939
:101C7000A4F87A0084F87C1059490868C4F83A003E
:101C80008888E08703C9A065A4F85C10A36122716D
:101C9000032161712321E1710F21A17102212172C0
:101CA0005049C4F8981050490868C4F8B6004F4924
:101CB00003C9C4F8D400A4F8D81084F85121052130
:101CC00084F852111E2084F8530184F85021C4F87E
:101CD0003831C4F83C3134A7D7E90067C4E950670C
:101CE00033A7D7E90067C4E952670820C4F8580150
:101CF0001620C4F85C01C4F8601184F8CC324EE0C0
:101D0000551C2D4C02EBC20304EBC303C3F8645112
:101D10000021C3F86C114FF08340C3F87001C3F881
:101D20007411C3F87801012083F868014FF48B60C7
:101D3000A3F8820143F2E840A3F8800147F6F75088
:101D4000A3F87E014FF2C770A3F87C01C3F890118D
:101D50004FF08140C3F88C012548C3F8880125481D
:101D6000C3F8840140F26640A3F89A0141F24600AC
:101D7000A3F8980148F2E400A3F896014FF6236017
:101D8000A3F89401C3F8A8114FF07F51C3F8A41130
:101D90001949C3F8A011194AC3F89C21EAB2022AD2
:101DA000AED9032279E000BF86032159C00C374029
:101DB000F5F3A622152052406033002408080024C1
:101DC00010DD04088ECF0024ACDD0408DC00012403
:101DD0007004002450DD04087CDD0408A4DD040840
:101DE000B4DD040878797A00BCDD0408C0DD04089D
:101DF000000020410000A041000070410000F041BF
:101E0000551CB14C02EBC20304EBC303C3F864518D
:101E10000021C3F86C11AD48C3F87001C3F8741108
:101E2000C3F87801022683F868614FF48B66A3F843
:101E3000826143F2E846A3F8806147F6F756A3F8BB
:101E40007E614FF2C776A3F87C61C3F890114FF022
:101E50008146C3F88C619E4EC3F888619D4EC3F8DD
:101E6000846140F26646A3F89A6141F24606A3F8FF
:101E7000986148F2E406A3F896614FF62366A3F84A
:101E80009461C3F8A8114FF07F51C3F8A41192498F
:101E9000C3F8A011C3F89C01EAB2042AB0D98A4D54
:101EA000012785F8D07285F8D172032385F8D232E4
:101EB0004FF41653C5F8D432002485F8D842642371
:101EC000C5F8DC3285F8E07285F8E14285F8E24237
:101ED000824B05F5397C0FCBACE807002CF8023BB0
:101EE0001B0C8CF8003040F25C73C5F8983385F811
:101EF0009C437B4B93E80300C5F8F802A5F8FC125D
:101F0000090C85F8FE1293E80300C5F80C03A5F848
:101F10001013090C85F8121305F56173714A07CA8D
:101F200083E80700704B05F5487693E8070003C681
:101F3000327003CBC5F85203C5F856131B7885F8E9
:101F40005A336A4BC5F8A0330523C5F8C03385F86A
:101F5000C4730223C5F8C83385F8CC43C5F8D04311
:101F600085F8D433234606E0574A1A44002182F804
:101F7000D5130133DBB2222BF6D95D4C1E22002192
:101F8000204626F075FA022323621623636200239B
:101F90001CE04D4903EB830201EB82020020C2F8F2
:101FA000200402F224440020206002F58564514D93
:101FB000256002F22C42504C146003EB830201EBCB
:101FC000820101F5866108600133DBB2012BE0D9A3
:101FD000002212E002EB82013B4B0B44012183F80B
:101FE0006015002083F86105642483F8624583F856
:101FF000630583F864150A44D2B2152AEAD9324B34
:102000003E4AC3F8D025082183F8D415002283F86E
:10201000D525012083F8D605A3F8D815162183F815
:10202000DA1583F8DB25072183F8DC1583F81624FD
:10203000FFF7E8FC244C94F8D43594F8D52594F8AF
:10204000D615B4F8D80594F8DA652D4D04F1760765
:10205000069705960490039102920193D4F8D03527
:10206000009394F8DB35274A4FF49671284626F002
:10207000B5F80122294610460DF000FCD4F8D02511
:10208000214B1A6094F8D425204B1A7094F8D5256A
:102090001F4B1A7094F8D6251E4B1A70B4F8D82529
:1020A0001D4B1A8094F8DA251C4B1A7009B0F0BD4C
:1020B0001B4B1C4A106818609188927999809A711C
:1020C000194B01221A7038E5603300240000F041FA
:1020D000000020410000A04100007041C8DD04085C
:1020E000D8DD0408E0DD0408ECDD0408777777002C
:1020F00058370024CDCCCC3D0000604064CE8F33F7
:1021000008080024F8DD040848F6002446F60024F8
:1021100045F6002444F6002442F6002440F600244C
:10212000D6330024ACDD0408DC00012410B5E4B093
:102130004FF4C67422460A4901A826F0AAFB21469C
:1021400001A8FFF751FC8DF80500ADF806404FF4EB
:102150004042214601A805F029FB64B010BD00BF34
:10216000D0310024F0B583B00446934D4FF4404283
:102170004FF4C671284605F093FB2D78AB2D11D195
:102180008D4B5E884FF6FF739E420BD0B6F5C67F2F
:102190003CD2894847783146FFF726FC874224D154
:1021A00000230DE0854E844B5B882A4684493046E7
:1021B00026F04AF80122314610460DF05FFB01235C
:1021C000012C08BF43F00103002B00F0F2807A4C91
:1021D000AB2323704FF4C6712046FFF705FC6070F7
:1021E0004FF4C673638000217BE0744F4FF4C673D5
:1021F000009333462A467349384626F025F80122D3
:10220000394610460DF03AFB0123D9E76A48477872
:102210004FF4C671FFF7E8FB874201D10023CFE7F7
:10222000664F4FF4C673009333462A4666493846D4
:1022300026F00AF80122394610460DF01FFB012353
:10224000BEE701EBC102614B03EBC203D3F864416B
:10225000594800EBC2025460D3F86C41D460D3F803
:1022600070411461D3F874415461D3F8784194619A
:1022700093F868411472B3F882415484B3F88041F2
:102280001484B3F87E41D483B3F87C419483D3F8AB
:1022900090411463D3F88C41D462D3F8884194629E
:1022A000D3F884415462B3F89A415487B3F8984103
:1022B0001487B3F89641D486B3F894419486D3F842
:1022C000A8419464D3F8A4415464D3F8A0411464A1
:1022D000D3F89C3101EBC10200EBC200C3630131B2
:1022E000C9B20429ADD93A4C1E220021204626F05D
:1022F000BFF8384D0FCD0FC495E80F0007C42380F9
:10230000FFF714FF03B0F0BD01EBC1022A4B03EB52
:10231000C2031C7A2D4800EBC20282F868415C8C33
:10232000A2F882411C8CA2F88041DC8BA2F87E418D
:102330009C8BA2F87C411C6BC2F89041DC6AC2F80D
:102340008C419C6AC2F888415C6AC2F884415C8F07
:10235000A2F89A411C8FA2F89841DC8EA2F896410F
:102360009C8EA2F894419C6CC2F8A8415C6CC2F8A7
:10237000A4411C6CC2F8A041DB6B01EBC10200EB75
:10238000C200C0F89C310131C9B20429BCD9114C3A
:102390001E220021204626F06BF8A4460C4C0FCCE0
:1023A000ACE80F0094E80F00ACE80700ACF8003090
:1023B000A8E70021E9E700BFD03100240808002485
:1023C000ACDE0408F8DE04083CDF040860330024B7
:1023D0003C3300245837002410B5084C4FF40271E8
:1023E0002046FFF701FB60704FF4027161804FF4EB
:1023F0000052204605F0DAF910BD00BFC82F0024B6
:10240000F0B583B00646424C4FF400524FF40271CF
:10241000204605F045FA2478AB2C11D13C4B5D8861
:102420004FF6FF739D420BD0B5F5027F40D238487E
:1024300047782946FFF7D8FA874228D1002310E0D1
:10244000344F3C46344D0FCD0FC40FCD0FC40FCDCC
:102450000FC42B6823700122394610460DF00EFA86
:102460000123012E08BF43F00103002B4ED0284C5E
:10247000AB2323704FF402712046FFF7B5FA60706A
:102480004FF4027363801023636000223AE0214F0F
:102490004FF4027300932B4622462049384625F01C
:1024A000D3FE0122394610460DF0E8F90123D8E7A2
:1024B000174847784FF40271FFF796FA874201D127
:1024C0000023CEE7134F4FF4027300932B462246AE
:1024D0001349384625F0B8FE0122394610460DF062
:1024E000CDF90123BDE711460132D2B2084C01EB10
:1024F000410304EB43035A72002018729872D87299
:1025000018735873532AEED9FFF766FF03B0F0BD76
:10251000C82F0024F41400247CDF0408B0DF040872
:10252000FCDF040810B5074C08212046FFF75CFAD1
:102530006070082161804FF46042204605F036F952
:1025400010BD00BF08170024F0B583B00546414C0C
:102550004FF460420821204605F0A2F92478AB2C04
:1025600010D13C4B5E884FF6FF739E420AD0072E77
:1025700053D8384847783146FFF736FA87423CD17E
:10258000002214E0344EB446344C0FCCACE80F00BB
:102590000FCCACE80F0094E80F00ACE807008CF813
:1025A00000300122314610460DF068F90122294918
:1025B0004B6801334B60012D08BF42F00102002A35
:1025C00044D0AB220A70264AD2684A60214B5A682E
:1025D00007EE902AF8EE677A224BC3ED007A224C80
:1025E0002249204625F030FE0122214610460DF0FA
:1025F00045F9FFF797FF03B0F0BD174F082300938D
:10260000334622461A49384625F01EFE0122394635
:1026100010460DF033F90122C9E70E48477808212A
:10262000FFF7E2F9874201D10022C0E70A4F0823F1
:102630000093334622460F49384625F005FE012215
:10264000394610460DF01AF90122B0E7044AD3606A
:10265000BCE700BF08170024F414002444E0040879
:1026600060330024BC1904240808002400E1040895
:1026700074E00408BCE0040810B5ADF5FC6D4FF43F
:10268000FC6422460A49684626F003F9214668465A
:10269000FFF7AAF98DF80100ADF802404FF480422F
:1026A0002146684605F082F80DF5FC6D10BD00BFAF
:1026B000E8270024F0B583B00646464C4FF480422C
:1026C0004FF4FC61204605F0EBF82478AB2C11D1D7
:1026D000404B5D884FF6FF739D420BD0B5F5FC6F04
:1026E00045D23C4847782946FFF77EF987422DD1ED
:1026F000002312E0384F3C46384D0FCD0FC40FCDAC
:102700000FC40FCD0FC495E80F0007C4237001223A
:10271000394610460DF0B2F80123012E08BF43F0F0
:102720000103002B53D02B4CAB2323704FF4FC61DF
:102730002046FFF759F960704FF4FC636380002274
:1027400022716271A2601123E3603CE0224F4FF4DA
:10275000FC6300932B4622462149384625F074FD40
:102760000122394610460DF089F80123D5E71948B2
:1027700047784FF4FC61FFF737F9874201D1002316
:10278000CBE7154F4FF4FC6300932B4622461549C7
:10279000384625F059FD0122394610460DF06EF8F5
:1027A0000123BAE710460132D2B20A4C00EB800393
:1027B00004EB83039A7400211974597459611976D2
:1027C000D96183F82010632AECD9FFF755FF03B0D5
:1027D000F0BD00BFE8270024F414002414E104082D
:1027E00054E10408A8E1040810B5ADF6A87D40F650
:1027F000A47422460A4901A826F04BF8214601A8F4
:10280000FFF7F2F88DF80500ADF806404FF4C0422E
:10281000214601A804F0CAFF0DF6A87D10BD00BF37
:1028200044180024F0B583B00446474D4FF4C0422D
:1028300040F6A471284605F033F82D78AB2D12D15F
:10284000414B5E884FF6FF739E420CD040F6A37357
:102850009E4245D83C4847783146FFF7C5F8874245
:102860002DD1002317E0394DAC46394E0FCEACE8E0
:102870000F000FCEACE80F000FCEACE80F0096E8CB
:102880000F00ACE807008CF8003001222946104602
:102890000CF0F4FF0123012C08BF43F00103002BCF
:1028A0003BD0294BAB221A700023B3F57A7F32D28A
:1028B000254A02EB8302002151600133F5E7234FE3
:1028C00040F6A473009333462A462249384625F041
:1028D000BBFC0122394610460CF0D0FF0123DAE799
:1028E0001948477840F6A471FFF77EF8874201D176
:1028F0000023D0E7154F40F6A473009333462A46D1
:102900001549384625F0A0FC0122394610460CF046
:10291000B5FF0123BFE7FFF767FF00230EE003F5D4
:102920002F70094A02EB830251680C4A02EB8002C5
:1029300011600B4A02EB830211600133B3F5967FFD
:10294000EDD303B0F0BD00BF44180024F4140024FC
:10295000FCE104083CE2040890E20408280F042487
:10296000780A042410B584B00A4B6C460FCB84E877
:102970000F0010212046FFF737F88DF801001021D5
:10298000ADF802104FF45042204604F00FFF04B09F
:1029900010BD00BF10170024F0B583B00446424DAF
:1029A0004FF450421021284604F07AFF2D78AB2DC9
:1029B00010D13D4B5E884FF6FF739E420AD00F2E1A
:1029C00043D8394847783146FFF70EF887422CD173
:1029D00000230DE0354E344B5B882A46344930469F
:1029E00025F032FC0122314610460CF047FF01234E
:1029F000012C08BF43F00103002B3FD12A4B5A683A
:102A00002C49C1F820249B68C1F834342A490A6053
:102A10002A4A1360244AD389527B02FB03F3284AD3
:102A200013600023536003B0F0BD204F10230093C8
:102A300033462A462349384625F006FC012239460A
:102A400010460CF01BFF0123D2E7174847781021EE
:102A5000FEF7CAFF874201D10023C9E7134F1023B5
:102A6000009333462A461849384625F0EDFB0122EB
:102A7000394610460CF002FF0123B9E70A4CAB239C
:102A8000237010212046FEF7AFFF60701023638093
:102A900000236360A3602373012363734CF25033FC
:102AA000E381FFF75FFFB5E7101700240808002453
:102AB000E4E2040860330024043A0024003A0024CD
:102AC000D839002450DD04087CDD040830B583B01B
:102AD000D64AD74B03F67811D2ED047AF8EE677A2E
:102AE000C1ED007A03F67411D2ED067AF8EEE77ABA
:102AF000C1ED007A03F51A61D2ED4E7AF8EEE77A6D
:102B0000C1ED007A03F6A411D2ED4F7AF8EEE77A20
:102B1000C1ED007A517907EE901A03F52061F8EEC5
:102B2000677AC1ED007AD17907EE901A03F6082191
:102B3000F8EE677AC1ED007A117A07EE901A03F683
:102B40008811F8EE677AC1ED007A917907EE901A54
:102B500003F60421F8EE677AC1ED007A92F8DC15ED
:102B600007EE901A03F51761F8EE677AC1ED007A67
:102B700092ED507BB7EEC77B03F5256181ED007ABE
:102B800092ED527BB7EEC77B03F6542181ED007ABC
:102B900003F67C11D2ED577AF8EEE77AC1ED007AB0
:102BA00003F51861D2ED567AF8EEE77AC1ED007AB6
:102BB00003F68411D2ED587AF8EEE77AC1ED007A87
:102BC00092F8CC2207EE902A03F6E423F8EE677A17
:102BD000C3ED007A002033E000EBC002D30093493C
:102BE000194491F8683107EE903A00EB800202F642
:102BF000ED0C8F4B03EB8C0CF8EE677ACCED007A82
:102C000002F6EE0CD1F8744103EB8C0CCCF80040CA
:102C100002F6EF0CD1F8784103EB8C0CCCF80040B5
:102C200002F50F6CD1F86C4103EB8C0CCCF8004032
:102C300002F6F102D1F8701103EB82031960013042
:102C40000428C9D9794D95F8D13207EE903A784CDD
:102C500004F61823F8EE677AC3ED007A04F6F81349
:102C6000D5EDB57AF8EE677AC3ED007A04F628233D
:102C7000D5EDB77AF8EEE77AC3ED007A05F539734A
:102C8000009301A9684609F078FC9DF8043007EE2E
:102C9000903A04F6AC13F8EE677AC3ED007A9DF82B
:102CA000053007EE903A04F51B63F8EE677AC3ED42
:102CB000007A9DF8063007EE903A04F6B413F8EE69
:102CC000677AC3ED007A9DF8073007EE903A04F674
:102CD000B813F8EE677AC3ED007A04F6BC13D5EDAD
:102CE000E67AF8EEE77AC3ED007A95F89C3307EEC2
:102CF000903A04F52B63F8EE677AC3ED007A95F805
:102D0000513107EE903A04F6B823F8EE677AC3ED36
:102D1000007A95F8523107EE903A04F6BC23F8EEAB
:102D2000677AC3ED007A95F8533107EE903A04F5CF
:102D30002C63F8EE677AC3ED007A04F6C82300220C
:102D40001A6095F8503107EE903A04F6CC23F8EE6D
:102D5000677AC3ED007A04F52363D5EDF07AF8EED7
:102D6000E77AC3ED007A95F8D43307EE903A04F68B
:102D7000A814F8EE677AC4ED007A00203FE000EB7B
:102D8000400253002B4919440B7A07EE903A00EBAE
:102D9000800202F2CD5C264B03EB8C0CF8EE677AD6
:102DA000CCED007A8C7A07EE904A02F2CE5C03EB0F
:102DB0008C0CF8EE677ACCED007ACC7A07EE904A6C
:102DC00002F2CF5C03EB8C0CF8EE677ACCED007A64
:102DD0000C7B07EE904A02F5BA6C03EB8C0CF8EE14
:102DE000677ACCED007A497B07EE901A02F2D15255
:102DF00003EB8203F8EE677AC3ED007A01305328C3
:102E0000BDD90D4A137907EE903A094B03F68C11A0
:102E1000F8EE677AC1ED007AD2ED037A03F69413E7
:102E2000F8EE677AC3ED007A002052E060330024A8
:102E3000280F0424C82F0024E827002400EB800278
:102E400093008A49194400EB4002530003F2997C35
:102E5000874A02EB8C0CD1ED057AF8EEE77ACCEDDF
:102E6000007A0C7E07EE904A03F29A7C02EB8C0CFF
:102E7000F8EE677ACCED007A03F29B7C02EB8C0CC7
:102E8000D1ED077AF8EEE77ACCED007A4C7C07EECC
:102E9000904A03F29C7C02EB8C0CF8EE677ACCED46
:102EA000007A91F8204007EE904A03F29D7C02EBF5
:102EB0008C0CF8EE677ACCED007A097C07EE901A5C
:102EC00003F29E7302EB8302F8EE677AC2ED007A9A
:102ED00001303128B2D9002238E002EB8203990098
:102EE000644B0B4402EB820041F2FE04044460494F
:102EF00001EB8404D3F8205407EE905AF8EE677A79
:102F0000C4ED007A41F2FF04044403F224452D6825
:102F100001EB8404256000F5885403F585652D6870
:102F200001EB8404256041F20114044403F22C45B2
:102F30002D6801EB8404256041F20214044403F57A
:102F40008663186801EB840318600132012AC4D932
:102F50004FF0000C47E00CEB8C01464A0A4492F813
:102F6000603507EE903A41F24E100844404B03EBB7
:102F70008000F8EE677AC0ED007A92F8610507EEFE
:102F8000900A41F24F10084403EB8000F8EE677A94
:102F9000C0ED007A92F8620507EE900A41F25010F7
:102FA000084403EB8000F8EE677AC0ED007A92F8EF
:102FB000630507EE900A41F25110084403EB8000CC
:102FC000F8EE677AC0ED007A92F8642507EE902A51
:102FD00041F252120A4403EB8203F8EE677AC3ED22
:102FE000007A0CF1010CBCF1130FB4D900231CE0E2
:102FF000214AD25C07EE902A03F6FC011C4A02EB40
:10300000C101F8EE677AC1ED007A1C4931F813105E
:1030100007EE901A41F2F91101EB430102EB810234
:10302000F8EE677AC2ED007A01330E2BE0D9144A2C
:10303000137B07EE903A0E4B03F52D61F8EE677A9D
:10304000C1ED007A517B07EE901A03F6D421F8EE19
:10305000677AC1ED007AD28907EE902A03F6D82369
:10306000F8EE677AC3ED007A03B030BDE82700249C
:10307000280F042460330024C43900244C39002470
:103080001017002410B5ADF51E6D40F6DC14224675
:103090000A4901A825F0FDFB214601A8FEF7A4FC82
:1030A0008DF80500ADF806404FF4E022214601A856
:1030B00004F07CFB0DF51E6D10BD00BF7898052453
:1030C00070B50546234C4FF4E02240F6DC11204653
:1030D00004F0E6FB2378AB2B06D162884FF6FF7332
:1030E0009A4201D0002314E01B4EB4461B4C0FCC77
:1030F000ACE80F000FCCACE80F000FCCACE80F0031
:1031000023688CF800300122314610460CF0B6FBE3
:103110000123012D08BF43F00103CBB10D4AAB23BE
:103120001370002353609360D360136153610AE00E
:10313000084A991D02EB8101002008601A44002111
:1031400082F8E8170133B3F5FA7FF1D3FFF79AFF5E
:1031500070BD00BF78980524F414002424E304080B
:1031600010B5BAB0E4242246094901A825F091FB24
:10317000214601A8FEF738FC8DF80500ADF80640A1
:103180004FF43042214601A804F010FB3AB010BDC4
:103190002017002438B5174C4FF43042E421204664
:1031A00004F07EFB2378AB2B04D162884FF6FF73CB
:1031B0009A421BD1104DAC46104C0FCCACE80F001E
:1031C0000FCCACE80F0094E80F00ACE807008CF8D7
:1031D00000300122294610460CF050FB054CE42239
:1031E0000021204625F044F9AB232370FFF7B8FFF8
:1031F00038BD00BF20170024F414002458E304084D
:103200002DE9F0432DED048BADF2044D064609EE99
:10321000101A144608EE103A0CF070F980B3054607
:103220000027B8EE499BB0EE490BB24928460CF096
:10323000F1F870B307EE904AB8EE679BB0EE490B19
:10324000AD4928460CF0E6F870B3B8EE488BB0EE06
:10325000480BAA4928460CF0DDF880B3013C0B2C42
:1032600000F2AC83DFE814F036009400DB01490380
:103270004E048505E8051F06C706FC066807050914
:103280000CF03CF9054608B10027CAE74FF0FF37BC
:10329000C7E7B0EE490B974928460CF0BBF8002869
:1032A000C8D16FF00107C5E7B0EE490B9249284637
:1032B0000CF0B0F80028C8D16FF00107C5E7B0EEF8
:1032C000480B8E4928460CF0A5F80028C6D16FF0AF
:1032D0000107C3E78A4B93ED060AB8EEC00B894994
:1032E00028460CF097F838B3874A884928460CF0EE
:1032F000C5F800282ED0864A864928460CF0BEF82C
:10330000002831D0844A854928460CF0B7F80028B7
:1033100034D0834A834928460CF0B0F8002840F0A6
:103320004D837F4A7F4928460CF0A8F8002840F0DA
:1033300045836FF0010741E3714B93ED060AB8EE48
:10334000C00B704928460CF065F80028CCD16FF00E
:103350000107C9E76C4A6D4928460CF08FF8002830
:10336000C9D16FF00107C6E7694A6A4928460CF0DF
:1033700085F80028C6D16FF00107C3E7664A6749A0
:1033800028460CF07BF80028C3D16FF00107C0E796
:103390005B4B93ED060AB8EEC00B5A4928460CF079
:1033A00039F8002879D0564B93ED4E0AB8EEC00B91
:1033B0005D4928460CF02EF800287DD0504B93ED47
:1033C0004F0AB8EEC00B594928460CF023F80028E4
:1033D00000F08180564A574928460CF04FF80028E3
:1033E00000F0BC80544A554928460CF047F80028A4
:1033F00000F0BF80524A534928460CF03FF800289D
:1034000000F0C2803E4B93F8513100EE103AB8EE16
:10341000400B4D4928460BF0FDFF002800F0BF800F
:10342000374B93F8523100EE103AB8EE400B474953
:1034300028460BF0EFFF002800F0C280304B93F8D5
:10344000533100EE103AB8EE400B414928460BF0DC
:10345000E1FF002800F0C580294B93ED500B3D495A
:1034600028460BF0D7FF002800F0CC80244B93EDCA
:10347000520B394928460BF0CDFF002840F09E82C0
:103480001F4B93ED520B344928460BF0C3FF002825
:1034900040F094826FF0010790E2194B93ED060A19
:1034A000B8EEC00B174928460BF0B4FF00287FF494
:1034B0007AAF6FF0010776E7114B93ED4E0AB8EE45
:1034C000C00B194928460BF0A5FF00287FF476AF02
:1034D0006FF0010772E70A4B93ED4F0AB8EEC00B8D
:1034E000124928460BF096FF00287FF473AF6FF067
:1034F00001076FE788E304088CE3040898E30408F5
:1035000060330024A0E304087C330024A8E304080B
:103510009A330024B4E30408B8330024C0E3040859
:10352000ACDD0408CCE30408D8E30408E4E30408B1
:10353000F8330024F0E3040816340024FCE3040804
:103540003434002408E4040814E4040824E40408DF
:1035500034E4040848E4040854E40408924A934913
:1035600028460BF08BFF00287FF43CAF6FF001077B
:1035700038E78F4A8F4928460BF080FF00287FF4F8
:1035800039AF6FF0010735E78B4A8C4928460BF0BD
:1035900075FF00287FF436AF6FF0010732E7884BE4
:1035A00093F8513100EE103AB8EE400B85492846A9
:1035B0000BF030FF00287FF433AF6FF001072FE7E7
:1035C0007F4B93F8523100EE103AB8EE400B7E4933
:1035D00028460BF01FFF00287FF430AF6FF0010783
:1035E0002CE7774B93F8533100EE103AB8EE400BCE
:1035F000764928460BF00EFF00287FF42DAF6FF0C0
:10360000010729E76E4B93ED500B714928460BF0EB
:1036100001FF00287FF42AAF6FF0010726E7684B0F
:1036200093ED560AB8EEC00B6A4928460BF0F2FE3D
:10363000D8B1634B93ED570AB8EEC00B66492846E4
:103640000BF0E8FEF8B15E4B93ED580AB8EEC00BF4
:10365000624928460BF0DEFE18B3614928460BF09C
:1036600033FF814658B30024CBE0554B93ED560A07
:10367000B8EEC00B574928460BF0CCFE0028D8D135
:103680006FF00107D5E74E4B93ED570AB8EEC00B2C
:10369000514928460BF0BEFE0028D4D16FF0010737
:1036A000D1E7474B93ED580AB8EEC00B4B4928467B
:1036B0000BF0B0FE0028D0D16FF00107CDE74849EC
:1036C00028460BF001FF002840F078816FF00307D7
:1036D00074E10BF013FF8046002840F09B804FF010
:1036E000FF3797E004EBC402354B03EBC20393EDC5
:1036F000590AB8EEC00B3B4940460BF08BFE002840
:1037000040F098806FF0010794E004EBC4022C4B6A
:1037100003EBC20393F8683100EE103AB8EE400BA9
:10372000314940460BF076FE002840F095806FF05E
:10373000010791E004EBC402214B03EBC20393EDBC
:103740005B0AB7EEC00A294940460BF063FE002829
:1037500040F092806FF001078EE004EBC402184B3A
:1037600003EBC20393ED5C0AB7EEC00A2049404662
:103770000BF050FE002840F08F806FF001078BE0C7
:1037800004EBC4020E4B03EBC20393ED5D0AB7EEEC
:10379000C00A184940460BF03DFE002840F08C80DE
:1037A0006FF0010788E000BFF8330024F0E304085D
:1037B00016340024FCE304083434002408E404082C
:1037C0006033002414E4040824E4040834E4040806
:1037D00048E4040860E4040868E4040870E40408A9
:1037E00078E404087CE4040880E4040888E404081D
:1037F00090E4040898E40408414648460BF0C4FDF0
:103800000134042C00F3DA800BF078FE80460028A7
:103810003FF45FAF04EBC402AC4B03EBC20393ED88
:10382000590AB8EEC00BAA4940460BF0F3FD002838
:103830003FF458AF04EBC402A44B03EBC20393F86C
:10384000683100EE103AB8EE400BA24940460BF04A
:10385000E1FD00283FF459AF04EBC4029B4B03EB9E
:10386000C20393ED5B0AB7EEC00A9B4940460BF0DA
:10387000D1FD00283FF45EAF04EBC402934B03EB91
:10388000C20393ED5C0AB7EEC00A944940460BF0C0
:10389000C1FD00283FF461AF04EBC4028B4B03EB86
:1038A000C20393ED5D0AB7EEC00A8D4940460BF0A6
:1038B000B1FD00283FF464AF04EBC402834B03EB7B
:1038C000C20393ED5E0AB7EEC00A864940460BF08C
:1038D000A1FD002890D104EBC4027C4B03EBC20392
:1038E00093ED5E0AB7EEC00A7E4940460BF092FDAA
:1038F000002881D16FF001077EE70BF0FFFD044641
:10390000002865D000270BF0F9FD002869D00BF0E6
:10391000F5FD00286CD00BF0F1FD00286FD06B4B4B
:1039200093F8D03200EE103AB8EE400B6E492046C4
:103930000BF070FD002869D0644B93F8D13200EE93
:10394000103AB8EE400B694920460BF063FD0028A1
:103950006CD05E4B93F8D23200EE103AB8EE400BCA
:10396000634920460BF056FD00286FD0574B93F863
:10397000D83200EE103AB8EE400B5E4920460BF00C
:1039800049FD002872D0514B93EDB50AB8EE400BBB
:10399000594920460BF03EFD002878D04B4B93ED63
:1039A000B70AB8EEC00B554920460BF033FD00288E
:1039B0007CD02246524928460BF0EAFC002E00F04B
:1039C000498738460DF2044DBDEC048BBDE8F08309
:1039D0000BF094FD044608B1002794E74FF0FF3741
:1039E00091E70BF08BFD002891D14FF0FF378EE768
:1039F0000BF084FD00288ED14FF0FF378BE70BF0E2
:103A00007DFD00288BD14FF0FF3788E72F4B93F8CF
:103A1000D03200EE103AB8EE400B334920460BF09E
:103A2000F9FC002888D16FF0010785E7274B93F850
:103A3000D13200EE103AB8EE400B2C4920460BF084
:103A4000E9FC002885D16FF0010782E71F4B93F84E
:103A5000D23200EE103AB8EE400B254920460BF06A
:103A6000D9FC002882D16FF001077FE7174B93F84C
:103A7000D83200EE103AB8EE400B1E4920460BF04B
:103A8000C9FC00287FF47FAF6FF001077BE70F4B85
:103A900093EDB50AB8EE400B174920460BF0BAFC7F
:103AA00000287FF47BAF6FF0010777E7074B93EDBA
:103AB000B70AB8EEC00B114920460BF0ABFC00284A
:103AC0007FF477AF6FF0010773E700BF6033002426
:103AD0007CE4040880E4040888E4040890E4040812
:103AE00098E40408A0E40408A8E40408B0E4040886
:103AF000BCE40408C4E40408CCE40408D8E40408E2
:103B0000E4E40408B64B93F8E03200EE103AB8EE65
:103B1000400BB44928460BF07DFC002800F08B8058
:103B2000AF4B93F8E13200EE103AB8EE400BAE49DD
:103B300028460BF06FFC002800F08E80AB4AAC49A1
:103B400028460BF09BFC002800F09780A44B93F8CC
:103B5000E23200EE103AB8EE400BA64928460BF0D0
:103B600059FC002800F09480A34AA44928460BF091
:103B700085FC002800F09D80994B93EDE60AB8EE95
:103B8000C00B9F4928460BF045FC002800F09C80A4
:103B90009C4A9D4928460BF071FC002800F0A38048
:103BA0009A4A9B4928460BF069FC002800F0A68041
:103BB000984A994928460BF061FC002800F0A9803A
:103BC000964A974928460BF059FC002800F0AC8033
:103BD000944A954928460BF051FC002800F0AF802C
:103BE0007F4B93EDF00AB8EEC00B904928460BF0DE
:103BF00011FC002800F0AE80794B93F89C3300EE66
:103C0000103AB8EE400B8A4928460BF003FC002816
:103C10007FF4D4AE724B93F89C3300EE103AB8EEBA
:103C2000400B834928460BF0F5FB00287FF4C6AE15
:103C30006FF00107C2E66A4B93F8E03200EE103AEB
:103C4000B8EE400B674928460BF0E4FB00287FF4F0
:103C500067AF6FF0010763E7614B93F8E13200EE65
:103C6000103AB8EE400B604928460BF0D3FB002811
:103C70007FF464AF6FF0010760E75C4A5C49284657
:103C80000BF0FCFB00287FF461AF6FF001075DE7EC
:103C9000534B93F8E23200EE103AB8EE400B554920
:103CA00028460BF0B7FB00287FF45EAF6FF00107EA
:103CB0005AE7514A514928460BF0E0FB00287FF4AF
:103CC0005BAF6FF0010757E7454B93EDE60AB8EE9F
:103CD000C00B4B4928460BF09DFB00287FF458AFE2
:103CE0006FF0010754E7474A474928460BF0C6FBE7
:103CF00000287FF455AF6FF0010751E7434A44496C
:103D000028460BF0BBFB00287FF452AF6FF0010791
:103D10004EE7404A404928460BF0B0FB00287FF4AC
:103D20004FAF6FF001074BE73C4A3D4928460BF087
:103D3000A5FB00287FF44CAF6FF0010748E7394A34
:103D4000394928460BF09AFB00287FF449AF6FF001
:103D5000010745E7224B93EDF00AB8EEC00B33495B
:103D600028460BF057FB00287FF446AF6FF00107A1
:103D700042E71B4B93F8C43300EE103AB8EE400B09
:103D8000184928460BF046FBD0B1154B93EDF20ACB
:103D9000B8EEC00B274928460BF03CFB00287FF407
:103DA0000DAE0F4B93EDF20AB8EEC00B2149284639
:103DB0000BF030FB00287FF401AE6FF00107FDE54A
:103DC000074B93F8C43300EE103AB8EE400B0549A8
:103DD00028460BF01FFB0028D7D16FF00107D4E76E
:103DE00060330024A8E40408ECE40408003700244D
:103DF000FCE40408B0E404084436002400E50408A8
:103E000010E50408E436002420E5040858360024B0
:103E100030E504086C36002440E5040880360024B0
:103E200048E50408B236002458E5040868E50408AB
:103E300078E50408D8E40408B14B93F8CC3300EEDD
:103E4000103AB8EE400BAF4928460BF0E3FAD0B178
:103E5000AB4B93EDF40AB8EEC00BAB4928460BF020
:103E6000D9FA00287FF4AAADA54B93EDF40AB8EE79
:103E7000C00BA54928460BF0CDFA00287FF49EAD73
:103E80006FF001079AE59E4B93F8CC3300EE103AA1
:103E9000B8EE400B9B4928460BF0BCFA0028D7D15E
:103EA0006FF00107D4E7994B9B7800EE103AB8EE1B
:103EB000400B974928460BF0ADFA00284ED0934BA3
:103EC0005B7800EE103AB8EE400B924928460BF0B2
:103ED000A1FA002851D08D4BDB7803F5FA6300EE90
:103EE000103AB8EEC00B8C4928460BF093FA002824
:103EF00052D08A4B1B7800EE103AB8EE400B88493E
:103F000028460BF087FA002857D0844B5B7800EEE8
:103F1000103AB8EE400B834928460BF07BFA002894
:103F20005AD07E4B9B7800EE103AB8EE400B7E499B
:103F300028460BF06FFA00287FF440AD774B9B7852
:103F400000EE103AB8EE400B774928460BF062FAC3
:103F500000287FF433AD6FF001072FE56B4B9B78A2
:103F600000EE103AB8EE400B694928460BF052FAC1
:103F70000028A4D16FF00107A1E7644B5B7800EE45
:103F8000103AB8EE400B634928460BF043FA00287C
:103F9000A1D16FF001079EE75C4BDB7803F5FA6374
:103FA00000EE103AB8EEC00B5B4928460BF032FA2F
:103FB00000289ED16FF001079BE7584B1B7800EE5D
:103FC000103AB8EE400B564928460BF023FA002869
:103FD0009BD16FF0010798E7504B5B7800EE103AE9
:103FE000B8EE400B4F4928460BF014FA002898D140
:103FF0006FF0010795E7424B1B7D00EE103AB8EEDB
:10400000400B404928460BF005FAD0B13C4B93EDEC
:10401000040AB8EE400B454928460BF0FBF900288E
:104020007FF4CCAC364B93ED040AB8EE400B3F491D
:1040300028460BF0EFF900287FF4C0AC6FF00107C1
:10404000BCE42F4B1B7D00EE103AB8EE400B2D491F
:1040500028460BF0DFF90028D8D16FF00107D5E72B
:10406000274B93F8D43300EE103AB8EE400B3049AA
:1040700028460BF0CFF908B1002315E0204B93F848
:10408000D43300EE103AB8EE400B294928460BF025
:10409000C1F90028F0D16FF00107EDE7012A0FD038
:1040A00030220DF8032001330B2B0DD8144A1A448B
:1040B00092F8D523002AF1D130220DF80320F2E73F
:1040C00031220DF80320EEE70C2303E030220DF837
:1040D000032001331F2BF9D96A46164928460BF0F5
:1040E000CDF900287FF46AAC6A46124928460BF0E5
:1040F000C5F900287FF462AC6FF001075EE400BFF1
:1041000060330024A8E404088CE50408A88C00248B
:1041100094E5040898E504089CE50408948C0024C0
:1041200014E60408A0E50408A4E50408A8E50408CA
:10413000B0E50408B8E504087B4B93ED010AB8EE3E
:10414000C00B7A4928460BF065F948B3764B5A689C
:1041500012F0070F34D01346002A2FDBDB10013397
:1041600007EE903AB8EEE70B714928460BF052F98A
:1041700088B3704B93ED000AB8EEC00B6E49284629
:104180000BF048F900284AD06C4928460BF09CF9FE
:104190008146002851D0674B1C68013CE400DEE0FA
:1041A000614B93ED010AB8EEC00B604928460BF055
:1041B00031F90028CAD16FF00107C7E7D31DCDE759
:1041C0001346002A05DBDB1000EE103AB8EEC00BF8
:1041D000CAE7D31DF7E7544B5A6812F0070F13D004
:1041E0001346002A0EDBDB10013307EE903AB8EEDF
:1041F000E70B4F4928460BF00DF90028B9D16FF0B5
:104200000107B6E7D31DEEE71346002A05DBDB10F6
:1042100000EE103AB8EEC00BEBE7D31DF7E7454BC5
:1042200093ED000AB8EEC00B434928460BF0F2F8B4
:104230000028A9D16FF00107A6E7404928460BF0F6
:1042400043F981460028A6D16FF00307A3E70BF0DE
:1042500055F9002840F094804FF0FF3790E004EBD0
:104260004402314B03EB42035B7A00EE103AB8EEA6
:10427000400B334940460BF0CDF8002840F09180C8
:104280006FF001078DE004EB4402274B03EB420380
:104290001B7A00EE103AB8EE400B2A4940460BF06C
:1042A000B9F8002840F08E806FF001078AE004EB37
:1042B00044021D4B03EB42039B7A00EE103AB8EE2A
:1042C000400B214940460BF0A5F8002840F08B80B8
:1042D0006FF0010787E004EB4402134B03EB42034A
:1042E000DB7A00EE103AB8EE400B184940460BF06E
:1042F00091F8002840F088806FF0010784E004EB1B
:104300004402094B03EB42031B7B00EE103AB8EE6C
:10431000400B0F4940460BF07DF8002840F08580A7
:104320006FF0010781E000BFC82F0024C0E504083A
:10433000CCE50408F0E20024D8E50408E8E5040828
:10434000F4E50408A8E40408FCE5040804E604080D
:1043500010E60408414648460BF016F80134BE4BFF
:104360005A68BE4B1B68DB009342A8BF1346A342AA
:104370007FF724AB0BF0C2F8804600283FF467AF0C
:1043800004EB4402B44B03EB42035B7A00EE103AB9
:10439000B8EE400BB24940460BF03CF800283FF421
:1043A0005EAF04EB4402AC4B03EB42031B7A00EE1E
:1043B000103AB8EE400BAB4940460BF02BF8002802
:1043C0003FF461AF04EB4402A34B03EB42039B7A3F
:1043D00000EE103AB8EE400BA34940460BF01AF835
:1043E00000283FF464AF04EB44029B4B03EB420311
:1043F000DB7A00EE103AB8EE400B9C4940460BF0D9
:1044000009F800283FF467AF04EB4402924B03EB3A
:1044100042031B7B00EE103AB8EE400B9449404635
:104420000AF0F8FF00283FF46AAF04EB44028A4B1D
:1044300003EB42035B7B00EE103AB8EE400B8D4974
:1044400040460AF0E7FF002884D104EB4402824B87
:1044500003EB42035B7B00EE103AB8EE400B85495C
:1044600040460AF0D7FF00287FF474AF6FF00107D1
:1044700070E7814B1B7900EE103AB8EE400B7F4994
:1044800028460AF0C7FF00283ED07B4B93ED020A76
:10449000B8EEC00B7A4928460AF0BCFF002842D08B
:1044A000754B5B7900EE103AB8EE400B7549284623
:1044B0000AF0B0FF002844D06F4B1B7913F0070FB0
:1044C0004ED0DB08013307EE903AB8EEE70B6E49A9
:1044D00028460AF09FFF002848D0604B93ED000A61
:1044E000B8EEC00B694928460AF094FF002857D05F
:1044F000674928460AF0E8FF814600285ED0574BFE
:104500001C68013CE4000AE15B4B1B7900EE103AA9
:10451000B8EE400B594928460AF07CFF0028B4D178
:104520006FF00107B1E7544B93ED020AB8EEC00BF0
:10453000534928460AF06EFF0028B1D16FF00107F9
:10454000AEE74D4B5B7900EE103AB8EE400B4D49AB
:1045500028460AF05FFF0028AED16FF00107ABE7F5
:10456000DB0800EE103AB8EEC00BB0E7424B1B7907
:1045700013F0070F0ED0DB08013307EE903AB8EEC8
:10458000E70B414928460AF045FF0028A5D16FF006
:104590000107A2E7DB0800EE103AB8EEC00BF0E727
:1045A0002E4B93ED000AB8EEC00B384928460AF0AE
:1045B00031FF00289CD16FF0010799E73449284664
:1045C0000AF082FF8146002899D16FF0030796E731
:1045D0000AF094FF8046002840F0B2804FF0FF3789
:1045E000AEE004EB8402244B03EB82039B7C00EEE1
:1045F000103AB8EE400B274940460AF00BFF00285E
:1046000040F0AF806FF00107ABE004EB84021A4B7F
:1046100003EB820393ED050AB8EEC00B1E4940463A
:104620000AF0F8FE002840F0AC806FF00107A8E027
:1046300004EB8402104B03EB82031B7E00EE103A66
:10464000B8EE400B154940460AF0E4FE002840F061
:10465000A9806FF00107A5E0C82F0024F0E2002434
:10466000F4E50408A8E40408FCE5040804E60408EA
:1046700010E6040818E60408E827002420E60408E9
:104680002CE6040838E60408CCE50408D8E504085C
:1046900044E6040850E6040858E6040868E60408FE
:1046A00004EB84027A4B03EB820393ED070AB8EE26
:1046B000C00B784940460AF0ADFE002840F08280E9
:1046C0006FF001077EE004EB8402714B03EB820381
:1046D00093F8203000EE103AB8EE400B6E49404699
:1046E0000AF098FE00287FD16FF001077CE004EB10
:1046F0008402674B03EB82031B7C00EE103AB8EE9A
:10470000400B664940460AF085FE00287DD16FF0D7
:1047100001077AE0414648460AF036FE01345C4B18
:104720001B795F4A1268D2009342A8BF1346A34286
:104730007FF744A90AF0E2FE804600283FF448AF24
:1047400004EB8402524B03EB82039B7C00EE103A95
:10475000B8EE400B534940460AF05CFE00283FF497
:1047600040AF04EB84024A4B03EB820393ED050A4E
:10477000B8EEC00B4C4940460AF04CFE00283FF40E
:1047800044AF04EB8402424B03EB82031B7E00EE3A
:10479000103AB8EE400B454940460AF03BFE00286F
:1047A0003FF446AF04EB8402394B03EB820393EDF5
:1047B000070AB8EEC00B374940460AF02BFE002826
:1047C0003FF46EAF04EB8402314B03EB820393F8AA
:1047D000203000EE103AB8EE400B2F4940460AF068
:1047E00019FE00283FF46FAF04EB8402284B03EB63
:1047F00082031B7C00EE103AB8EE400B274940467E
:104800000AF008FE00283FF472AF04EB8402204B4C
:1048100003EB82035B7C00EE103AB8EE400B2449B8
:1048200040460AF0F7FD00287FF474AF04EB8402E1
:10483000174B03EB82035B7C00EE103AB8EE400BA3
:104840001B4940460AF0E6FD00287FF463AF6FF095
:1048500001075FE74FF4806422460021684623F099
:1048600007FE00232246694628460AF041FD08B9A2
:104870006FF002076946DDF8340424F002F8002DD9
:104880003FF49FA828460AF01DF8FFF79AB800BF2A
:10489000E827002470E604087CE6040884E604089F
:1048A000F0E2002450E6040858E6040868E604082C
:1048B00090E604080000000030B585B04FF47A702F
:1048C00019F062F980E00021012002F031FEC248B7
:1048D00002F0F8FD0021022002F02AFEBF4802F09B
:1048E000F1FD0921012002F023FEBD4B93F9333085
:1048F00000EE103A0020B8EEC00A02F02BFE0921AB
:10490000022002F015FEB74B5B781BB1B64802F0EF
:10491000D9FD59E0B54B1B781BB1B54802F0D2FD6B
:1049200052E0B44802F0CEFD4EE00021012002F03A
:10493000FFFDB14802F0C6FD0021022002F0F8FDA3
:10494000AE4802F0BFFD0621012002F0F1FDAC4BA4
:10495000D3ED047AF5EE407AF1EE10FA25D0A94BAA
:1049600093ED046AB7EEC66A9FED937B37EE467B04
:104970009FED936B27EE067B9FED935B87EE056BB8
:104980009FED937B37EE467BB7EEC70BDFED9E7A4C
:10499000B4EEE70AF1EE10FA36DCB5EEC00AF1EE3D
:1049A00010FA04D59FED990A01E09FED980A0020C6
:1049B00002F0D0FD0621022002F0BAFD0220914B48
:1049C00093ED030A02F0C6FD914B1B78002BFBD13F
:1049D0004FF47A7019F0D8F802F07EFD8D4B1B78F9
:1049E000062BF1D801A252F823F000BFC7480208F5
:1049F0002B4902080F4A0208734A0208B94A020802
:104A0000FF4A02084B4B02089FED7F0ACFE70021C7
:104A1000012002F08DFD804802F054FD00210220AB
:104A200002F086FD7D4802F04DFD7D4BD3ED007A0E
:104A3000FCEEE77A17EE903A98B260F30F04002389
:104A400006E0302103F110026A4402F80C1C013325
:104A5000072B07DC9A1D40FA02F212F0010FF0D08A
:104A60003121EFE700238DF80C3001A802F02AFD78
:104A7000AAE70021012002F05BFD6A4802F022FD56
:104A80000021022002F054FD674802F01BFD0821BE
:104A9000012002F04DFD0320644B93ED000A02F06B
:104AA00059FD0821022002F043FD0220604B93EDE6
:104AB000000A02F04FFD87E70021012002F038FDD7
:104AC0005C4802F0FFFC0021022002F031FD5A4850
:104AD00002F0F8FC0821012002F02AFD0320574BC8
:104AE00093ED000A02F036FD0821022002F020FDBD
:104AF0000220534B93ED000A02F02CFD64E70021E5
:104B0000012002F015FD4F4802F0DCFC00210220DC
:104B100002F00EFD4C4802F0D5FC0721012002F006
:104B200007FD4A4D05F6F423022093ED000A02F03A
:104B300011FD0721022002F0FBFC05F6F8250220FA
:104B400095ED000A02F006FD3EE7414B93F8DB3598
:104B50001BB9304B00221A7036E70021012002F009
:104B6000E7FC3C4802F0AEFC0021022002F0E0FC31
:104B7000394802F0A7FC0B21012002F0D9FC374B89
:104B8000B3F9003000EE103A0020B8EEC00A02F08F
:104B9000E1FC0B21022002F0CBFC314B1B78134AC5
:104BA0001278304901A823F04FFB01A802F08AFCDB
:104BB0000AE700BFAFF300803333333333332C4085
:104BC00000000000000054409A9999999999054075
:104BD00000000000000059409CE60408A8E6040814
:104BE000D8BE00244C880024B4E60408798500244B
:104BF00068FF0408BCE60408C4E60408CCE6040820
:104C0000143A0024DC0700240000C8420000000021
:104C10008ECF0024506A0024D4E60408E4E6040899
:104C2000581A0424ECE60408F8E604089037002437
:104C3000481A042404E7040810E70408A4370024F1
:104C40004C1A04241CE7040824E70408280F042451
:104C5000603300242CE7040838E70408168D00248C
:104C6000188D002444E7040810B588B00DF1040C39
:104C7000074C0FCCACE80F0094E807008CE8070065
:104C8000002101A818F04DFF024B186008B010BDBC
:104C90005CDA0408343A002408B50138132810D827
:104CA000DFE800F00A10161C222930373E454C532D
:104CB0005A61686F757B828901220821414813F08F
:104CC00014FF08BD012210213E4813F00EFFF8E743
:104CD000012220213B4813F008FFF2E70122402186
:104CE000384813F002FFECE701224FF480413548C9
:104CF00013F0FBFEE5E700224FF40041314813F0CA
:104D0000F4FEDEE701224FF480512F4813F0EDFE50
:104D1000D7E700224FF400512B4813F0E6FED0E70E
:104D200001224FF48041284813F0DFFEC9E700223A
:104D30004FF40041244813F0D8FEC2E701224FF49B
:104D40008071224813F0D1FEBBE700224FF40071BE
:104D50001E4813F0CAFEB4E701224FF480611B48DD
:104D600013F0C3FEADE700224FF48041174813F063
:104D7000BCFEA6E701224FF40041144813F0B5FE33
:104D80009FE700224021124813F0AFFE99E701226D
:104D900080210F4813F0A9FE93E700224FF48071A1
:104DA0000B4813F0A2FE8CE701224FF40071084873
:104DB00013F09BFE85E700224FF48071054813F045
:104DC00094FE7EE70010025800040258000C0258BE
:104DD000000802580000025808B50138132810D8FE
:104DE000DFE800F00A10161C222930373E454C53EC
:104DF0005A61686F757B828900220821414813F04F
:104E000074FE08BD002210213E4813F06EFEF8E744
:104E1000002220213B4813F068FEF2E700224021E7
:104E2000384813F062FEECE700224FF48041354829
:104E300013F05BFEE5E700224FF40041314813F028
:104E400054FEDEE700224FF480512F4813F04DFE50
:104E5000D7E700224FF400512B4813F046FED0E76D
:104E600000224FF48041284813F03FFEC9E700229A
:104E70004FF40041244813F038FEC2E700224FF4FB
:104E80008071224813F031FEBBE700224FF400711D
:104E90001E4813F02AFEB4E700224FF480611B483D
:104EA00013F023FEADE700224FF48041174813F0C2
:104EB0001CFEA6E700224FF40041144813F015FE33
:104EC0009FE700224021124813F00FFE99E70022CD
:104ED00080210F4813F009FE93E700224FF4807100
:104EE0000B4813F002FE8CE700224FF400710848D3
:104EF00013F0FBFD85E700224FF48071054813F0A5
:104F0000F4FD7EE70010025800040258000C02581D
:104F1000000802580000025808B50138132810D8BC
:104F2000DFE800F00A10161C222930373E454C53AA
:104F30005A61686F757B828900220821414813F00D
:104F4000D4FD08BD002210213E4813F0CEFDF8E745
:104F5000002220213B4813F0C8FDF2E70022402147
:104F6000384813F0C2FDECE700224FF48041354889
:104F700013F0BBFDE5E701224FF40041314813F087
:104F8000B4FDDEE700224FF480512F4813F0ADFD51
:104F9000D7E701224FF400512B4813F0A6FDD0E7CC
:104FA00000224FF48041284813F09FFDC9E70122F9
:104FB0004FF40041244813F098FDC2E700224FF45B
:104FC0008071224813F091FDBBE701224FF400717C
:104FD0001E4813F08AFDB4E700224FF480611B489D
:104FE00013F083FDADE701224FF48041174813F021
:104FF0007CFDA6E700224FF40041144813F075FD34
:105000009FE701224021124813F06FFD99E700222B
:1050100080210F4813F069FD93E701224FF480715E
:105020000B4813F062FD8CE700224FF40071084832
:1050300013F05BFD85E701224FF48071054813F002
:1050400054FD7EE70010025800040258000C02587C
:10505000000802580000025808B5414B1B78012B8C
:1050600003D1404B1B78002B35D002213E4813F072
:1050700035FD002860D03D4B4FF07E521A6008216C
:10508000394813F02BFD00285AD0384B4FF07E5290
:105090005A604FF48061364813F020FD002853D049
:1050A000324B4FF07E529A604FF40061304813F05B
:1050B00015FD00284CD02D4B4FF07E52DA604FF496
:1050C00080512B4813F00AFD002845D0274B4FF0A4
:1050D0007E521A6108BD0121234813F0FFFCD8B1AC
:1050E000244B01221A7004211F4813F0F7FCB8B1B9
:1050F000204B01225A7002211B4813F0EFFC98B19B
:105100001C4B01229A700821174813F0E7FC78B174
:10511000184B0122DA70DDE7164B00221A70E2E725
:10512000144B00225A70E6E7124B00229A70EAE70D
:10513000104B0022DA70CDE70C4B00221A609EE77C
:105140000A4B00225A60A4E7084B00229A60ABE7A2
:10515000064B0022DA60B2E7044B00221A61B9E77D
:105160008ECF00248DCF002400000258143A002472
:10517000001002580C3A0024F0B597B0C04B1D78CF
:1051800015B9C04B1B79D3B9BE4B1B79002B00F06E
:10519000B981BD4B1B78012B00F0B48117B0F0BD75
:1051A0002046FFF779FD0134E4B2042CF8D94FF41E
:1051B000FA6018F0E9FCFFF74FFF2B460AE00124E4
:1051C000F3E7B24AD15C03F158026A4402F81C1CAE
:1051D0000133DBB2032BF4D9012404E02046FFF7AE
:1051E000FBFD0134E4B2042CF8D94FF4FA6018F056
:1051F000CBFCFFF731FF2B4608E0A44AD15C03F15A
:1052000058026A4402F8381C0133DBB2032BF4D98C
:10521000052404E02046FFF73FFD0134E4B20C2CE6
:10522000F8D94FF4FA6018F0AFFCFFF715FF974B71
:105230001A788DF840208DF841205A788DF8422058
:105240008DF843209A788DF844208DF84520DB783E
:105250008DF846308DF84730052404E02046FFF7EE
:10526000BBFD0134E4B20C2CF8D94FF4FA6018F00D
:105270008BFCFFF7F1FE854B1A788DF824208DF812
:1052800025205A788DF826208DF827209A788DF8D9
:1052900028208DF82920DB788DF82A308DF82B30E6
:1052A000052404E02046FFF737FE0134E4B20C2C5D
:1052B000F8D94FF4FA6018F067FCFFF7CDFE734B96
:1052C0001A788DF808208DF809205A788DF80A2070
:1052D0008DF80B209A788DF80C208DF80D20DB7856
:1052E0008DF80E308DF80F30052404E02046FFF7CE
:1052F00073FD0134E4B20C2CF8D94FF47A7018F035
:1053000043FC0D2404E02046FFF7C6FC0134E4B260
:10531000142CF8D94FF4FA6018F036FCFFF79CFE15
:105320005A4B1A788DF848208DF849205A788DF814
:105330004A208DF84B209A788DF84C208DF84D201E
:10534000DB788DF84E308DF84F300D2404E0204688
:10535000FFF742FD0134E4B2142CF8D94FF4FA609F
:1053600018F012FCFFF778FE484B1A788DF82C20C5
:105370008DF82D205A788DF82E208DF82F209A78D0
:105380008DF830208DF83120DB788DF832308DF8B3
:1053900033300D2404E02046FFF7BEFD0134E4B2B3
:1053A000142CF8D94FF4FA6018F0EEFBFFF754FE16
:1053B000364B1A788DF810208DF811205A788DF818
:1053C00012208DF813209A788DF814208DF815206E
:1053D000DB788DF816308DF817300D2404E0204668
:1053E000FFF7FAFC0134E4B2142CF8D94FF47A70C8
:1053F00018F0CAFB264F01221146384613F075FB00
:105400004FF4FA6018F0C0FBFFF726FE1F4E347809
:105410008DF8504000220121384613F066FB4FF40E
:10542000FA6018F0B1FBFFF717FE96F800C08DF890
:1054300034C02B4604E0174A0121D1540B44DBB29F
:10544000032BF8D906E000221349CA541149CA5463
:105450000135EDB2032D21D82B4605F158026A44DF
:1054600012F81C2C002AEED105F158026A4412F8F9
:10547000382C012AE7D1084A01215155E8E700BF3D
:105480008DCF00246033002405E300240C3A00246F
:105490000004025864CF00246CCF0024042304E0ED
:1054A0003C49002088540133DBB2132B19D81A462B
:1054B00003F15801694411F81C1C0029F0D103F1D3
:1054C0005801694411F8381C0129E9D103F1580148
:1054D000694411F8541C0029E2D12E490120C85416
:1054E000E1E714B9BCF1010F08D02A4B00221A756C
:1054F0000123294A1370294A137045E6254B0122DE
:105500001A75F5E7264B00221A701DE0012211469C
:10551000244813F0EAFA01221146234813F0E5FA71
:1055200001F0DAFF0021012002F002F81F4801F02B
:10553000C9FF0021022001F0FBFF1D4801F0C2FF5E
:105540004FF47A7018F020FB0221164813F0C6FAC7
:105550000028DBD000220121124813F0C6FA0022F5
:105560000121114813F0C1FA01F0B6FF002101201A
:1055700001F0DEFF0D4801F0A5FF0021022001F03F
:10558000D7FF0C4801F09EFF4FF47A7018F0FCFA38
:10559000DAE700BF6CCF00248DCF00240EE3002497
:1055A00005E3002400100258000C02584CE70408E0
:1055B00074E7040860E704082DE9F04105460E464B
:1055C00017469846069C036D00226169206998473A
:1055D000AD6C2369424639463046A84763690344A7
:1055E0006361BDE8F0812DE9F04105460E4617469E
:1055F0009846069C036D0022616920699847ED6C0E
:105600002369424639463046A847636903446361CB
:10561000BDE8F08112B9416110467047012A04D1FA
:1056200043690B4443610020704710B5064C07499D
:10563000204622F009FE0122214610460AF01EF9FA
:105640004FF0FF3010BD00BF0808002490E70408A9
:105650002DE9F04182B05569002D46DB07460E4624
:1056600014465168B5FBF1F89368434514D0B3F183
:10567000FF3F21D16168002208FB01F12046FFF7BE
:10568000C9FF00946368012221683046FFF794FF48
:105690006368E360C4F808806268B5FBF2F302FB5C
:1056A00013532268D7540022691C2046FFF7B2FF2B
:1056B000002002B0BDE8F081002203FB01F120468A
:1056C000FFF7A8FF0094E368012221683046FFF746
:1056D0008AFFB36D002BCDD0642005FB00F0F26D86
:1056E00090FBF2F0C0B29847C4E74FF0FF30E0E71C
:1056F000F0B583B04D69002D29DB06460C4649689C
:10570000B5FBF1F7A368BB4211D16268B5FBF2F3B8
:1057100002FB1353E26893421CD22268D65C00223B
:10572000691C2046FFF776FF304603B0F0BD00222B
:1057300007FB01F12046FFF76DFF0094636801222B
:1057400021683046FFF738FFE060A760DDE74FF0E3
:10575000FF30EAE74FF0FF30E7E72DE9F843054671
:10576000894616461F469DF820800EE001224FF024
:10577000FF314846FFF74EFFBDE8F8833A46294619
:10578000FFF766FFB8F1000F29D131462846FFF731
:10579000AFFFB0F1FF3FE9D0A728EFD1314628464F
:1057A000FFF7A6FF0446B0F1FF3F1ED0A72823D085
:1057B000A0F1A203042B2CD93A462946A720FFF7D3
:1057C00047FF3A4629462046FFF742FFB8F1000F4F
:1057D000DBD0012202214846FFF71CFFD5E701225A
:1057E00011464846FFF716FFCFE701224FF0FF3181
:1057F0004846FFF70FFFBFE73A462946FFF728FF65
:10580000B8F1000FC1D0012211464846FFF702FF50
:10581000BBE701226FF001013046FFF7FBFEABE76B
:10582000F0B583B005460C464E694968B6FBF1F702
:1058300001FB1766A368BB4202D0B3F1FF3F13D14F
:105840006168002207FB01F12046FFF7E3FE0094A8
:105850003346012221682846FFF7C5FEAB6D0BB128
:105860006420984703B0F0BD002203FB01F12046FD
:10587000FFF7D0FE0094E368012221682846FFF775
:10588000B2FEDDE770B505460E46FFF731FFC3B245
:10589000FB2B1DD90446FC2B1DD0FD2B23D0FE2B4A
:1058A0002CD131462846FFF723FF0406314628460F
:1058B000FFF71EFF04EB004431462846FFF718FFB0
:1058C00004EB002431462846FFF712FF204470BD48
:1058D00018460130FBE731462846FFF709FF50FA2A
:1058E00084F00130F3E731462846FFF701FF040258
:1058F00031462846FFF7FCFE2044E8E7074DC3B2D7
:10590000A3220749284622F09FFC0122294610467F
:1059100009F0B4FF4FF0FF30D9E700BF08080024BA
:10592000D0E704087AB908B543688B4203D369B15C
:10593000016010460BE001220549104609F09EFF68
:105940004FF0FF3003E04FF0FF307047084608BDCE
:10595000FCE7040838B50D4614461A6811195B684F
:10596000994200D99C1A15FB04F189B201F098FF05
:1059700008B1002038BD012018F006F905FB04F03D
:10598000F8E700002DE9F04107460E4614461D4693
:105990001A6811195B68994200D99C1A06FB04F336
:1059A000B3F5805F0AD0B3F5805F18D300240120DF
:1059B00018F0EAF806FB04F0BDE8F0814FF48051DE
:1059C000384601F0F3FE0028F1D10A2018F0DCF887
:1059D0002A684FF48051384601F0E8FEE7E70122DB
:1059E0000F49104609F04AFF2868C0F30B039BB12A
:1059F00016FB04F81FFA88F82A684146384611F069
:105A000081F90028D3D00A2018F0BEF82A68414650
:105A1000384611F077F9CAE7012111F05BF9E7E7A1
:105A20000CE8040884B070B582B006AC84E80F00BE
:105A30001E9D1F9C209A4FF0FF3308930E931493E2
:105A40002B680B9323681193136817930A9510948E
:105A500016921C9B002B35D01B9B002B32D00222B0
:105A6000002128461A9B984728461B9B98470246C8
:105A70001D90944E9449304622F0E6FB01223146B7
:105A8000104609F0FBFE0022114628461A9B984753
:105A90000222002120461A9B984720461B9B9847CC
:105AA0001D9A02441D928949304622F0CDFB012205
:105AB0003146104609F0E2FE0022114620461A9BAC
:105AC000984776E000231C9373E00CA906A8FFF723
:105AD0000FFEB0F1FF3F00F0D980C0F2DE80A628B3
